:020000040800F2
:10000000189D0020AD010008B30E0008A30E0008E3
:10001000B10E0008C3070008A51800080000000082
:10002000000000000000000000000000DB100008DD
:10003000ED0C0008000000002D0F000899110008C9
:10004000C7010008C7010008C7010008C701000870
:10005000C7010008C7010008C7010008C701000860
:10006000C7010008C7010008C7010008C701000850
:10007000C7010008C7010008C7010008C701000840
:10008000C7010008C7010008C7010008550800089B
:10009000C5070008C7010008C7010008450D000892
:1000A000C7010008C7010008C7010008C701000810
:1000B000C701000871120008C7010008C701000845
:1000C000C7010008C7010008C7010008C7010008F0
:1000D000C7010008D5160008C7010008111700085D
:1000E000F10C0008C7010008C7010008C70100089B
:1000F000C7010008C7010008C7010008C7010008C0
:10010000C7010008C7010008A5120008C7010008C0
:10011000C7010008C7010008C7010008C70100089F
:10012000C7010008C7010008C7010008C70100088F
:10013000C7010008C7010008C7010008C70100087F
:10014000C7010008C7010008C7010008C70100086F
:10015000C7010008C7010008C7010008C70100085F
:10016000C7010008C7010008C7010008C70100084F
:10017000C7010008C7010008C7010008C70100083F
:10018000C7010008C7010008DFF80CD000F04EFAE4
:1001900000480047CD2B0008189D00204FF0730049
:1001A000A0F101000028FBD17047000006488047FD
:1001B00006480047FEE7FEE7FEE7FEE7FEE7FEE74C
:1001C000FEE7FEE7FEE7FEE71512000889010008DA
:1001D00040EA01039B0703D009E008C9121F08C0C9
:1001E000042AFAD203E011F8013B00F8013B521E49
:1001F000F9D27047034611F8012B00F8012B002AB1
:10020000F9D11846704700F0004230F000400AD0A3
:10021000C10D01F56071C0F3160042EA0151C20838
:1002200040071143704700200146704730B50B4628
:10023000014600202022012409E021FA02F59D4216
:1002400005D303FA02F5491B04FA02F52844151EEA
:10025000A2F10102F1DC30BD2DE9F05F054600207E
:1002600092469B4688460646814640241BE0284627
:1002700041464746224600F0FAF953465A46C01A0C
:10028000914110D311461846224600F0E1F92D1A8B
:1002900067EB01084F4622460120002100F0D8F903
:1002A00017EB00094E41201EA4F10104DFDC484693
:1002B00031462A464346BDE8F09F2DE9FE4F804671
:1002C00081EA0300C00F0C46009021F0004123F0AA
:1002D0000045B8EB0200A94105D2404621469046B0
:1002E0001C460B46024623F00040104347D0270D22
:1002F000C7F30A00C3F30A510290401A0190402844
:100300006BDAC3F3130040F4801B0098924620B1CF
:100310000023D2EB030A63EB0B0B01985946C0F1A3
:100320004002504600F094F906460D4650465946A4
:10033000019A00F0ACF910EB08006141002487EA53
:10034000115284EAE7731A4340D0009A62B3019ACB
:10035000012A4FEA075215DC001B61EB02014FF046
:10036000004202EA0752CDE90042001C41F580112B
:1003700032462B4600F0ACF903B0BDE8F08F4046A2
:100380002146F9E7001B61EB0201001C41F58013D7
:1003900000185B412018A2F5001747EB030140EA63
:1003A000D570B6196D4111E06D084FEA360645EA81
:1003B000C0754FEA0752001B61EB0201001C41F5BA
:1003C000801149084FEA30000019514132462B464E
:1003D00003B0BDE8F04F00F06CB900980122400076
:1003E0000023D0EB020263EBE073009821464FEA52
:1003F000E074B8EB000061EB0401E9E783F000432F
:100400005BE781F0004158E72DE9FE4F81EA0304E4
:1004100004F0004421F0004100944FF0000B23F061
:10042000004350EA01045ED052EA03045BD0C3F3F8
:100430000A54C1F30A552C44A4F2F3340194A0FBEE
:100440000254C1F3130141F48011C3F3130343F4C5
:10045000801301FB024400FB034E840A970A44EA1E
:10046000815447EA8357A4FB076802958D0A05FB70
:1004700007854FEA932C04FB0C542705029D4FEA95
:10048000065847EA1637B5EB08056EEB070C870EE2
:10049000920E47EA811742EA8312A7FB0201B6EBEC
:1004A0000B0164EB00042B0D43EA0C335E1844EBA4
:1004B0001C50DA465146E7FB0201C5F313044FEA2C
:1004C0000B3343EA14534FEA0432019C43EA060318
:1004D000A4F10C040294009CCDE900B400F0F8F8FB
:1004E00003B0BDE8F08F00200146F9E72DE9F04D9B
:1004F00081EA030404F0004B21F0004514464FF05C
:10050000000A23F0004150EA050220D054EA01021B
:100510001DD0C5F30A570246C5F31303C1F31300F8
:10052000C1F30A5640F4801543F48013A7EB060884
:10053000101BD64608F2FD3873EB050002D308F114
:10054000010801E092185B41B8F1000F03DA0020C6
:100550000146BDE8F08D00204FF480110646844628
:100560000EE0171B73EB050705D3121B63EB0503A6
:1005700006434CEA010C49084FEA300092185B41EF
:1005800050EA0107EDD152EA030012D082EA0400DA
:1005900083EA0501084305D0101BAB4106D20122B6
:1005A000002306E000224FF0004302E06FF001025A
:1005B00053101AEB06004CEB085110EB0A0041EB0C
:1005C0000B01BDE8F04D00F074B8C1F30A52C1F35D
:1005D000130140F2FF3341F480119A4202DA002005
:1005E0000146704740F233439A42A2F2334202DCA2
:1005F000524200F03CB800F02BB8000030B5041EA9
:1006000071F1000404DB4FF00044404264EB01014F
:10061000141E73F1000405DB1C464FF000435242E8
:1006200063EB0403994208BF904230BD064C074D6E
:1006300006E0E06840F0010394E8070098471034B2
:10064000AC42F6D3FFF7A4FDA03F0008C03F00086E
:10065000202A04DB203A00FA02F100207047914082
:10066000C2F1200320FA03F3194390407047202A77
:1006700004DB203A21FA02F00021704721FA02F34C
:10068000D040C2F120029140084319467047202A09
:1006900006DBCB17203A41FA02F043EAE07306E0AA
:1006A00041FA02F3D040C2F12002914008431946BA
:1006B000704710B5141E73F1000408DA401C41F1B4
:1006C000000192185B411A4301D120F0010010BDD6
:1006D0002DE9F04D92469B4611B1B1FA81F202E04C
:1006E000B0FA80F220329046FFF7B2FF04460F4680
:1006F00040EA0A0041EA0B0153465A46084313D028
:10070000114653EA010019D0C8F140025046FFF7E4
:10071000AEFF05460E46504659464246FFF798FF43
:10072000084305D0012004E020463946BDE8F08D9D
:100730000020054346EAE0762C4337430A986305D8
:10074000E40AA0EB08000022FD0A44EA47540A30FC
:1007500002D500200146E9E7010510196941DDE9EC
:10076000084500196941BDE8F04DA2E770B58C1845
:1007700010F8015B15F0070301D110F8013B2A11B5
:1007800006D110F8012B03E010F8016B01F8016BA2
:100790005B1EF9D12B0705D40023521E0DD401F89E
:1007A000013BFAE710F8013BCB1A921C03E013F867
:1007B000015B01F8015B521EF9D5A142D8D300209C
:1007C00070BDFEE730B5204C87B00221204600F016
:1007D0000DF9002835D00221204600F04FF801AA7B
:1007E0000021204600F0D2F99DF80C00002828D105
:1007F000164C9DF81700217888420CD21C280AD28A
:10080000134951F8205035B105980DF1040C0090B2
:100810009CE80F00A8470E490198103901AA08600A
:100820009DF80E000871002005E013180D18DB7A02
:10083000401C6B71C0B20B798342F6D86068401CD3
:10084000606007B030BD0000006400408000002000
:10085000C08E002010B5084C0121204600F0C6F8DB
:10086000002807D00121204600F008F8BDE810401C
:1008700001F008BF10BD00000064004030B508233F
:1008800010240422B1F5007F1DD010DC202929D0CE
:1008900007DC012921D0042922D0082900D1C46015
:1008A00030BD402920D0B1F5807FF9D10BE0002583
:1008B000B1F5004F06D008DCB1F5806F03D0B1F57B
:1008C000006FEDD18561426030BDB1F5803F0DD044
:1008D000B1F5003FF8D1446030BD0549816030BDBD
:1008E000C36030BD036130BD046130BD436030BDC5
:1008F00001010100094910B588424FF0010101D101
:100900004C0601E04FF08064204600F035FB2046A5
:10091000BDE81040002100F02FBB00000064004043
:10092000F0B5827A012191402E4A136843F0010309
:1009300013602C4B1C331C688C431C60294D067BB8
:10094000294C0C35A6B92E688E432E604688C78880
:1009500046EA0746877A04EBC707C7F84066068869
:10096000878846EA0746877A04EBC707C7F84466D4
:10097000067B012E12D12E680E432E60867A056802
:1009800004EBC6064FEA3545C6F84056867A4568F8
:1009900004EBC6044FEA3545C4F84456114CC57AF9
:1009A000241D002D256806D00D4325600D4C0589BA
:1009B000143415B104E08D43F7E725688D432560B5
:1009C0000589012D02D125680D432560407B012852
:1009D00002D1186808431860106820F00100106008
:1009E000F0BD0000006600400060004002460020AC
:1009F00053690B424AD0B1F5807F3BD013DC082904
:100A00002ED007DC012926D0022927D004293DD188
:100A1000D0682BE0102925D0202926D0402935D1B7
:100A20001069102130E0B1F5004F2BD00BDCB1F58F
:100A3000007F22D0B1F5806F22D0B1F5006F25D1B3
:100A40009069702120E0B1F5803F11D0B1F5003FF1
:100A50001CD15068E5E790680D4915E0D06802E0C8
:100A6000D068DEE7106903210EE0106908210BE071
:100A70005068FBE79069012106E09069022103E0DC
:100A8000906900E05068042100F02AB97047000026
:100A900001010100002A426901D00A4300E08A43B3
:100AA0004261704710B50368002223F0020303601F
:100AB000036843F0010303604FF6FF7300E0521C2C
:100AC0004468E40701D19A42F9D14268D2073ED086
:100AD0008A79012A02683CD022F080020260CA7939
:100AE000012A026838D022F0400202600A7A012A04
:100AF000026834D022F0200202604A7A012A026899
:100B000030D022F0100202608A7A012A02682CD0CA
:100B100022F008020260CA7A012A026828D022F074
:100B2000040202608A78CC78920742EA04620C7967
:100B300042EA04424C79098842EA0452491E0A43B7
:100B4000C261016821F001010160002114E0002070
:100B500010BD42F08002C1E742F04002C5E742F01A
:100B60002002C9E742F01002CDE742F00802D1E7C7
:100B700042F00402D5E7491C4268D20701D09942ED
:100B8000F9D14068C007E2D1012010BD10B500EBDB
:100B90000113D3F8B04114F004041472D3F8B04137
:100BA00034D0E408C2F80440D3F8B04104F00204A1
:100BB0005472D3F8B44104F00F049472D3F8B441E2
:100BC000240AD474D3F8B841D472D3F8B841240AB3
:100BD0001473D3F8B841240C5473D3F8B841240EDD
:100BE0009473D3F8BC41D473D3F8BC41240A147471
:100BF000D3F8BC41240C5474D3F8BC311B0E93744D
:100C000039B1016941F02001016110BD640D14602A
:100C1000CAE7C16841F02001C16010BD00218171A7
:100C2000C171017241728172C1728170C170032100
:100C300001710221417101210180704730B50246E6
:100C4000002093685B0108D49068000101D5012061
:100C500003E09068C00037D5022002EB0012D2F802
:100C6000803103F00103C2F880310B7A73B3D2F8FC
:100C700080414D681C434B7A43EAC5031C43C2F8CC
:100C800080418B7A03F00F038B72D2F8843123F00A
:100C90000F03C2F88431D2F884318C7A2343C2F82E
:100CA0008431CB7ACC6843EA0423C2F88831CB7B09
:100CB000096943EA0121C2F88C11D2F8801141F090
:100CC0000101C2F8801130BD042030BDD2F880315E
:100CD0004C7A23430C8843EA4453C2F88031D0E76E
:100CE000024600200A4200D00120704770470000F1
:100CF00010B54FF48064204600F054F800280ED060
:100D0000204600F049F821460B4800F0B6F80B49A0
:100D10000B4C0028084603D000F0CBFBE08110BD4F
:100D200000F0C7FB80B22082E189884201D9401AD5
:100D300000E00020608210BD00000240000400407E
:100D40002E11002010B54FF40074204600F02AF850
:100D500000280ED0204600F01FF821460B4800F076
:100D60008CF80B490B4C0028084603D000F0A1FB7F
:100D7000A08010BD00F09DFB80B2E080A188884279
:100D800001D9401A00E00020208110BD000002407F
:100D9000000400402E110020014908607047000047
:100DA000143C0140034A0146002012680A4200D068
:100DB00001207047143C0140F0B5002301240327B3
:100DC0000D6804FA03F21540954242D1D0F800C0F4
:100DD0005E0007FA06F52CEA050CC0F800C091F891
:100DE00004C0D0F800E00CFA06FC4CEA0E0CC0F887
:100DF00000C091F804C0BCF1010F02D0BCF1020F99
:100E00001FD1D0F808C02CEA050CC0F808C091F832
:100E100005C0D0F808E00CFA06FC4CEA0E0CC0F84D
:100E200008C0D0F804C02CEA020CC0F804C0426824
:100E300091F806C00CFA03FC1FFA8CFC42EA0C0283
:100E40004260C268AA43C260CA79C568B2402A43F8
:100E5000C2605B1C102BB3D3F0BD4B07DB0E9A4076
:100E6000C90810B500EB8100016A0F249C40A14322
:100E70000162016A1143016210BD0246002012693D
:100E80000A4200D0012070474183704701837047B8
:100E90004FF6FF7101600021017141718171C171D3
:100EA0007047FEE77C210148FFF7EEBF00100240CB
:100EB000FEE7704730B50F22C47801780123FCB1FA
:100EC000144C246801F1E02104F4E064C4F5E0640A
:100ED000C4F30724C4F10405E2404478AC408578AB
:100EE000154025432A0181F80024007800F01F01F5
:100EF0008B404009800000F1E020C0F8003130BD97
:100F000001F01F0083404809800000F1E020C0F894
:100F1000803130BD0CED00E0024A1140014302482F
:100F20000160704780FFFF1F08ED00E07047000080
:100F3000044A0029116801D0014300E08143116097
:100F40007047000030380240044A0029116801D07F
:100F5000014300E0814311607047000040380240C7
:100F6000044A0029116801D0014300E08143116067
:100F70007047000060380240044A0029116801D01F
:100F8000014300E0814311607047000020380240B7
:100F9000044A0029116801D0014300E08143116037
:100FA0007047000044380240044A0029116801D00B
:100FB000014300E081431160704700002438024083
:100FC00070B5204A1168204C11F00C0104D0661055
:100FD000042903D0082903D004601BE0066019E04F
:100FE0001849091F0B68C3F380550B6803F03F03D2
:100FF00015B1B6FBF3F301E0B4FBF3F30C68096839
:10100000C4F388146343C1F30141491C4900B3FB95
:10101000F1F1016011680F2303EA11110B4B5C5CC5
:101020000168E14041601468072505EA94241C5DCD
:1010300021FA04F48460126805EA52329A5CD140C5
:10104000C16070BD083802400024F4000000002098
:101050000029018802D041F4005101E021F400513F
:10106000018070470029018802D041F0400101E071
:1010700021F04001018070470246002012890A4297
:1010800000D001207047808970478181704730B55A
:1010900002884C8802F441530A88CD8822438C8808
:1010A0002C4322430C8922434C8922438C892243BE
:1010B000CC8922431A430280828B22F4006282830D
:1010C000098A018230BD0029818802D041F00401E3
:1010D00001E021F004018180704770470CB50021C8
:1010E000284801910091026842F4803202604FF476
:1010F000A043026802F400320092019A521C01924D
:10110000009A12B9019A9A42F3D10268920300D56B
:10111000012100911B4940310A6842F080520A6067
:1011200019490A6842F440420A60164908310A68BF
:101130000A600A6842F400420A600A6842F4A05257
:101140000A60009B0A1F012B1AD0104B1360026823
:1011500042F08072026002689201FCD50C4A40F2B3
:1011600005701060086820F003000860086840F00F
:10117000020008600868C0F381000228FAD10CBDA3
:10118000044BE3E7003802400070004010540007B1
:10119000003C0240085440077047000070B51A4CEC
:1011A00020681A4A10F00C01194804D0551004297F
:1011B00003D0082903D002601BE0056019E0124942
:1011C000091F0B68C3F380560B6803F03F0316B189
:1011D000B5FBF3F201E0B2FBF3F20B680968C3F36D
:1011E00088135A43C1F30141491C4900B2FBF1F194
:1011F00001602168064AC1F30311121D515C0268A7
:10120000CA40026070BD0000083802400024F400AB
:1012100010000020124810B5016841F4700101600F
:101220001048016841F0010101600E4A00210832B6
:10123000116002680C4B1A400260031D0B4A1A60D1
:10124000026822F48022026006480C300160FFF739
:1012500045FF03494FF000608039086010BD000071
:1012600088ED00E000380240FFFFF6FE1030002459
:1012700010B50B4C0121204600F01DF918B10121D9
:10128000204600F03CF80221204600F014F9002826
:1012900005D02046BDE81040022100F030B810BD56
:1012A0000004004010B50D4C0121204600F003F968
:1012B00000280ED00121204600F01EF80848418881
:1012C00040F2E732914205D3002141808188491CD8
:1012D000818010BD4188491C418010BD000C004038
:1012E000F80000200029018802D041F0800101E0CF
:1012F00021F0800101807047C94301827047C943D2
:10130000018270470029018802D041F0010101E00B
:1013100021F0010101807047002930F8441F02D0FC
:1013200041F4004101E0C1F30E010180704700006B
:10133000464910B5884206D101210846FFF734FE20
:10134000002101205BE0B0F1804F09D04049884284
:101350000DD101210220FFF70FFE0021022070E0D5
:1013600001210846FFF708FE0021012069E0394904
:10137000884206D101210420FFF7FEFD0021042050
:101380005FE03549884206D101210820FFF7F4FDCE
:101390000021082055E03149884206D10121102062
:1013A000FFF7EAFD002110204BE02D49884206D1CD
:1013B00001212020FFF7E0FD0021202041E0294904
:1013C000884206D101210220FFF7EEFD0021022014
:1013D00015E02549884202D101210C040AE0234985
:1013E000884202D101214C0404E0214988420AD1FB
:1013F00001218C042046FFF7D7FD00212046BDE8DF
:101400001040FFF7D1BD1B49884206D10121402081
:10141000FFF7B2FD0021402013E01749884206D1B2
:1014200001218020FFF7A8FD0021802009E0134959
:1014300088420AD1841501212046FFF79DFD002135
:101440002046BDE81040FFF797BD10BD00000140E9
:101450000004004000080040000C00400010004064
:1014600000140040000401400040014000440140DD
:101470000048014000180040001C004000200040CF
:1014800070B50589048B068C25F007050D434FF6D2
:10149000FC410C4040F201110C434FF6FF7101EA90
:1014A000031126F022061143314305810483018490
:1014B00070BD406A704702460020138A92890B4231
:1014C00002EA010202D0002A00D001207047002A5F
:1014D000828901D00A4300E08A438281704700007C
:1014E00030B5028C22F001020284028C8388048BC6
:1014F00022F0020224F073050C882C438D891543D9
:101500004A882A430C4DA84202D00C4DA8420DD166
:1015100022F00805CA8923F440732A4322F0040507
:101520008A882A430D8A1D434B8A2B438380048378
:1015300089684163028430BD00000140000401401D
:10154000028B22F008020A430283704770B5028CB6
:1015500022F480720284028C8488838B0D8823F0AD
:1015600073031D4322F400738E894FF6FF7202EA63
:1015700006261E434B8802EA03233343104EB04233
:1015800002D0104EB04215D123F40066CB8924F46A
:10159000405402EA0323334323F480668B8802EA33
:1015A000032333430E8A02EA061626434C8A02EAD4
:1015B00004143443848085838968C163038470BDC7
:1015C0000000014000040140828B22F008020A431F
:1015D0008283704770B5028C22F480520284048C9E
:1015E0008288838B0D8823F4E6464FF6FF7303EA67
:1015F0000525354324F400568C8903EA043434432A
:101600004E8803EA06362643084CA04202D0084C16
:10161000A04205D122F480440A8A03EA82122243BE
:101620008280858389680164068470BD0000014062
:1016300000040140828B4FF6FF7322F4006203EA3C
:10164000012111438183704741637047C163704733
:10165000016470474162704730B50288164B174CE1
:1016600098420DD0A0420BD0B0F1804F08D0144D5D
:10167000A84205D0134DA84202D0134DA84203D171
:1016800022F070054A882A43104DA84206D0104D1A
:10169000A84203D022F440750A892A4302804A688E
:1016A000C2620A880285984201D0A04201D1897A9B
:1016B00001860121818230BD00000140000401400B
:1016C0000004004000080040000C004000100040F2
:1016D0000014004070B50C4E40F2255529463046A6
:1016E00000F04BF800280ED0084C207828B930467E
:1016F00000F0D0F86168C0B2884729463046BDE89E
:10170000704000F023B870BD0010014000010020BF
:1017100070B50C4E40F225552946304600F02DF8A4
:1017200000280ED0084C607828B9304600F0B2F896
:10173000A168C0B2884729463046BDE8704000F035
:1017400005B870BD00480040000100200A0A0121D0
:101750009140C943018070470029818902D041F43A
:10176000005101E021F400518181704702460020C0
:1017700012880A4200D00120704730B501F01F02E4
:1017800001240025C1F3421304FA02F2012B0FD009
:10179000022B0FD0838A4FEA11210088134204FAEA
:1017A00001F400EA040001D000B10125284630BD53
:1017B0008389F0E7038AEEE710B5C1F3421301F025
:1017C0001F040121A140012B07D0022B07D01430A8
:1017D000002A026805D00A4304E00C30F8E7103014
:1017E000F6E78A43026010BD7FB50446008A0D46C5
:1017F00020F44051E88808432082A08941F20C611E
:101800008843A9882A8911436A8902431143A18127
:10181000A08A20F44071A8890843A0826846FFF797
:10182000CFFB1A48844202D01948844201D1039860
:1018300000E00298A189090400EBC00101EB00104F
:10184000296801D5490000E08900B0FBF1F264206D
:10185000B2FBF0F109010B096FF018056B4302EBC5
:101860008302A3891D044FF0320306D503EBC202A5
:10187000B2FBF0F000F0070005E003EB0212B2FB50
:10188000F0F000F00F00084320817FBD0010014000
:10189000001401408088C0F308007047C1F30801BC
:1018A00081807047FEE7000037B514460846064BB6
:1018B0006A46214600F0FEF804466946002000F022
:1018C00090FC20463EBD0000E321000802E008C86D
:1018D000121F08C1002AFAD170477047002001E0AA
:1018E00001C1121F002AFBD1704700002DE9F04111
:1018F000164A0446107828BB4FF0010C82F800C04D
:101900004FF47A7700254FF0E02013E039468C42FF
:1019100000D8214642F228334B4343618561C0F829
:1019200010C00369DE0701D0DB03FAD505618561CC
:10193000611A8CB2002CE9D11570BDE8F08100BFAE
:1019400001F00EFC641EA4B2FAD2F6E7F800002003
:101950002DE9FF5FDDE90220010DDDF838B002431B
:1019600018D044F61050A1F2FF3141430D140F98E6
:10197000012820D0A5EB0B00401C5FEA000A4FF0C5
:101980000004474EDFF81C91A046504616D5CAF118
:10199000000728E00F98012443A2012808D0002165
:1019A00000980F9BC0E90021C0E90243BDE8FF9FFA
:1019B0006FEA0B01F4E7CBF10000DEE7074612E027
:1019C000F80707D02246334640464946FEF71CFD3D
:1019D000804689462246334610461946FEF714FDD6
:1019E00004460E467F10002FEAD1DDE90201BAF16C
:1019F000000F42464B4602DAFEF706FD01E0FEF715
:101A000075FD04460E460022284BFEF7F7FD03D86D
:101A10004FF0FF30014607E00022254B20463146BB
:101A2000FEF74BFCFEF7D1FD102409E0002C0ADB89
:101A30000A220023FEF710FC019B30321A55641E67
:101A400050EA0102F2D1641C019AC4F1110314445A
:101A50000F9A012A03D0012208430DD10AE008435E
:101A600004D000204FF0110B0F9080E7A3EB0B0583
:101A70006D1E0DE05B4504DD4FF0000205F1010530
:101A800004E003DA4FF00002A5F10105002AECD0D2
:101A900000980F99C0E90231C0E9004586E70000CF
:101AA000000024400000F03F300000000000F04340
:101AB0000000E03F2DE9FF4F95B09B468946064662
:101AC00000250FE2252877D100242746F84A012176
:101AD000059400E0044316F8013F203B01FA03F0AF
:101AE0001042F7D130782A2811D06FF02F033078C8
:101AF000A0F13002092A16D8059A44F0020402EB3C
:101B0000820203EB42021044761C0590EFE759F87D
:101B1000042B0592002A03DA504244F40054059045
:101B200044F00204761C30782E2816D116F8010FE6
:101B300044F004042A280DD06FF02F023078A0F171
:101B40003003092B09D807EB870302EB4303C718BF
:101B5000761CF3E759F8047B761C30786C280FD09C
:101B600006DC4C2817D068280DD06A2814D104E070
:101B7000742810D07A280FD10DE044F400140AE044
:101B800044F4801401E044F440147278824202D19B
:101B900004F58014761C761C307866280BD013DC94
:101BA000582877D009DC002875D04528F6D046287B
:101BB000F4D047281AD19DE118E0632835D0642875
:101BC00079D0652812D195E1702873D008DC672898
:101BD000F1D069286FD06E280DD06F2806D1B5E0FE
:101BE00073282CD0752875D0782874D05A46179948
:101BF00090476D1C75E1C4F30250022809D00328F8
:101C00000DD0D9F8001004280DD00D6009F1040999
:101C100067E1D9F80010EA17C1E90052F6E7D9F8F0
:101C200000100D80F2E70D70F0E719F8041B8DF835
:101C3000001000208DF80100EA46012003E059F869
:101C400004AB4FF0FF3061074FF0000102D40DE00C
:101C500008F101018846B9420FDA8045F8DB1AF82D
:101C600008100029F4D108E008F1010188468142FA
:101C7000FADB1AF808100029F6D105985B46A0EBAC
:101C8000080721463846179A00F094FA284400EBDA
:101C9000080507E04DE029E10DE01AF8010B5A466E
:101CA00017999047B8F10108F7D25B4621463846AC
:101CB000179A13E142E00A220092C4F302524FF055
:101CC000000A022A08D059F804CB032A4FEAEC7123
:101CD0000AD00DE029E02AE009F1070121F007020E
:101CE000F2E802C1914609E00FFA8CFC4FEAEC7170
:101CF000042A03D14FFA8CFC4FEAEC71002907DA71
:101D00000A460021DCF1000C61EB02012D2202E009
:101D1000220504D52B228DF80420012203E0E207DE
:101D200001D02022F7E7904659E00A2102E0102274
:101D30000DE010214FF0000A00910BE010224FF04F
:101D4000000A44F004040827009203E008224FF040
:101D5000000A0092C4F30252022A05D059F804CBBB
:101D60000021032A08D009E009F1070121F0070248
:101D7000F2E802C1914605E01FFA8CFC042A01D169
:101D80000CF0FF0C4FF00008220728D5702806D071
:101D9000009B83F0100353EA0A0305D00EE04022B3
:101DA0008DF80420012208E05CEA010206D030220E
:101DB0008DF804208DF8050002229046009B83F0E8
:101DC000080353EA0A030AD15CEA010201D162075F
:101DD00005D530228DF804204FF001087F1E5828C9
:101DE00004D034A003900EA802900DE036A0F9E7CD
:101DF00053466046009AFEF72FFA84460398825CA9
:101E00000298401E029002705CEA0100F0D1029834
:101E100006A9081A00F1200A600702D524F48034CC
:101E200000E00127574502DDA7EB0A0000E0002093
:101E300000EB0A01009005984144401A0590E00328
:101E400006D45B462146179A059800F0B3F905447D
:101E5000002706E001A85A46C05D179990476D1CFF
:101E60007F1C4745F6DBE0030CD55B462146179AFD
:101E7000059800F09FF9054404E030205A46179970
:101E800090476D1C0099481E00900029F5DC08E081
:101E9000029802995A460078491C02911799904776
:101EA0006D1CBAF10001AAF1010AF1DC65E1000044
:101EB0000928010030313233343536373839616220
:101EC00063646566000000003031323334353637E4
:101ED00038394142434445460000000000F058F9BB
:101EE0000544761C307800287FF4ECAD19B0284604
:101EF000BDE8F08F620700D4062709F1070222F03F
:101F0000070CFCE80223E14603F000485FEA080CF6
:101F100002D00FF2702C0DE05FEA045C02D50FF2E4
:101F2000682C07E05FEAC47C02D00FF2602C01E06D
:101F3000AFF2700C4FF0FF3823F00043CDF850C0E3
:101F400065280CD006DC452809D046281DD0472836
:101F50003DD13DE0662818D067287ED138E00021C9
:101F6000112F01DB112000E0781CCDE9000106A94A
:101F70000EA8FFF7EDFCDDE90F010E9A0391002199
:101F8000009207F1010A04914DE04FF000400097E4
:101F9000CDE9011006A90EA8FFF7DAFCDDE90F0272
:101FA00003920E9B11990022DDF80CA0009304927D
:101FB00011B9791C00EB010AB7EB0A0004D4C0F197
:101FC000FF3007F1010A0490AAEB0700019044E0FA
:101FD000012F00DA01270021112F01DD112000E07F
:101FE0003846CDE9000106A90EA8FFF7B1FCDDE9EE
:101FF0000F010E9A0391002104910092BA46210725
:102000000CD40399514500DA8A46BAF1010F05DD77
:10201000009AAAF10101515C302908D0B84202DAD5
:1020200010F1040F06DA0121CDE9011015E0AAF143
:102030000101E9E7002805DC049901440491AAEBB9
:10204000000102E0411C514500DD8A460499401A16
:10205000401C01904FF000400290200704D40198EA
:10206000504501DBCDF8048000208DF84F00029828
:102070000DF14F07B0F1004F25D02B200E900298A4
:102080004FF0020800280CDA404202902D200E90FA
:1020900007E00A210298FEF7C9F83031029007F8EC
:1020A000011DB8F10001A8F10108F2DC0298002836
:1020B000EFD1791E0E980870307800F0200040F0C3
:1020C000450007F8020D12A8C01B00F1070814987C
:1020D000007800B1012000EB0A01019801EBE071EA
:1020E00005984144401A401E0590E00306D45B4623
:1020F0002146179A059800F05DF805441498007879
:1021000018B15A46179990476D1CE00324D55B46D9
:102110002146179A059800F04DF805441CE00498F4
:10212000002807DBDDE90301884203DD0098405CFD
:10213000179901E0179930205A469047049805F105
:102140000105401C04900198401E019004D12E20EE
:102150005A46179990476D1CBAF10001AAF1010A7D
:10216000DDDC05E017F8010B5A46179990476D1C06
:10217000B8F10001A8F10108F4DC5B462146179A8A
:102180000598ABE62D0000002B00000020000000A9
:102190002DE9F041044600251E461746880404D464
:1021A00005E039462020B0476D1C641EF9D528464D
:1021B000BDE8F0812DE9F041044600251E46904619
:1021C000C80301D5302700E02027880404D505E0A6
:1021D00041463846B0476D1C641EF9D52846BDE817
:1021E000F0810A68531C0B601070704710B54FF4F3
:1021F000E131002001F0D0FD0849002001F05EFE31
:10220000074800219FED070A41710171C17081707B
:102210002321017080ED020A10BD00002922000870
:102220006011002000000000254930B48A780124A4
:1022300082B1244D91F90130E8545B1C58B24870CA
:102240000C2805D100204870C878824300D00C715A
:1022500030BC70470B78232298422FD1432820D0DE
:102260000FDC232817D006DC0A2820D00D28EFD158
:102270000A200870ECE7302817D03128E8D10D206B
:10228000F7E748280FD04E2809D0532805D0592801
:10229000DED14E20EDE75320EBE75920E9E743205C
:1022A000E7E74820E5E73020E3E73120E1E70A707F
:1022B0008C7030BC04A1002001F014BE0A70C7E786
:1022C00060110020C8970020236F31236F62236FB5
:1022D0006530000001A1002001F004BE23733031FD
:1022E000000000002DE9F843324DA87870B1DFF806
:1022F000C88000244FF0040908F10C06A0062E4BFC
:10230000000E6A460C3B09EB840111E0E8790528D0
:1023100003D9FFF7DFFF002000E0401CE871BDE8B3
:10232000F8831F5C00F0030C401C02F80C70C0B274
:102330008142F6D808EB84079DED000AD7ED000A2C
:1023400000F0E8FA06EB8400641CD0ED000AE4B269
:10235000032C30EE200A80ED000A9DED000A87ED87
:10236000000ACBD3687940B196ED000AD5ED020A98
:1023700030EE600A86ED000AD1E70F48A9791830DF
:1023800000EB810298ED000A491CC9B282ED000AF7
:10239000A9714B29C3D390ED4A0AD0ED000A012060
:1023A00030EE600ADFED050A80EE201A85ED021A94
:1023B0006871B4E760110020D497002000009642B5
:1023C0001CB500208DF805008DF8040001218DF862
:1023D0000710F82100918DF8060069460148FEF7C4
:1023E000EBFC1CBD0004024010B501460348FEF79B
:1023F00044FD08B1002010BD012010BD00040240C2
:1024000070B539498AB000240C804EF6E6604880E9
:10241000022042F6631200BF01EB400342F2107546
:1024200033F8023C6B43B3FBF2F321F81030401C4D
:10243000C0B20D28F0D301210420FEF779FD02205F
:102440008DF818008DF819004021284D05918DF860
:102450001A408DF81B4005A92846FEF7ADFC032263
:1024600006212846FEF7F9FC01210220FEF790FD27
:10247000A815ADF824001E4DADF81E405320ADF850
:102480001C0068891B4E089007A93046FFF7E4F846
:102490006020ADF800000120ADF80200ADF80C405E
:1024A000ADF810400420ADF80E40ADF81240ADF884
:1024B0000400A878029069463046FFF711F8012120
:1024C0003046FEF70FFF08213046FFF739F80121AB
:1024D0003046FEF721FF01213046FEF713FF00F0E2
:1024E0000BF80AB070BD00007C110020000802400B
:1024F0005C0000200004014000210148FFF7A4B85F
:1025000000040140064801680268C1F38061C2F31B
:10251000C06200681144C0F30070084470470000B6
:1025200008640040F0B5012187B04806FEF70CFDB5
:1025300001210846FEF7FCFC02258DF805508DF8B8
:1025400004500126A8022A4F8DF80760002400904D
:102550008DF8064069463846FEF72EFC8DF805508A
:102560008DF80450E8028DF8074000908DF8064081
:1025700069463846FEF720FC09220B213846FEF753
:102580006CFC09220C213846FEF767FC194F3846CF
:10259000FEF7B0F902A8FEF741FB8DF80E408DF86A
:1025A0000F608DF80A408DF80B408DF80C50062016
:1025B00004948DF80D50ADF8080002A93846FEF7D6
:1025C00071FA0128F9D1012211463846FEF762FA64
:1025D00013208DF814008DF8154004208DF8160096
:1025E0008DF8176005A8FEF765FC07B0F0BD000088
:1025F00000000240006400407FB51546134C1F22C6
:1026000042EA411221788DF80A1000214FF6FF7638
:1026100006EA40100123ADF800008DF80B108DF88C
:102620000C30ADF80420ADF80210ADF80610ADF88E
:1026300008108DF80D306846FEF772F904492078CD
:1026400041F82050401C20707FBD00008000002019
:10265000C08E002008B5012202210948FEF71AFAAF
:1026600014208DF8000000208DF8010004208DF862
:10267000020001208DF803006846FEF71BFC08BD30
:102680000064004030B58FB000F046F8E0BBFFF7C3
:1026900039FFC8B31E4C05AD2188A06800EB0113BB
:1026A0000FCB85E80F000599009100219DF81800D7
:1026B0008DF809108DF8081001918DF80A0005A910
:1026C0006A4603E00B1815185B79EB72401EC0B226
:1026D000F8D21422694609A8FDF77AFD09A90D4828
:1026E000FEF7ACFA042807D02088A188401CB0FB74
:1026F000F1F201FB12002080FFF704FF08B1FFF7A1
:10270000C1FF01200FB030BDFFE70020FAE7000055
:10271000880000200064004004480188408881420D
:1027200001D1012070470020704700008800002080
:1027300070B51948002501260168184C184805296C
:1027400025D2DFE801F0030609121B00057015A170
:1027500005E0067016A102E00221017017A11048E1
:102760001030FDF747FD257070BD032101700C4846
:1027700014A11030FDF73EFD267070BD04210170DC
:1027800012A1BDE8704006481030FDF733BD0521A9
:10279000017011A1F5E70000580000202900002079
:1027A0004411002053746172742F456E6400000060
:1027B0004461726B677265656E0000004F72616EF6
:1027C0006765000052697665720000004C696768B1
:1027D00074677265656E0000556E6B6E6F776E0084
:1027E0002DE9F041012186B00846FEF7ADFB01213D
:1027F0000846FEF79DFB454F012200213846FEF7B3
:102800002CFB012211463846FEF727FB012104204C
:10281000FEF79AFB01210820FEF78AFBDFF8F08023
:1028200002220C214046FEF718FB02220D214046F1
:10283000FEF713FB6846FEF72BFB02268DF80460BB
:10284000002403258DF806408DF8074000958DF88B
:10285000055069463846FEF7AFFA6846FEF718FBA2
:102860008DF8046028038DF8064000908DF807402D
:102870008DF8055069464046FEF79EFA01218E0705
:102880003046FEF73CFD3046FEF752FDADF80840FD
:102890004FF6FF750395ADF81040ADF80A4002A958
:1028A0003046FEF7D9FE4FEAF74701213846FEF7DA
:1028B00026FD3846FEF73CFDADF808400395ADF81F
:1028C0001040ADF80A4002A93846FEF7C5FE0023C5
:1028D0001A4603213046FEF7D3FD00213046FEF7AD
:1028E000B9FE01213046FEF70DFD00231A460321F3
:1028F0003846FEF7C5FD00213846FEF7ABFE012144
:102900003846FEF7FFFC06B0BDE8F081000002404B
:10291000000C024030EE600ADFED0D0A0D4805E0C4
:1029200030EEC00A10EE101A81420FDD10EE101AC0
:102930008142F5DC084A00BF10EE101A914205D919
:1029400030EE200A10EE101A8142F5DB70470000CD
:102950000000B44300003443000034C370B500F0FD
:102960004FF80A21B0FBF1F201FB120000281AD146
:102970000D490E4C0E4B0A780E491AB1C0F10705ED
:102980005D5D00E0255C0D54401C0828F5DB00204F
:102990001AB1C0F10705655D00E01D5C0E18401C12
:1029A00035720828F4DB70BD2400002048000020A8
:1029B000500000206C110020064910B500EB80008B
:1029C00051F82000FEF775FD0249091F08600868EC
:1029D00010BD00009800002010B5FFF7EDFF4FF488
:1029E0007A7190FBF1F010BD04488188408801EBBA
:1029F0004102C2EBC11100EBC1007047F80000209A
:102A00000148408870470000F800002070B5FFF7CB
:102A1000EBFF234D2968401AB0F57A7F3ED3214859
:102A2000214C224E0068092809DD21490A7832B973
:102A3000204A5368032B02D91278022A25D0401E5F
:102A4000052818D81C493068DFED1C0A09689FED7D
:102A50001C1A084400EBD070401000EE100AB8EECB
:102A6000C00A20EE200ADFED170A40EE410ABDEE53
:102A7000E00A84ED000A4FF0FF3030602088BDE8A6
:102A8000704081B2012000F0EBBA40F6980020605F
:102A900001200870FFF7A8FF2860ECE770BD000078
:102AA000400000202C0000204400002038000020BE
:102AB00030000020441100203C0000200000803D38
:102AC000000096C40000614410B540F21454214641
:102AD000012000F0C5FA0020FFF76EFFB0F5FA5FA5
:102AE00004D90348034904600020087010BD0000A9
:102AF000440000202800002010B50020FFF75CFFF4
:102B000044F62061884208D9012000F057FA20B924
:102B10000F490220087000F083FA0E489FED0E1A4C
:102B20000E49D0ED000A80EE810A9FED0D1ADFED0F
:102B30000D0A81ED020A40EE410ABDEEE00A10EEF8
:102B4000100AC86081B2BDE81040012000F088BAC8
:102B500028000020E09700200000344344110020AA
:102B6000000016440080BB441CB501208DF8050010
:102B700000208DF8040002218DF807104FF47051E9
:102B800000918DF8060069460148FEF715F91CBD55
:102B9000001002401CB501211020FEF7C9F90220E7
:102BA0008DF8050001208DF8040000208DF8070045
:102BB0007C2100918DF8060069460348FEF7FCF879
:102BC000FEF770F91CBD00000010024000F0D2FAC0
:102BD00000252C4CFFF714FFA842FBD0FFF710FF95
:102BE000054600F039FBFFF7B9FE00F0BFF9FFF72B
:102BF00007FF4FF44871B0FBF1F201FB120008B976
:102C0000FFF796FDFFF7FCFE1921B0FBF1F201FB87
:102C1000120008B9FFF766FBE06828B301282AD143
:102C2000207820B1012817D002281AD117E0FFF729
:102C3000EDFE6078A8B1012000F0C0F988B9A06865
:102C400001280ED100F0ECF910489FED0F0A80ED3D
:102C5000000A0120207004E0FFF74EFF01E0FFF7BB
:102C600033FF00F0CBF806E040F2DC51012000F029
:102C7000F7F900F00DF80020606000F0D7F900F0DF
:102C8000DBFDA7E728000020000007C3E097002035
:102C90007CB50120FFF7A0FE04460020FFF79CFE54
:102CA000034600212FA20846009400F08BFC304B15
:102CB00030A20121002000F085FC314D0024E0B25B
:102CC0002B5D30A2022100F07DFC641C102CF6DB91
:102CD0002D482EA203210378002000F073FC2E481B
:102CE0002EA204210378002000F06CFC2F4800681D
:102CF000FDF789FACDE900012DA20521002000F0A1
:102D000061FC2D482EA20621007800902B48036814
:102D1000002000F057FC2E482FA2072100680090E9
:102D20002C480368002000F04DFC012000F046F91B
:102D30000446002000F042F903462AA208210020A0
:102D4000009400F03FFC032000F038F90446022014
:102D500000F034F9034626A209210020009400F077
:102D600031FC7CBD65313A25642065323A2564002A
:102D7000541100207A6F6E653A2025730000000020
:102D80006C1100202564000029000020726976651E
:102D9000723A2564000000006511002063616C69CF
:102DA0006272617465643A2564000000E097002057
:102DB0007961773A25660000300000202C00002061
:102DC0006C656E6774683A25642066773A256400FE
:102DD0003C00002038000020623A256420653A2536
:102DE00064000000696C3A25642069723A25640029
:102DF000756C3A25642075723A2564007CB501F043
:102E00009BF80021344B35A2084600F0DBFB354D22
:102E10000024E0B22B5D34A2012100F0D3FB641C3E
:102E2000102CF6DB31480068FDF7EDF9CDE9000123
:102E30002FA20221002000F0C5FB012000F0BEF807
:102E40000446002000F0BAF803462BA2032100201C
:102E5000009400F0B7FB032000F0B0F80446022015
:102E600000F0ACF8034627A204210020009400F0F3
:102E7000A9FB274828A2052100680090254803687F
:102E8000002000F09FFB284828A20621037800209C
:102E900000F098FB0120FFF79FFD04460020FFF79C
:102EA0009BFD034625A207210020009400F08AFB29
:102EB000254826A208210378002000F083FB06485D
:102EC00026A210380921406800902348037800208A
:102ED00000F078FB7CBD0000541100207A6F6E6515
:102EE0003A2573006C11002025640000E097002053
:102EF000793A256600000000696C3A256420697201
:102F00003A256400756C3A25642075723A25640090
:102F1000580000202C0000206C653A256420686170
:102F200076673A25640000003000002066756C6CFE
:102F300077686974653A25640000000065313A25B8
:102F4000642065323A25640028000020737461749F
:102F5000653A202564000000290000207269763A55
:102F6000256420636F756E743A25640010B50F4AAE
:102F70000F4B104900200C5C012C06D11468641C16
:102F800011D00C186478186014B1401C1028F2DBC2
:102F9000094A00200B5C13B113685B1C1360401CD2
:102FA0001028F7DB10BD1060EFE7000038000020AC
:102FB0003C0000206C1100202C000020024931F858
:102FC00010100248FDF759BFC00000200010024059
:102FD0000FB4054A002069460B18DB7A1354401CD5
:102FE0000828F9DB04B07047480000200FB4054AF8
:102FF000002069460B18DB7A1354401C0828F9DBC3
:1030000004B07047500000200349100E08700349B7
:10301000D8B2086070470000290000205800002046
:1030200000214FF08040FEF715BB000070B5202056
:10303000FFF7DAF9012408B1074804700820FFF708
:10304000D3F9064D08B1002028704020FFF7CCF9D5
:10305000002800D02C7070BD30000020340000200B
:10306000022807D2044A00EB400002EBC00042698C
:103070000248104770470000C800002000040040CC
:1030800070B58CB001210220FDF75EFF0121022006
:10309000FDF74EFF02208DF804002F4E8DF805003D
:1030A000002400BF04EB440006EBC005287B50B1B0
:1030B0002889009069466868FDF77EFE69890222CA
:1030C0006868FDF7CAFE641CE4B2022CEAD34FF430
:1030D00080700024ADF82C00ADF826405320ADF8E8
:1030E000240044F620601D4D0A908DF82E4009A959
:1030F0002846FEF7B1FA6020ADF810000120ADF8C7
:1031000012004FF47A70ADF81C40ADF820400690E4
:10311000ADF81E40ADF82240ADF8144004A9284691
:10312000FEF714FA01212846FEF74EFA04A92846B4
:10313000FEF750FA01212846FEF77CFA01212846C5
:10314000FEF7D0F801212846FEF7DCF801212846D9
:10315000FEF7E2F80CB070BDC8000020000400408B
:1031600010B50024FDF71AF8641CE4B2642CF9D3FE
:1031700010BD000010B5FEF711F8FFF70BFD00F0D1
:10318000D7FD4AF655534FF6FF720021022000F09A
:10319000C7F9FFF735F9FFF773FFFFF731F9FFF7CD
:1031A0000FF9FFF71DFBFFF7DFFCFFF71FF8FFF735
:1031B000B9F9FFF74FFA40F2FF74084A2146C520DB
:1031C000FFF71AFA064A2146C620FFF715FA2146EC
:1031D000BDE81040034AC720FFF70EBAD12F000800
:1031E000ED2F000809300008F0B5174A00EB800009
:1031F00002EB4006C83A02EB4002164F555C134AF8
:1032000016F801C002EB8004A2F5C87202EB80023E
:10321000AC4532F811300E4A02EB800207EB800019
:1032200030F8117007D134F81100984203D132F808
:103230001100B84201D0012000E00020755424F8AC
:10324000113022F81170F0BDF88F0020509200204C
:1032500070950020E093002010B50024204600F077
:1032600005F8641CE4B20A2CF8D310BDF0B50F4A7F
:103270000F4E0021D4889388202506F5C87706F5DF
:10328000966E00BF01EB810206EB420C491C0CF864
:10329000005007EB820C0EEB82022CF81040C9B2F2
:1032A00022F810301429EDD3F0BD000024010020D5
:1032B000308F002010B5012000F0DEFC112000F05E
:1032C000DBFCB12000F0D8FC012000F003FD2C2035
:1032D00000F000FD2D2000F0FDFCB22000F0CCFC41
:1032E000012000F0F7FC2C2000F0F4FC2D2000F071
:1032F000F1FCB32000F0C0FC012000F0EBFC2C201E
:1033000000F0E8FC2D2000F0E5FC012000F0E2FCDC
:103310002C2000F0DFFC2D2000F0DCFCB42000F0BD
:10332000ABFC072000F0D6FCC02000F0A5FCA220DA
:1033300000F0D0FC022000F0CDFC842000F0CAFC9C
:10334000C12000F099FCC52000F0C4FCC22000F0B0
:1033500093FC0A2000F0BEFC002000F0BBFCC32060
:1033600000F08AFC8A2000F0B5FC2A2000F0B2FCB4
:10337000C42000F081FC8A2000F0ACFCEE2000F0BC
:10338000A9FCC52000F078FC0E2000F0A3FC36203C
:1033900000F072FCC82000F09DFCE02000F06CFC06
:1033A000022000F097FC1C2000F094FC072000F0A5
:1033B00091FC122000F08EFC372000F08BFC3220B4
:1033C00000F088FC292000F085FC2D2000F082FC14
:1033D000292000F07FFC252000F07CFC2B2000F051
:1033E00079FC392000F076FC002000F073FC01200D
:1033F00000F070FC032000F06DFC102000F06AFC6F
:10340000E12000F039FC032000F064FC1D2000F0F6
:1034100061FC072000F05EFC062000F05BFC2E2023
:1034200000F058FC2C2000F055FC292000F052FC44
:103430002D2000F04FFC2E2000F04CFC2E2000F040
:1034400049FC372000F046FC3F2000F043FC002000
:1034500000F040FC002000F03DFC022000F03AFCAF
:10346000102000F037FC2A2000F006FC002000F0BD
:1034700031FC002000F02EFC002000F02BFC7F200F
:1034800000F028FC2B2000F0F7FB002000F022FCCD
:10349000002000F01FFC002000F01CFC9F2000F02A
:1034A00019FC3A2000F0E8FB052000F013FCBDE811
:1034B0001040292000F0E0BB2DE9F04105462A200C
:1034C00000F0DAFB002000F005FC002000F002FC18
:1034D000002000F0FFFB7F2000F0FCFB2B2000F021
:1034E000CBFB002000F0F6FB002000F0F3FB0020F7
:1034F00000F0F0FB9F2000F0EDFB2C2000F0BCFB67
:1035000000244FF4A0472E0A304600F0E3FBE8B257
:1035100000F0E0FB641CA4B2BC42F5D3BDE8F0812E
:103520002DE9F05F1F4615460C46804600F0F4F882
:1035300000F0B2F8FFF7BEFE2C2000F09DFB1E4EFF
:103540002046B480F5803781FFF7B6FFDFF86CE0E6
:1035500086F8008000204FF0200B00EB8001184A15
:10356000002302EB810702F5487202EB8109A2F504
:103570007A7202EB410802F5167202EB810602F53F
:1035800048720EEB410A02EB810200BF0AF803B059
:1035900027F8135029F8134008F803B026F8135001
:1035A00022F813405B1CDBB20A2BEFD3401CC0B2E5
:1035B0001428D2D3BDE8F09F24010020308F0020D2
:1035C000C09000200FB4F0B5C1B00C4605460026EF
:1035D00049AA68464899FEF767F92B486A46C388A6
:1035E0000189878848E05B280AD05D280FD00D2824
:1035F00013D00A2811D0142D0FD80A2C0DD80EE0A4
:1036000012F801CCBCF15C0FF5D0012605E012F8F0
:1036100001CCBCF15C0FEED00026521C2CE05C28E3
:1036200005D150785B2801D05D2800D1521CDFF80D
:103630005CE005EB85000EEB400E12F801CB0EF8B6
:1036400004C00EB18C4600E09C46DFF844E0142D27
:103650000EEB800E2EF814C0DFF838C00CEB8000A3
:1036600020F8147003D30025641CE4B201E06D1C43
:10367000EDB20A2C00D3002410780028B3D141B059
:10368000F0BC5DF814FB000024010020308F002006
:10369000C0900020E093002070B5094D4FF4807475
:1036A00021462846FDF7F0FB0120FEF71FF92146D1
:1036B0002846FDF7EBFBBDE870400120FEF716B988
:1036C000000C02402DE9F04104461D4616460F4607
:1036D0002A2000F0D1FA002000F0FCFA204600F089
:1036E000F9FA002000F0F6FA304600F0F3FA2B2049
:1036F00000F0C2FA002000F0EDFA384600F0EAFAD5
:10370000002000F0E7FA284600F0E4FABDE8F041B6
:103710002C2000F0B1BA00002DE9F04188B0012161
:103720000220FDF705FC01210820FDF701FC012125
:103730008C032046FDF708FC01212046FDF710FC14
:103740003A4F05220D213846FDF787FB05220E2151
:103750003846FDF782FB05220F213846FDF77DFB39
:10376000A01100248DF8064001258DF80450DFF8E3
:10377000C08000908DF807408DF80550694640469E
:10378000FDF71AFB8DF8064028038DF804500090D1
:103790008DF807408DF8055069463846FDF70CFB5B
:1037A0008DF8064002264FF460408DF804600090CA
:1037B0008DF807408DF8056069463846FDF7FCFA3C
:1037C0008DF806408DF804506F028DF80740009781
:1037D0008DF8056069464046FDF7EEFAADF8084001
:1037E0004FF48270ADF80A000820ADF81400ADF86F
:1037F0000C40ADF816400F4CADF81050ADF80E600F
:10380000ADF8127002A92046FDF741FC01212046C7
:10381000FDF728FC00212046FDF71AFC0021204678
:10382000FDF751FC08B0BDE8F08100000004024043
:10383000000C0240003800402DE9F05FFE4840785F
:10384000002873D0FD4C00204FF0400A4FF0200EAE
:103850000427A4F5C86C002101EB81030CEB830263
:10386000491C32F8105009B20AEA55220EEA5516E0
:10387000324305F010052A43F14E04EB430506EBF5
:103880008303022633F81030E34606EA5326C3F3D7
:10389000001807EA533346EA080613431E432E5422
:1038A0001029D9DB401C00B20A28D4DBE24800789A
:1038B00078B101287ED002287DD0032878D1132545
:1038C0000026F1B2E8B2FFF78FFC002874D0012780
:1038D00061E100240026E1B2F0B2FFF785FCE8B315
:1038E000012704E0B9F1100F0DDA7F1C3FB206EB9F
:1038F0000709B9F1100F06DAE1B209F0FF00FFF78E
:1039000073FC0028EED10F2000EB0410C3B2F119B4
:10391000FF2000EBC100C2B22007010EF006000E2E
:10392000FFF7D0FE4FF0000800252CE040E0E8173C
:1039300005EB507106EBE10000B2C24A00EB8000DB
:1039400002EB4003BC4A1B5D0A3208EB031321F073
:103950000701D25C6B1A8021D94000E020E00A42C6
:1039600002D00BEB800102E0B54901EB800131F898
:1039700014A04FEA1A2000F0ADF90AF0FF0000F0A1
:10398000A9F96D1C2DB2B5EBC70FD0DB08F1010012
:103990000FFA80F8B8F1100FC6DBA9F1010006B2EA
:1039A000761C36B2102E96DB641C24B20A2C91DBF6
:1039B000BDE8F09F01E070E053E100260724E1B28A
:1039C000F0B2FFF711FCE8B3012703E0002D09D4A2
:1039D0007F1C3FB2E51B05D4E9B2F0B2FFF704FC4F
:1039E0000028F3D1072000EBC600C3B2C4F10800E1
:1039F0003844EF2101EB0010C2B2F006010EC4F111
:103A000007000007000EFFF75DFE4FF000080025DD
:103A10002DE0E81705EB1071A4EB211021F00F0148
:103A20006A1A884B06EB860100B203EB41031B5C6C
:103A3000C2EB0313804A0A321A44D37B802222FA53
:103A400008F200E020E0134202D00BEB810102E01B
:103A50007B4A02EB810131F810904FEA192000F007
:103A600039F909F0FF0000F035F96D1C2DB2B5EB06
:103A7000071FCEDB08F101000FFA80F8B8F1080F3C
:103A8000C5DBE01B401C04B2641E24B2002C96DA95
:103A9000761C36B2142E91DB8AE709240F25E1B299
:103AA000E8B2FFF7A1FBE0B3012703E0002E09D441
:103AB0007F1C3FB2EE1B05D4E1B2F0B2FFF794FBDE
:103AC0000028F3D1C4F10A01FF2000EB0110C3B2BA
:103AD000C5F110003844F72101EBC000C2B2C4F1B7
:103AE00009000007010EC5F10F00C006000EFFF728
:103AF000E9FD4FF00008002631E0F01706EB5071A9
:103B0000A5EBE10000B24F4B00EB800003EB40035C
:103B1000C8F110021B5D02EB0313474A0A321A4434
:103B200000E029E021F00701711AC1F1070312F842
:103B3000012C8021D9400A4202D00BEB800102E027
:103B40003F4901EB800131F814904FEA192000F051
:103B5000C1F809F0FF0000F0BDF8761C36B2B6EBF4
:103B6000C70FCADB08F101000FFA80F8B8F1100F97
:103B7000C1DBE81B401C05B26D1E2DB2002D8EDA94
:103B8000641E24B2002C89DA12E700BFB9F1080FD5
:103B90000DDA7F1C3FB206EB0709B9F1080F06DA10
:103BA00009F0FF01E8B2FFF71FFB0028EED1C5F1D5
:103BB00014014FF0FF3000EBC101CBB2F11900EB63
:103BC0000110C2B2C5F11300C006010E3007000E8D
:103BD000FFF778FD4FF0000800242CE0E01704EB1D
:103BE000107106EB211021F00F01631A154A05EB45
:103BF000850100B202EB4102C8F1070C125C03EB35
:103C000002130D4A0A329B5C802222FA0CF2134204
:103C100002D00BEB810102E0094A02EB810131F88D
:103C200010A04FEA1A2000F055F80AF0FF0000F04B
:103C300051F8641C24B207E0240100200097002002
:103C4000E0930020308F0020B4EB071FC6DB08F1A3
:103C500001000FFA80F8B8F1080FBDDBA9F10100EF
:103C600006B2761C36B2082EFFF62BAE6D1E2DB2B4
:103C7000002DBFF625AE9BE62DE9F041124E07461A
:103C80004FF4007529463046FDF7FEF8E9000F486D
:103C9000FDF7FAF80E4C02212046FDF7EDF9002859
:103CA000F9D039462046FDF7F0F901212046FDF70D
:103CB000E3F90028F9D02046FDF7E5F9294630461A
:103CC000BDE8F041FDF7E2B8000C024000040240FC
:103CD000003800402DE9F041124E07464FF40075C0
:103CE00029463046FDF7D0F8E9000F48FDF7CEF839
:103CF0000E4C02212046FDF7BFF90028F9D03946C5
:103D00002046FDF7C2F901212046FDF7B5F900284C
:103D1000F9D02046FDF7B7F929463046BDE8F04115
:103D2000FDF7B4B8000C0240000402400038004027
:103D30001FB501210820FDF707F94FF47A700290B2
:103D40005320134CADF8040001A92046FDF784FC74
:103D500001212046FDF7D3FA012211462046FDF746
:103D6000B6FB01212046FDF7CDFA00248DF8014075
:103D70008DF8024001208DF8030032208DF80000FC
:103D80006846FDF797F80348848044801FBD000013
:103D9000000C0040F800002070B50E460446314982
:103DA00030480C3186B050F8240051F824100843F4
:103DB0000121FDF7BDF82B480C38E4B350F824007E
:103DC0000121FDF7C1F8284D07220A212846FDF7F9
:103DD00044F807220B212846FDF73FF82149214AE4
:103DE00002208DF8140020391A3A31F8141032F8F4
:103DF00014208DF8150000258DF8165001208DF83F
:103E0000170011431948049104A950F82400FCF745
:103E1000D3FFADF80450ADF80650ADF80850ADF83A
:103E20000C50124D0C200C3D0096ADF80A0055F8D0
:103E30002400694600E008E0FDF7D6FC55F82400B0
:103E40000121FDF789FC06B070BD00680121FDF776
:103E50009FF8074D072209212846FCF7FEFF07229D
:103E60000A21B8E7883F000800040240180100203A
:103E70000000024038B5044600214FF00060FDF715
:103E80004BF80C4810F814008DF8000001208DF854
:103E900001008DF802008DF803006846FDF70AF86E
:103EA0000548012240F2255150F82400FDF784FC1A
:103EB00038BD0000743F00080C01002010B5084A0E
:103EC000002318B1012804D0AFF3008051601370B3
:103ED00001E091605370BDE81040FFF7CBBF0000D8
:103EE000000100200FB430B5C1B0054646AA6846AF
:103EF0004599FDF7D9FC6C4603E02846641C00F0A8
:103F000007F821780029F8D141B030BC5DF814FBE6
:103F100070B5084D0E460446402155F82400FDF7C3
:103F200025FC0028F8D055F824003146BDE8704043
:103F3000FDF7B4BC0C01002010B50A4C60680A28DB
:103F400001D9002060600020FEF736FD4CF62031DC
:103F5000884206D96068401C6060BDE81040FFF7E9
:103F60005FB810BD441100200002000400000004EE
:103F700000080000250027000000000010000000DD
:103F8000000004000000000001000000020000002A
:103F9000000000000100000002000000000000001E
:103FA000C03F0008000000206C1100006C070008F2
:103FB000D84600086C110020AC8B0000DC1800080B
:103FC000412D01020304041506070809847A030A37
:103FD000791401131AFF01810318DC056A194A01DB
:103FE00011320C139611C22023D0078AB0142A4034
:103FF0003649043202130240120833400442081AC0
:1040000010281A0C141A040F190C39147B040234EA
:10401000134D1514084D162A086829181A02162976
:10402000181AD5181A511879E4A99B1410014012D6
:10403000486240295C1904F925E1580B7E81A5816D
:1040400081BD9981817E105809FFDBFFFFC3E7FF27
:10405000FF10211B6CFE017C7C381065AB387C0F97
:10406000780A183C3CE7E7E718183C101A7E3D89AF
:1040700010492362183AFF012BE7C3612901514E11
:104080003C664242662F39155FC399BDBD99C32076
:104090001F1E0E1A3278CC0162781B3C66011B3C55
:1040A0001861611D3F333F30016470F0E01D7F6394
:1040B0007F63015D67E7E6C07D5F18DB3CE73CDBC3
:1040C00030500C80C0E0F0F8FEF8F0E0C080780CD2
:1040D00002060E1E3EFE3E1E0E0602BF6D1818188A
:1040E0007EB111296F1901190859602EDBDBDB7BCA
:1040F0001B0151B00D7CC660386CC6C66C380CC64E
:104100007C1AFE01D950AA7E102901699F390189C4
:104110007119138C0CFE0C0E21C63060FE60305CF1
:10412000C0C0C05E51A6286CFE6C286E1038387C6A
:104130007C7F398C06177C7C3838102D183C3C3C31
:104140008D599019EBE2241A6C5E390449AE680B64
:104150007CC6C2C07C060686C67CC26009C2C60C8C
:10416000183060C686480B386C6C3876DCCCCCCC0A
:1041700076BCD4303060192C39015B180CDD3B184B
:104180000C018A18E2AE663CFF3C66A36B187E6C9D
:10419000991499311189ED9921812B0206A06BC0E8
:1041A00080A05809C6C6D6D6C6C66C38281B387833
:1041B0004C1901627E4B7CC62F5AC6541910580800
:1041C000063C060606C67CC01E1C3C6CCCFEB15AE2
:1041D0001E7B9DC0C0C0FC201B3860101AC6015950
:1041E000101AFE4049F46950191B9920290C1A7EB7
:1041F00040BB0C78BA99F1591069EF399F95301886
:104200000C0619BA59BD41391C292479601A0CDEF3
:10421000895119115EDEDEDEDCC0802F10386CC6DD
:10422000C6FE91611EFC6666667C046366FC1C3CEF
:1042300066C2E265C0C2663C2BF86C1D5D66666CAA
:10424000F8E0B80A6662687868606266FE109C6092
:1042500060F04066DEC6C6663A296A396F59701A40
:104260003C9D390159602B1E0C0165CCCCCC781AD1
:10427000E66B1B78787562E61AF05B190179709E1F
:10428000C6EEFEFED6508FC6E6F6FEDECE1019EF65
:10429000490159F039E0294259A059207ED6DE7CE7
:1042A0000C0E2029E4597019207D60380C0640BCA2
:1042B0007E7E5AB0695F6920590E8C6C3810106F81
:1042C000D6D6D6FEEE6C106F6C7C38387C6CA0199C
:1042D0006A9B663C50580AFEC6860C183060C2C6FF
:1042E000E05B3C3001592011580A80C0E070381C56
:1042F0000E0602205A0C0139205C10386C5801134C
:1043000032FF041130180C6008780C7CCCCCCC76D1
:104310002EE06060786C9559D0316E7CC6C0C0C00C
:10432000E01A1C6A1A6C2F693039209AFE202D364B
:10433000323078B092782A762F2DCC7C0CCC1319A1
:10434000602B6C766062E61318181A38FE5B18183A
:10435000E01306063B0E06012B66661319301C6639
:104360006C78935930492D8930311CECFED6018987
:10437000F82ADC5F9B6666A0290189D04920CD7CA4
:104380006060F0A05B0C1E207C7666601D39406C7E
:1043900060380C402D103030FCDF93361C393F93D1
:1043A000CC76396F9B6C3810199F8BFE6C108E6C1D
:1043B0003838386CB0393066C67E060CF86008FEB6
:1043C000CC183060C6FE1A0EEB2A70F0620E59FE51
:1043D000190161291C29244B1870CC0211DC1A1018
:1043E0006C6AC64F195E3A820189102BD6AA0289DF
:1043F00010AF868A8ADAF2B2206DDEFAF6BA10229F
:10440000CC7C780C7CF0BC603018101A38F8A910FD
:104410004138087CC6C0C0C0C67CA2198D19102ABC
:10442000FE1059FD292089102950B9201A665439E7
:10443000EF523CBC183C66102930A9104AC6EF1A4E
:10444000FEF2598F2910290F3910130C187809FE24
:1044500066626878686266E1116008EC36367ED87C
:10446000D86E1E3E6CCCCCFEBF53CCCE49B02901D9
:10447000A9B0891049B08910143078CC293E7CCC81
:10448000CC7620A9102940392F2EC67E060C780F35
:10449000493E69405AC61E6910500C18187CC6C0A7
:1044A000C0C0C67C18181F386C6460F0600163E6F9
:1044B000FC1E66663C187E0259201808F8CCCCF821
:1044C000C4CCDE7039F0111B0E1B1A291E4BD8709C
:1044D000501330607C780C7C90140C18301A381F04
:1044E0007C18183C20A9D02910B9C01376DC3BDC1D
:1044F0006601590E1FC6E6F6FEDECE3161153C6C34
:104500006C3EA27E15386C6C38494C511B30300320
:104510006B60C060511AFEE2B2C01BFE0601611E54
:1045200060E062666C858EDC860C183E104D66CEAF
:104530009A3F2319F829BD943C3C18B6366CD86CC8
:1045400036190E636CD8CB114402CB55AA02CBDDD1
:104550007702195B091201DAF80E79104A36015A0E
:10456000F6086986BAFE10E9307BF60630E90149A3
:104570003ED9207CF606FEEB490179106990F1C91D
:10458000B0BC18181F30F41818FFEAFF3069096929
:1045900020E940D92E793059A0BA37C0D437303FFE
:1045A000CB3F30208AF760596EDAF74079305920D6
:1045B00079305940793059DEC920EB36366079C000
:1045C0006912B9707B3636B069E0D199F069D2D9F9
:1045D00040795049901902C901F2F87950DAFF0187
:1045E00069A06901DAF001DA0F01C9377160087654
:1045F000DCD8D8D8DC76600B78CCCCCCD8CCC6C68E
:10460000C6CC4DFEC6C6C001913BFE6C0169209030
:1046100009603018183060C6FE1A7E4F94D8D870E2
:104620003A66014C7C6060434B76DCCC592D2B18EC
:104630003C1E643C187E1D386CC6C6748CC66C3833
:10464000102AC66F62EE3E1E30180C3E3289705C36
:10465000DBDBDB3E311B0306105BF37E6D111D1CA3
:104660003060607B7460301C1A7C50390179CF69EE
:1046700003712C18187E9D695219707D060C183034
:1046800010190C19F26A0C104C0E1B1BCFC9017DBE
:10469000D8D8D87051192C59EE512B76DC0369DF2C
:1046A00069E9C12980B910912B0F0C014DEC6C6C9C
:1046B0003CD02B6C3601A16E3C660C1832AB614AC3
:1046C0007E01011522406202228002180450085522
:0846D0004E4B4E4F574EB22332
:040000050800018965
:00000001FF
