:020000040800F2
:10000000689F0020AD0100081B100008D90D0008F2
:1000100019100008C307000861180008000000005C
:100020000000000000000000000000004312000873
:10003000ED0C0008000000009510000801130008F6
:10004000C7010008C7010008C7010008C701000870
:10005000C7010008C7010008C7010008C701000860
:10006000C7010008C7010008C7010008C701000850
:10007000C7010008C7010008C7010008C701000840
:10008000C7010008C7010008C7010008550800089B
:10009000C5070008C7010008C7010008C70100081C
:1000A000C7010008C7010008C7010008C701000810
:1000B000C7010008C7010008C7010008C701000800
:1000C000C7010008C7010008C7010008C7010008F0
:1000D000C701000891160008CD160008C7010008E6
:1000E000C7010008C7010008C7010008C7010008D0
:1000F000C7010008C7010008C7010008C7010008C0
:10010000C7010008C701000861130008C701000803
:10011000C7010008C7010008C7010008C70100089F
:10012000C7010008C7010008C7010008C70100088F
:10013000C7010008C7010008C7010008C70100087F
:10014000C7010008C7010008C7010008C70100086F
:10015000C7010008C7010008C7010008C70100085F
:10016000C7010008C7010008C7010008C70100084F
:10017000C7010008C7010008C7010008C70100083F
:10018000C7010008C7010008DFF80CD000F04EFAE4
:1001900000480047952E0008689F00204FF073002C
:1001A000A0F101000028FBD17047000006488047FD
:1001B00006480047FEE7FEE7FEE7FEE7FEE7FEE74C
:1001C000FEE7FEE7FEE7FEE70513000889010008E9
:1001D00040EA01039B0703D009E008C9121F08C0C9
:1001E000042AFAD203E011F8013B00F8013B521E49
:1001F000F9D27047034611F8012B00F8012B002AB1
:10020000F9D11846704700F0004230F000400AD0A3
:10021000C10D01F56071C0F3160042EA0151C20838
:1002200040071143704700200146704730B50B4628
:10023000014600202022012409E021FA02F59D4216
:1002400005D303FA02F5491B04FA02F52844151EEA
:10025000A2F10102F1DC30BD2DE9F05F054600207E
:1002600092469B4688460646814640241BE0284627
:1002700041464746224600F0FAF953465A46C01A0C
:10028000914110D311461846224600F0E1F92D1A8B
:1002900067EB01084F4622460120002100F0D8F903
:1002A00017EB00094E41201EA4F10104DFDC484693
:1002B00031462A464346BDE8F09F2DE9FE4F804671
:1002C00081EA0300C00F0C46009021F0004123F0AA
:1002D0000045B8EB0200A94105D2404621469046B0
:1002E0001C460B46024623F00040104347D0270D22
:1002F000C7F30A00C3F30A510290401A0190402844
:100300006BDAC3F3130040F4801B0098924620B1CF
:100310000023D2EB030A63EB0B0B01985946C0F1A3
:100320004002504600F094F906460D4650465946A4
:10033000019A00F0ACF910EB08006141002487EA53
:10034000115284EAE7731A4340D0009A62B3019ACB
:10035000012A4FEA075215DC001B61EB02014FF046
:10036000004202EA0752CDE90042001C41F580112B
:1003700032462B4600F0ACF903B0BDE8F08F4046A2
:100380002146F9E7001B61EB0201001C41F58013D7
:1003900000185B412018A2F5001747EB030140EA63
:1003A000D570B6196D4111E06D084FEA360645EA81
:1003B000C0754FEA0752001B61EB0201001C41F5BA
:1003C000801149084FEA30000019514132462B464E
:1003D00003B0BDE8F04F00F06CB900980122400076
:1003E0000023D0EB020263EBE073009821464FEA52
:1003F000E074B8EB000061EB0401E9E783F000432F
:100400005BE781F0004158E72DE9FE4F81EA0304E4
:1004100004F0004421F0004100944FF0000B23F061
:10042000004350EA01045ED052EA03045BD0C3F3F8
:100430000A54C1F30A552C44A4F2F3340194A0FBEE
:100440000254C1F3130141F48011C3F3130343F4C5
:10045000801301FB024400FB034E840A970A44EA1E
:10046000815447EA8357A4FB076802958D0A05FB70
:1004700007854FEA932C04FB0C542705029D4FEA95
:10048000065847EA1637B5EB08056EEB070C870EE2
:10049000920E47EA811742EA8312A7FB0201B6EBEC
:1004A0000B0164EB00042B0D43EA0C335E1844EBA4
:1004B0001C50DA465146E7FB0201C5F313044FEA2C
:1004C0000B3343EA14534FEA0432019C43EA060318
:1004D000A4F10C040294009CCDE900B400F0F8F8FB
:1004E00003B0BDE8F08F00200146F9E72DE9F04D9B
:1004F00081EA030404F0004B21F0004514464FF05C
:10050000000A23F0004150EA050220D054EA01021B
:100510001DD0C5F30A570246C5F31303C1F31300F8
:10052000C1F30A5640F4801543F48013A7EB060884
:10053000101BD64608F2FD3873EB050002D308F114
:10054000010801E092185B41B8F1000F03DA0020C6
:100550000146BDE8F08D00204FF480110646844628
:100560000EE0171B73EB050705D3121B63EB0503A6
:1005700006434CEA010C49084FEA300092185B41EF
:1005800050EA0107EDD152EA030012D082EA0400DA
:1005900083EA0501084305D0101BAB4106D20122B6
:1005A000002306E000224FF0004302E06FF001025A
:1005B00053101AEB06004CEB085110EB0A0041EB0C
:1005C0000B01BDE8F04D00F074B8C1F30A52C1F35D
:1005D000130140F2FF3341F480119A4202DA002005
:1005E0000146704740F233439A42A2F2334202DCA2
:1005F000524200F03CB800F02BB8000030B5041EA9
:1006000071F1000404DB4FF00044404264EB01014F
:10061000141E73F1000405DB1C464FF000435242E8
:1006200063EB0403994208BF904230BD064C074D6E
:1006300006E0E06840F0010394E8070098471034B2
:10064000AC42F6D3FFF7A4FDDC450008FC450008EA
:10065000202A04DB203A00FA02F100207047914082
:10066000C2F1200320FA03F3194390407047202A77
:1006700004DB203A21FA02F00021704721FA02F34C
:10068000D040C2F120029140084319467047202A09
:1006900006DBCB17203A41FA02F043EAE07306E0AA
:1006A00041FA02F3D040C2F12002914008431946BA
:1006B000704710B5141E73F1000408DA401C41F1B4
:1006C000000192185B411A4301D120F0010010BDD6
:1006D0002DE9F04D92469B4611B1B1FA81F202E04C
:1006E000B0FA80F220329046FFF7B2FF04460F4680
:1006F00040EA0A0041EA0B0153465A46084313D028
:10070000114653EA010019D0C8F140025046FFF7E4
:10071000AEFF05460E46504659464246FFF798FF43
:10072000084305D0012004E020463946BDE8F08D9D
:100730000020054346EAE0762C4337430A986305D8
:10074000E40AA0EB08000022FD0A44EA47540A30FC
:1007500002D500200146E9E7010510196941DDE9EC
:10076000084500196941BDE8F04DA2E770B58C1845
:1007700010F8015B15F0070301D110F8013B2A11B5
:1007800006D110F8012B03E010F8016B01F8016BA2
:100790005B1EF9D12B0705D40023521E0DD401F89E
:1007A000013BFAE710F8013BCB1A921C03E013F867
:1007B000015B01F8015B521EF9D5A142D8D300209C
:1007C00070BDFEE730B5204C87B00221204600F016
:1007D0000DF9002835D00221204600F04FF801AA7B
:1007E0000021204600F0D2F99DF80C00002828D105
:1007F000164C9DF81700217888420CD21C280AD28A
:10080000134951F8205035B105980DF1040C0090B2
:100810009CE80F00A8470E490198103901AA08600A
:100820009DF80E000871002005E013180D18DB7A02
:10083000401C6B71C0B20B798342F6D86068401CD3
:10084000606007B030BD0000006400408000002000
:10085000F88E002010B5084C0121204600F0C6F8A3
:10086000002807D00121204600F008F8BDE810401C
:1008700001F01EBF10BD00000064004030B5082329
:1008800010240422B1F5007F1DD010DC202929D0CE
:1008900007DC012921D0042922D0082900D1C46015
:1008A00030BD402920D0B1F5807FF9D10BE0002583
:1008B000B1F5004F06D008DCB1F5806F03D0B1F57B
:1008C000006FEDD18561426030BDB1F5803F0DD044
:1008D000B1F5003FF8D1446030BD0549816030BDBD
:1008E000C36030BD036130BD046130BD436030BDC5
:1008F00001010100094910B588424FF0010101D101
:100900004C0601E04FF08064204600F0E9FB2046F1
:10091000BDE81040002100F0E3BB0000006400408F
:10092000F0B5827A012191402E4A136843F0010309
:1009300013602C4B1C331C688C431C60294D067BB8
:10094000294C0C35A6B92E688E432E604688C78880
:1009500046EA0746877A04EBC707C7F84066068869
:10096000878846EA0746877A04EBC707C7F84466D4
:10097000067B012E12D12E680E432E60867A056802
:1009800004EBC6064FEA3545C6F84056867A4568F8
:1009900004EBC6044FEA3545C4F84456114CC57AF9
:1009A000241D002D256806D00D4325600D4C0589BA
:1009B000143415B104E08D43F7E725688D432560B5
:1009C0000589012D02D125680D432560407B012852
:1009D00002D1186808431860106820F00100106008
:1009E000F0BD0000006600400060004002460020AC
:1009F00053690B424AD0B1F5807F3BD013DC082904
:100A00002ED007DC012926D0022927D004293DD188
:100A1000D0682BE0102925D0202926D0402935D1B7
:100A20001069102130E0B1F5004F2BD00BDCB1F58F
:100A3000007F22D0B1F5806F22D0B1F5006F25D1B3
:100A40009069702120E0B1F5803F11D0B1F5003FF1
:100A50001CD15068E5E790680D4915E0D06802E0C8
:100A6000D068DEE7106903210EE0106908210BE071
:100A70005068FBE79069012106E09069022103E0DC
:100A8000906900E05068042100F02AB97047000026
:100A900001010100002A426901D00A4300E08A43B3
:100AA0004261704710B50368002223F0020303601F
:100AB000036843F0010303604FF6FF7300E0521C2C
:100AC0004468E40701D19A42F9D14268D2073ED086
:100AD0008A79012A02683CD022F080020260CA7939
:100AE000012A026838D022F0400202600A7A012A04
:100AF000026834D022F0200202604A7A012A026899
:100B000030D022F0100202608A7A012A02682CD0CA
:100B100022F008020260CA7A012A026828D022F074
:100B2000040202608A78CC78920742EA04620C7967
:100B300042EA04424C79098842EA0452491E0A43B7
:100B4000C261016821F001010160002114E0002070
:100B500010BD42F08002C1E742F04002C5E742F01A
:100B60002002C9E742F01002CDE742F00802D1E7C7
:100B700042F00402D5E7491C4268D20701D09942ED
:100B8000F9D14068C007E2D1012010BD10B500EBDB
:100B90000113D3F8B04114F004041472D3F8B04137
:100BA00034D0E408C2F80440D3F8B04104F00204A1
:100BB0005472D3F8B44104F00F049472D3F8B441E2
:100BC000240AD474D3F8B841D472D3F8B841240AB3
:100BD0001473D3F8B841240C5473D3F8B841240EDD
:100BE0009473D3F8BC41D473D3F8BC41240A147471
:100BF000D3F8BC41240C5474D3F8BC311B0E93744D
:100C000039B1016941F02001016110BD640D14602A
:100C1000CAE7C16841F02001C16010BD00218171A7
:100C2000C171017241728172C1728170C170032100
:100C300001710221417101210180704730B50246E6
:100C4000002093685B0108D49068000101D5012061
:100C500003E09068C00037D5022002EB0012D2F802
:100C6000803103F00103C2F880310B7A73B3D2F8FC
:100C700080414D681C434B7A43EAC5031C43C2F8CC
:100C800080418B7A03F00F038B72D2F8843123F00A
:100C90000F03C2F88431D2F884318C7A2343C2F82E
:100CA0008431CB7ACC6843EA0423C2F88831CB7B09
:100CB000096943EA0121C2F88C11D2F8801141F090
:100CC0000101C2F8801130BD042030BDD2F880315E
:100CD0004C7A23430C8843EA4453C2F88031D0E76E
:100CE000024600200A4200D0012070477047F0B54C
:100CF0000023012403270D6804FA03F215409542EE
:100D000042D1D0F800C05E0007FA06F52CEA050CC7
:100D1000C0F800C091F804C0D0F800E00CFA06FC5E
:100D20004CEA0E0CC0F800C091F804C0BCF1010FF1
:100D300002D0BCF1020F1FD1D0F808C02CEA050C7C
:100D4000C0F808C091F805C0D0F808E00CFA06FC1D
:100D50004CEA0E0CC0F808C0D0F804C02CEA020C13
:100D6000C0F804C0426891F806C00CFA03FC1FFAF0
:100D70008CFC42EA0C024260C268AA43C260CA7993
:100D8000C568B2402A43C2605B1C102BB3D3F0BDD0
:100D90004B07DB0E9A40C90810B500EB8100016AD1
:100DA0000F249C40A1430162016A1143016210BDFE
:100DB0000246002012690A4200D001207047418398
:100DC0007047018370474FF6FF7101600021017188
:100DD00041718171C1717047FEE700000421014833
:100DE000FFF7EDBF000802402DE9F0416A4D0446CF
:100DF000294628894FF00008401C80B22881C98804
:100E00004A1C92B2FA2C02D0FF2C03D004E0012835
:100E100005D001E0022802D0032802D003E0EA80D6
:100E20000FE0022902D0032904D006E00320E88065
:100E3000AC7006E0A97836290ED0A5F80880A5F890
:100E40000680A8882989001D814203D1A5F8088061
:100E5000A5F80680BDE8F0814FF00C0C042802D004
:100E6000072802D003E0AC8001E00C2C1BD04A4ED6
:100E700029780A3679B308283DD34748474F007888
:100E8000C0F10C02D31702EB937323F00303D21AC1
:100E90003346401E1344C2B208290ED91C702A7072
:100EA000082A03D027E085F800C0CAE73A480A308C
:100EB00001F0B2FD87ED000A1BE0491F03290BD8A2
:100EC0001C702A70042A16D133480A3001F0A4FDA0
:100ED00087ED010A0DE00EE003280CD81C702A7083
:100EE0004AB92D4885F801C00A3001F095FD87ED1B
:100EF000020A01F033FC28891728A2D36878002859
:100F00009FD0264F0C37082814D9C0F10C01CA17FE
:100F100001EB927222F00302891A401EC0B28C5576
:100F2000687008288DD11C480A3001F075FD87EDE6
:100F3000000A16E0411F032916D8C0F10C01CA1798
:100F400001EB927222F00302891A401EC0B28C5546
:100F500068700428A9D110480A3001F05DFD87EDC2
:100F6000010A01F0FBFB6CE7411E03299DD8C0F18B
:100F70000C00C21700EB927222F00302801A845513
:100F800011F0FF00687090D103480A3001F044FD71
:100F900087ED020AE5E70000841100205099002047
:100FA0007CB54FF4E131012003F00CFA1749012020
:100FB00003F098FA0121084600F06EF81020002492
:100FC00000908DF8044002208DF807008DF806404F
:100FD0008DF8050069460E48FFF789FE01F0BEFB5B
:100FE00000221021104602F02DFB0A4D03200222A0
:100FF0006870A421284602F025FB012068700222B7
:10100000A421284602F01EFB6C707CBDE90D00088F
:101010000000024092110020FEE7704730B50F2219
:10102000C47801780123FCB1144C246801F1E0215B
:1010300004F4E064C4F5E064C4F30724C4F10405D7
:10104000E2404478AC408578154025432A0181F878
:101050000024007800F01F018B404009800000F15F
:10106000E020C0F8003130BD01F01F008340480986
:10107000800000F1E020C0F8803130BD0CED00E0D0
:10108000024A1140014302480160704780FFFF1F80
:1010900008ED00E070470000044A0029116801D003
:1010A000014300E081431160704700003038024086
:1010B000044A0029116801D0014300E08143116016
:1010C0007047000040380240044A0029116801D0EE
:1010D000014300E081431160704700006038024026
:1010E000044A0029116801D0014300E081431160E6
:1010F0007047000020380240044A0029116801D0DE
:10110000014300E081431160704700004438024011
:10111000044A0029116801D0014300E081431160B5
:10112000704700002438024070B5204A1168204CF6
:1011300011F00C0104D06610042903D0082903D053
:1011400004601BE0066019E01849091F0B68C3F32F
:1011500080550B6803F03F0315B1B6FBF3F301E0D4
:10116000B4FBF3F30C680968C4F388146343C1F358
:101170000141491C4900B3FBF1F1016011680F23E3
:1011800003EA11110B4B5C5C0168E140416014689B
:10119000072505EA94241C5D21FA04F48460126892
:1011A00005EA52329A5CD140C16070BD08380240F5
:1011B0000024F400000000200029018802D041F43E
:1011C000005101E021F4005101807047002901889D
:1011D00002D041F0400101E021F040010180704760
:1011E0000246002012890A4200D0012070478089FF
:1011F00070478181704730B502884C8802F44153B2
:101200000A88CD8822438C882C4322430C892243B0
:101210004C8922438C892243CC8922431A43028081
:10122000828B22F400628283098A018230BD002908
:10123000818802D041F0040101E021F004018180A5
:10124000704770470CB50021284801910091026851
:1012500042F4803202604FF4A043026802F400328C
:101260000092019A521C0192009A12B9019A9A4274
:10127000F3D10268920300D5012100911B4940314E
:101280000A6842F080520A6019490A6842F44042F2
:101290000A60164908310A680A600A6842F4004286
:1012A0000A600A6842F4A0520A60009B0A1F012BE0
:1012B0001AD0104B1360026842F08072026002681C
:1012C0009201FCD50C4A40F205701060086820F0CD
:1012D00003000860086840F0020008600868C0F376
:1012E00081000228FAD10CBD044BE3E7003802402C
:1012F0000070004010540007003C024008544007B2
:1013000070470000124810B5016841F47001016097
:101310001048016841F0010101600E4A00210832C5
:10132000116002680C4B1A400260031D0B4A1A60E0
:10133000026822F48022026006480C300160FFF748
:1013400081FF03494FF000608039086010BD000044
:1013500088ED00E000380240FFFFF6FE1030002468
:1013600010B50D4C0121204600F003F900280ED0E5
:101370000121204600F01EF80848418840F2E7327B
:10138000914205D3002141808188491C818010BD94
:101390004188491C418010BD000C0040DC00002049
:1013A0000029018802D041F0800101E021F0800194
:1013B00001807047C94301827047C9430182704769
:1013C0000029018802D041F0010101E021F0010172
:1013D00001807047002930F8441F02D041F40041D9
:1013E00001E0C1F30E01018070470000464910B5CD
:1013F000884206D101210846FFF78AFE002101201C
:101400005BE0B0F1804F09D0404988420DD1012105
:101410000220FFF765FE0021022070E0012108464E
:10142000FFF75EFE0021012069E03949884206D1BC
:1014300001210420FFF754FE002104205FE035491C
:10144000884206D101210820FFF74AFE002108202A
:1014500055E03149884206D101211020FFF740FEB6
:10146000002110204BE02D49884206D10121202087
:10147000FFF736FE0021202041E02949884206D1AD
:1014800001210220FFF744FE0021022015E025493A
:10149000884202D101210C040AE02349884202D18A
:1014A00001214C0404E0214988420AD101218C0425
:1014B0002046FFF72DFE00212046BDE81040FFF733
:1014C00027BE1B49884206D101214020FFF708FEB4
:1014D0000021402013E01749884206D101218020D5
:1014E000FFF7FEFD0021802009E0134988420AD160
:1014F000841501212046FFF7F3FD00212046BDE8B9
:101500001040FFF7EDBD10BD000001400004004099
:1015100000080040000C0040001000400014004093
:1015200000040140004001400044014000480140E7
:1015300000180040001C00400020004070B50589E4
:10154000048B068C25F007050D434FF6FC410C403B
:1015500040F201110C434FF6FF7101EA031126F02E
:1015600022061143314305810483018470BD406A22
:10157000704702460020138A92890B4202EA010258
:1015800002D0002A00D001207047002A828901D0B1
:101590000A4300E08A4382817047000030B5028C24
:1015A00022F001020284028C8388048B22F0020262
:1015B00024F073050C882C438D8915434A882A43EF
:1015C0000C4DA84202D00C4DA8420DD122F00805C6
:1015D000CA8923F440732A4322F004058A882A43E7
:1015E0000D8A1D434B8A2B438380048389684163A2
:1015F000028430BD0000014000040140028B22F053
:1016000008020A4302837047C16270474163704712
:101610004162704730B50288164B174C98420DD086
:10162000A0420BD0B0F1804F08D0144DA84205D095
:10163000134DA84202D0134DA84203D122F07005E9
:101640004A882A43104DA84206D0104DA84203D024
:1016500022F440750A892A4302804A68C2620A88D5
:101660000285984201D0A04201D1897A01860121E8
:10167000818230BD000001400004014000040040B0
:1016800000080040000C0040001000400014004022
:1016900070B50C4E40F225552946304600F04BF807
:1016A00000280ED0084C207828B9304600F0D0F839
:1016B0006168C0B2884729463046BDE8704000F0F6
:1016C00023B870BD00100140E400002070B50C4E3E
:1016D00040F225552946304600F02DF800280ED05E
:1016E000084C607828B9304600F0B2F8A168C0B262
:1016F000884729463046BDE8704000F005B870BD07
:1017000000440040E40000200A0A01219140C9433E
:10171000018070470029818902D041F4005101E025
:1017200021F40051818170470246002012880A424C
:1017300000D00120704730B501F01F0201240025C0
:10174000C1F3421304FA02F2012B0FD0022B0FD087
:10175000838A4FEA11210088134204FA01F400EA57
:10176000040001D000B10125284630BD8389F0E78F
:10177000038AEEE710B5C1F3421301F01F04012103
:10178000A140012B07D0022B07D01430002A026899
:1017900005D00A4304E00C30F8E71030F6E78A433E
:1017A000026010BD7FB50446008A0D4620F440510A
:1017B000E88808432082A08941F20C618843A98807
:1017C0002A8911436A8902431143A181A08A20F426
:1017D0004071A8890843A0826846FFF7A5FC1A4813
:1017E000844202D01948844201D1039800E0029853
:1017F000A189090400EBC00101EB0010296801D5A3
:10180000490000E08900B0FBF1F26420B2FBF0F186
:1018100009010B096FF018056B4302EB8302A389E2
:101820001D044FF0320306D503EBC202B2FBF0F009
:1018300000F0070005E003EB0212B2FBF0F000F04D
:101840000F00084320817FBD0010014000140140BB
:101850008088C0F308007047C1F308018180704799
:10186000FEE7000037B514460846064B6A46214697
:1018700000F0FEF804466946002000F090FC204687
:101880003EBD00009F21000802E008C8121F08C1E9
:10189000002AFAD170477047002001E001C1121FF1
:1018A000002AFBD1704700002DE9F041164A04469A
:1018B000107828BB4FF0010C82F800C04FF47A7703
:1018C00000254FF0E02013E039468C4200D8214635
:1018D00042F228334B4343618561C0F810C003696D
:1018E000DE0701D0DB03FAD505618561611A8CB290
:1018F000002CE9D11570BDE8F08100BF01F056FF62
:10190000641EA4B2FAD2F6E7DC0000202DE9FF5FE6
:10191000DDE90220010DDDF838B0024318D044F6AD
:101920001050A1F2FF3141430D140F98012820D02F
:10193000A5EB0B00401C5FEA000A4FF00004474E85
:10194000DFF81C91A046504616D5CAF1000728E0E2
:101950000F98012443A2012808D0002100980F9B72
:10196000C0E90021C0E90243BDE8FF9F6FEA0B0117
:10197000F4E7CBF10000DEE7074612E0F80707D0F6
:101980002246334640464946FEF73EFD804689469C
:101990002246334610461946FEF736FD04460E46EB
:1019A0007F10002FEAD1DDE90201BAF1000F4246B3
:1019B0004B4602DAFEF728FD01E0FEF797FD0446EC
:1019C0000E460022284BFEF719FE03D84FF0FF30D9
:1019D000014607E00022254B20463146FEF76DFC0C
:1019E000FEF7F3FD102409E0002C0ADB0A22002395
:1019F000FEF732FC019B30321A55641E50EA010298
:101A0000F2D1641C019AC4F1110314440F9A012A03
:101A100003D0012208430DD10AE0084304D000207E
:101A20004FF0110B0F9080E7A3EB0B056D1E0DE03F
:101A30005B4504DD4FF0000205F1010504E003DA27
:101A40004FF00002A5F10105002AECD000980F9993
:101A5000C0E90231C0E9004586E7000000002440EB
:101A60000000F03F300000000000F0430000E03FC5
:101A70002DE9FF4F95B09B468946064600250FE2AB
:101A8000252877D100242746F84A0121059400E053
:101A9000044316F8013F203B01FA03F01042F7D14E
:101AA00030782A2811D06FF02F033078A0F130025F
:101AB000092A16D8059A44F0020402EB820203EBCD
:101AC00042021044761C0590EFE759F8042B05926A
:101AD000002A03DA504244F40054059044F0020412
:101AE000761C30782E2816D116F8010F44F0040425
:101AF0002A280DD06FF02F023078A0F13003092B87
:101B000009D807EB870302EB4303C718761CF3E7FA
:101B100059F8047B761C30786C280FD006DC4C28F2
:101B200017D068280DD06A2814D104E0742810D08A
:101B30007A280FD10DE044F400140AE044F4801434
:101B400001E044F440147278824202D104F580141A
:101B5000761C761C307866280BD013DC582877D09A
:101B600009DC002875D04528F6D04628F4D047284F
:101B70001AD19DE118E0632835D0642879D0652812
:101B800012D195E1702873D008DC6728F1D069285C
:101B90006FD06E280DD06F2806D1B5E073282CD0F9
:101BA000752875D0782874D05A46179990476D1CBF
:101BB00075E1C4F30250022809D003280DD0D9F8EA
:101BC000001004280DD00D6009F1040967E1D9F86F
:101BD0000010EA17C1E90052F6E7D9F800100D80AD
:101BE000F2E70D70F0E719F8041B8DF800100020E3
:101BF0008DF80100EA46012003E059F804AB4FF0EC
:101C0000FF3061074FF0000102D40DE008F101013F
:101C10008846B9420FDA8045F8DB1AF80810002927
:101C2000F4D108E008F1010188468142FADB1AF894
:101C300008100029F6D105985B46A0EB080721465D
:101C40003846179A00F094FA284400EB080507E09C
:101C50004DE029E10DE01AF8010B5A46179990471B
:101C6000B8F10108F7D25B4621463846179A13E1CE
:101C700042E00A220092C4F302524FF0000A022A04
:101C800008D059F804CB032A4FEAEC710AD00DE0D2
:101C900029E02AE009F1070121F00702F2E802C178
:101CA000914609E00FFA8CFC4FEAEC71042A03D14B
:101CB0004FFA8CFC4FEAEC71002907DA0A46002142
:101CC000DCF1000C61EB02012D2202E0220504D5BB
:101CD0002B228DF80420012203E0E20701D020220C
:101CE000F7E7904659E00A2102E010220DE01021AA
:101CF0004FF0000A00910BE010224FF0000A44F070
:101D000004040827009203E008224FF0000A009222
:101D1000C4F30252022A05D059F804CB0021032A49
:101D200008D009E009F1070121F00702F2E802C139
:101D3000914605E01FFA8CFC042A01D10CF0FF0C3F
:101D40004FF00008220728D5702806D0009B83F0AA
:101D5000100353EA0A0305D00EE040228DF8042058
:101D6000012208E05CEA010206D030228DF804204E
:101D70008DF8050002229046009B83F0080353EA89
:101D80000A030AD15CEA010201D1620705D53022BB
:101D90008DF804204FF001087F1E582804D034A08D
:101DA00003900EA802900DE036A0F9E75346604676
:101DB000009AFEF751FA84460398825C0298401E0E
:101DC000029002705CEA0100F0D1029806A9081A9C
:101DD00000F1200A600702D524F4803400E00127D6
:101DE000574502DDA7EB0A0000E0002000EB0A01E6
:101DF000009005984144401A0590E00306D45B46E4
:101E00002146179A059800F0B3F90544002706E02B
:101E100001A85A46C05D179990476D1C7F1C474525
:101E2000F6DBE0030CD55B462146179A059800F0D7
:101E30009FF9054404E030205A46179990476D1CDD
:101E40000099481E00900029F5DC08E002980299EC
:101E50005A460078491C0291179990476D1CBAF1B7
:101E60000001AAF1010AF1DC65E100000928010086
:101E70003031323334353637383961626364656600
:101E800000000000303132333435363738394142C2
:101E9000434445460000000000F058F90544761C14
:101EA000307800287FF4ECAD19B02846BDE8F08FFB
:101EB000620700D4062709F1070222F0070CFCE8AC
:101EC0000223E14603F000485FEA080C02D00FF25B
:101ED000702C0DE05FEA045C02D50FF2682C07E07D
:101EE0005FEAC47C02D00FF2602C01E0AFF2700C0C
:101EF0004FF0FF3823F00043CDF850C065280CD0D8
:101F000006DC452809D046281DD047283DD13DE0B4
:101F1000662818D067287ED138E00021112F01DB18
:101F2000112000E0781CCDE9000106A90EA8FFF7FA
:101F3000EDFCDDE90F010E9A03910021009207F1FB
:101F4000010A04914DE04FF000400097CDE90110E7
:101F500006A90EA8FFF7DAFCDDE90F0203920E9B3B
:101F600011990022DDF80CA00093049211B9791C9C
:101F700000EB010AB7EB0A0004D4C0F1FF3007F10F
:101F8000010A0490AAEB0700019044E0012F00DA57
:101F900001270021112F01DD112000E03846CDE995
:101FA000000106A90EA8FFF7B1FCDDE90F010E9AAA
:101FB0000391002104910092BA4621070CD40399A1
:101FC000514500DA8A46BAF1010F05DD009AAAF1FF
:101FD0000101515C302908D0B84202DA10F1040F37
:101FE00006DA0121CDE9011015E0AAF10101E9E7C6
:101FF000002805DC049901440491AAEB000102E0E9
:10200000411C514500DD8A460499401A401C01904C
:102010004FF000400290200704D40198504501DBA6
:10202000CDF8048000208DF84F0002980DF14F0785
:10203000B0F1004F25D02B200E9002984FF00208EF
:1020400000280CDA404202902D200E9007E00A2171
:102050000298FEF7EBF83031029007F8011DB8F155
:102060000001A8F10108F2DC02980028EFD1791EE6
:102070000E980870307800F0200040F0450007F816
:10208000020D12A8C01B00F107081498007800B1D7
:10209000012000EB0A01019801EBE0710598414431
:1020A000401A401E0590E00306D45B462146179A6D
:1020B000059800F05DF805441498007818B15A4668
:1020C000179990476D1CE00324D55B462146179A6B
:1020D000059800F04DF805441CE00498002807DB43
:1020E000DDE90301884203DD0098405C179901E0B7
:1020F000179930205A469047049805F10105401C75
:1021000004900198401E019004D12E205A46179940
:1021100090476D1CBAF10001AAF1010ADDDC05E06F
:1021200017F8010B5A46179990476D1CB8F100013A
:10213000A8F10108F4DC5B462146179A0598ABE646
:102140002D0000002B000000200000002DE9F041D0
:10215000044600251E461746880404D405E0394687
:102160002020B0476D1C641EF9D52846BDE8F081DB
:102170002DE9F041044600251E469046C80301D5CE
:10218000302700E02027880404D505E04146384682
:10219000B0476D1C641EF9D52846BDE8F0810A6879
:1021A000531C0B601070704701A1012002F0AEB902
:1021B00023733031000000002DE9F843324DA87838
:1021C00070B1DFF8C88000244FF0040908F10C0654
:1021D000A0062E4B000E6A460C3B09EB840111E071
:1021E000E879052803D9FFF7DFFF002000E0401C55
:1021F000E871BDE8F8831F5C00F0030C401C02F896
:102200000C70C0B28142F6D808EB84079DED000A3D
:10221000D7ED000A00F0AEFB06EB8400641CD0EDA5
:10222000000AE4B2032C30EE200A80ED000A9DED96
:10223000000A87ED000ACBD3687940B196ED000A19
:10224000D5ED020A30EE600A86ED000AD1E70F48AC
:10225000A979183000EB810298ED000A491CC9B237
:1022600082ED000AA9714B29C3D390ED4A0AD0ED43
:10227000000A012030EE600ADFED050A80EE201A28
:1022800085ED021A6871B4E7781100200C980020DF
:10229000000096421CB502208DF8050000208DF844
:1022A000040001218DF80710032100918DF806002C
:1022B00069460248FEF71BFD1CBD000000080240F5
:1022C00010B501460348FEF773FD08B1002010BDAC
:1022D000012010BD0008024038B5304C21786078EC
:1022E000084318D02089401E0004000C208111D121
:1022F00021B1207020B100F0DDF803E00120F8E703
:1023000000F0D2F8E08820812078002802D160789F
:10231000401E607038BDE0780028FBD0A18960695C
:1023200000EB41000088ADF800009DF90000401C62
:1023300002D1E07000F0B8F8208A10B1401E20826F
:1023400038BDE0892082618A89B1207930B10020CE
:10235000207128B1218200F0A7F803E00120F7E7FF
:1023600000F0A8F8608A10B120790028E8D1A0898F
:10237000401C80B2A081616901EB40000088ADF88B
:1023800000009DF801109DF9000000F0BDFB00F079
:10239000C1F8BDE8384000F08DB800005C000020B6
:1023A00070B53B498AB000240C804EF6E660488048
:1023B000022042F6631200BF01EB400342F21075A7
:1023C00033F8023C6B43B3FBF2F321F81030401CAE
:1023D000C0B20D28F0D301210220FEF75DFE0220DD
:1023E0008DF8180001028DF819002A4D05918DF81D
:1023F0001A408DF81B4005A92846FEF778FC0322F9
:1024000009212846FEF7C4FC01218804FEF774FE6A
:10241000A815ADF824002048ADF81E401F490068FB
:102420001F4DB0FBF1F0401EADF81C0068891D4E39
:10243000089007A93046FFF7EDF86020ADF80000DE
:102440000120ADF80200ADF80C40ADF810400420BA
:10245000ADF80E40ADF81240ADF80400A878029037
:1024600069463046FFF79AF801213046FEF798FF9B
:1024700008213046FFF7C2F801213046FEF7AAFFD7
:1024800001213046FEF79CFF00F00EF80AB070BD47
:10249000B4110020000402401000002040420F0050
:1024A0005C0000200048014000210148FFF7AEB861
:1024B000004801400648418939B180784143642091
:1024C000B1FBF0F10348FFF7A1B8FFF7EDBF000043
:1024D0005C0000200048014070B5002816D00C4B6D
:1024E000002401251C705C70DD709C81D9811982EB
:1024F0005A821C715861417890F9000000F004FB89
:1025000000F008F8BDE87040FFF7D4BF70BD0000D0
:102510005C00002004494881010002D00348FFF715
:1025200073B8FFF7C1BF00005C0000200048014005
:10253000064801680268C1F38061C2F3C0620068A6
:102540001144C0F300700844704700000864004064
:10255000F0B5012187B04806FEF7AAFD0121084623
:10256000FEF79AFD02258DF805508DF804500126DE
:10257000A8022A4F8DF80760002400908DF80640CD
:1025800069463846FEF7B3FB8DF805508DF80450C8
:10259000E8028DF8074000908DF8064069463846FD
:1025A000FEF7A5FB09220B213846FEF7F1FB0922B5
:1025B0000C213846FEF7ECFB194F3846FEF79AF926
:1025C00002A8FEF72BFB8DF80E408DF80F608DF8FA
:1025D0000A408DF80B408DF80C50062004948DF8BD
:1025E0000D50ADF8080002A93846FEF75BFA012845
:1025F000F9D1012211463846FEF74CFA13208DF826
:1026000014008DF8154004208DF816008DF8176021
:1026100005A8FEF703FD07B0F0BD00000000024072
:10262000006400407FB51546134C1F2242EA411258
:1026300021788DF80A1000214FF6FF7606EA401047
:102640000123ADF800008DF80B108DF80C30ADF8BB
:102650000420ADF80210ADF80610ADF808108DF8A2
:102660000D306846FEF75CF90449207841F82050A7
:10267000401C20707FBD000080000020F88E0020EC
:1026800008B5012202210948FEF704FA14208DF84A
:10269000000000208DF8010004208DF802000120C8
:1026A0008DF803006846FEF7B9FC08BD00640040E1
:1026B00030B58FB000F046F8E0BBFFF739FFC8B384
:1026C0001E4C05AD2188A06800EB01130FCB85E8F7
:1026D0000F000599009100219DF818008DF8091050
:1026E0008DF8081001918DF80A0005A96A4603E0EB
:1026F0000B1815185B79EB72401EC0B2F8D2142289
:10270000694609A8FDF764FD09A90D48FEF796FA88
:10271000042807D02088A188401CB0FBF1F201FBFF
:1027200012002080FFF704FF08B1FFF7C1FF01206E
:102730000FB030BDFFE70020FAE70000880000205E
:1027400000640040044801884088814201D1012092
:1027500070470020704700008800002003480021D7
:10276000017041708170C170704700008E110020AF
:1027700070B51B480025012601681A4C1A48062925
:1027800024D2DFE801F00306090D111A057117A123
:1027900016E0067118A113E00221017119A106E0EB
:1027A000032101711AA10BE0042101711AA10E4845
:1027B0004C30FDF71FFD267070BD0521017119A178
:1027C00009484C30FDF716FD257070BD06210171DA
:1027D000BDE87040044816A14C30FDF70BBD000069
:1027E00058000020290000201411002050696E6B51
:1027F0005374617274000000426C756553746172A9
:10280000740000004461726B677265656E000000C1
:102810004F72616E676500004461726B626C756532
:10282000000000004C69676874677265656E00009F
:10283000556E6B6E6F776E002DE9F04385B0012108
:102840000220FEF759FC01210420FEF725FCDFF8E9
:102850001481032206214046FEF79AFA032207213B
:102860004046FEF795FA01210420FEF721FC0121E4
:102870000220FEF711FCDFF8F09002220621484604
:10288000FEF786FA022207214846FEF781FA6846DB
:10289000FEF799FA02268DF8046000248DF80640B0
:1028A000C0258DF80740032700958DF8057069460F
:1028B0004046FEF71CFA6846FEF785FA8DF804607C
:1028C0008DF806408DF8074000958DF80570694633
:1028D0004846FEF70CFA254E01213046FEF76DFD05
:1028E0003046FEF783FDADF808404FF6FF750395BF
:1028F000ADF81040ADF80A4002A93046FEF78AFE56
:102900001B4F01213846FEF758FD3846FEF76EFD95
:10291000ADF808400395ADF81040ADF80A4002A9A3
:102920003846FEF777FE00231A4603213046FEF7AD
:1029300005FE00213046FEF76BFE01213046FEF712
:102940003FFD00231A4603213846FEF7F7FD00211C
:102950003846FEF75DFE01213846FEF731FD05B031
:10296000BDE8F0830008024000040240000401407A
:102970000008004030EE600ADFED0D0A0D4805E06A
:1029800030EEC00A10EE101A81420FDD10EE101A60
:102990008142F5DC084A00BF10EE101A914205D9B9
:1029A00030EE200A10EE101A8142F5DB704700006D
:1029B0000000B44300003443000034C370B500F09D
:1029C000B5F80A21B0FBF1F201FB120000281AD180
:1029D0000D490E4C0E4B0A780E491AB1C0F107058D
:1029E0005D5D00E0255C0D54401C0828F5DB0020EF
:1029F0001AB1C0F10705655D00E01D5C0E18401CB2
:102A000035720828F4DB70BD240000204800002047
:102A100050000020A411002010B502784178530026
:102A2000C47843EAD11344EA014180784FF40004AA
:102A300044EA0020014300EE101ADBB2C3F1960015
:102A4000B8EEC00A00284FF0000109DDF6EE000ADA
:102A500003E000BF20EE200A491C8142FADB08E0B7
:102A6000F0EE000A03E000BF20EE200A491E81427A
:102A7000FADC100601D5B1EE400A10BD10B50028F1
:102A800021D0114B0022001F196803E0814203D8B6
:102A90000A4649680029F9D152B11368841A9C4248
:102AA00004D1006818441060104602E0506000E055
:102AB000186039B102680B1A934203D10B681A44AB
:102AC00002604968416010BD9C110020034900EB81
:102AD000800051F82000FEF74ABD0000940000205D
:102AE00010B5FFF7F3FF4FF47A7190FBF1F010BDD2
:102AF00004488188408801EB4102C2EBC11100EB20
:102B0000C1007047DC00002018B1421C01D00C2825
:102B100001DD00207047044A32F8100000E0400850
:102B2000491EC9B2FBD27047B41100200148408849
:102B300070470000DC000020F0B4174D134800215E
:102B4000D5ED000A4678124BBDEEE00A114C012289
:102B500016B1012E0CD105E010EE105A15F14B0FF5
:102B600004DC05E010EE105A5A2D01DA1A602170CB
:102B70009FED0A0A0A4980EE801A80ED111A006B57
:102B80000860F0BC81B2002000F09CBD1411002050
:102B90003000002028000020189800200000344356
:102BA0004400002010B5294C208881B2002000F09C
:102BB00089FDFFF79DFF26490968411A2548026CE7
:102BC000914242D324490968491E0A292FD8234932
:102BD000244A9FED250A0B682149126809681144AF
:102BE00001EBD1714FEA610100EE901AF8EEE00AB4
:102BF00053B120EE800A9FED1D1ADFED1D0A40EE55
:102C0000410ABDEEE00A10E0D0E90D2160EE800A35
:102C10008A1A00EE102AB8EEC01A00EE101AB8EEAA
:102C2000C00A00EEC10ABDEEC00A84ED000A0179B7
:102C3000052903D1016909B1012141612088BDE85D
:102C4000104081B2002000F03DBD10BD44000020C6
:102C500040000020141100202C0000203000002033
:102C6000380000203C0000200000803D00007A4435
:102C70000040E74410B50B4C0B49E06A00F24650A7
:102C8000086081B2002000F01DFD0020FFF71EFF4C
:102C900041F65831884204D90120044920610020BE
:102CA000087010BD141100204400002028000020EE
:102CB000164810B5D0ED000A9FED151A154C1849AD
:102CC00080EE810A9FED141ADFED140A84ED110ADB
:102CD00040EE010ABDEEE00A10EE100AA0640860A2
:102CE00081B2002000F0EEFC0020FFF7EFFE44F67A
:102CF0002061884209D9E07800F0D2FB002804D195
:102D000000F002FC07490320087010BD189800204D
:102D100000003443141100200000FA4300C0A8440E
:102D200044000020280000207FB502248DF80540D3
:102D300000258DF8045062208DF8074000908DF832
:102D4000065069460848FDF7D2FF8DF80D408DF812
:102D50000C5001208DF80F4002908DF80E5002A902
:102D60000248FDF7C4FF7FBD00000240000402409E
:102D70002DE9F05F0120FFF7A3FA0025334CDFF8BF
:102D8000D0A001264AF6555B40F24C474FF4C86884
:102D90004FF47A7940B30120FFF792FA0028FAD174
:102DA0005B4640F2DF420021022000F0DBFE6FF0C4
:102DB0005900E0611E2020626FF02C009FED250A73
:102DC000606284ED0A0A4FF482706763E0624BF23E
:102DD000B030C4F84090C4E90E806570A670E5700C
:102DE00040F2B630E5602BE00220FFF769FA0028D8
:102DF00029D00220FFF764FA0028FAD15B4646F298
:102E000004120021022000F0ADFE5020E0616FF0BE
:102E10001D0020622D209FED100A606284ED0A0AD9
:102E20006FF0B3006763E0624AF6C870C4F8409080
:102E3000C4E90E806670A570E67040F2A460A560DB
:102E400020638AF80060BDE8F09F000014110020A4
:102E500034000020000034C3000034431CB50121BD
:102E60000420FEF719F902208DF8050001208DF8E5
:102E7000040000208DF80700042100918DF8060061
:102E800069460348FDF733FFFDF7A8FF1CBD0000AE
:102E90000008024000F094FC0026DFF8ECA1DFF807
:102EA000EC917B4C3746B04635464FF0060B00BFE1
:102EB000FFF73CFEB042FBD0FFF70EFAFFF736FEFD
:102EC000064600F0EBFCFFF779FD00F0A5FAFFF7EE
:102ED0002DFE4FF44871B0FBF1F201FB120008B96E
:102EE000FFF746FCFFF722FE1921B0FBF1F201FBD0
:102EF000120008B9FFF760F96648007800B10125B3
:102F000035EA070005D002221E216348FFF7E4FAE4
:102F10000127E068002879D0012878D1207830B1E5
:102F2000012875D0022874D0032830D197E099F891
:102F3000000007282BD2DFE800F004192B3641539C
:102F40005D00FFF72FFEB8F1000F06D10A222821FD
:102F50005248FFF7C1FA4FF001089AF80000022822
:102F60007FD1012089F800004DA10DE0032000F081
:102F700097FA08B9FFF716FE9AF80000032870D1F7
:102F8000022089F8000049A14A48FDF733F968E0BA
:102F9000FFF708FE9AF80000022862D1032189F8A1
:102FA000001045A1F0E7FFF7FDFD9AF800000328A7
:102FB00057D1042189F8001042A1E5E7FFF7F2FD9F
:102FC0009AF80000022806D1052189F800103FA1D7
:102FD0003848FDF70FF9022000F062FA30B140E006
:102FE000FFF7E0FD9AF8000003283AD189F800B015
:102FF00039A1C9E7A06868B1FFF7D4FD607838B39C
:103000003948007800F04CFA60B12AE02EE036E052
:103010001FE021E0354890ED000A354880ED000AB8
:10302000012014E0A06898B13248006880B900F02F
:103030006BFA31480A22282190ED000A2C48B8EE9C
:10304000C00A80ED000A1548FFF746FA02202070FA
:1030500007E0FFF771FD04E0FFF72AFE01E0FFF74C
:1030600009FE00F023F900F055FA08E040F246515D
:10307000002000F027FBFFF77BFE00F075F8002032
:10308000606000F0F3FE13E7181100201411002017
:10309000280000207D1100206C45000860450008D4
:1030A000475245454E534C4F504531004F52414ECB
:1030B000474531006C110020475245454E534C4F57
:1030C000504532004F52414E474532004752454528
:1030D0004E534C4F5045330046494E4953484544A2
:1030E000534C4F5045000000161100203C110020A9
:1030F000189800202411002030110020F0B50B306A
:10310000154D20F007010024144A0FE003688B429C
:103110000BD38B4205D95E1A43184768C3E9006791
:1031200000E04368136002C004E0021D106800283C
:10313000ECD12046002802D1286808B10020F0BD5B
:10314000064A07481060074A121A22F00702C0E92F
:10315000002401202860D7E7A01100209C11002046
:103160006C990020689B00207CB500212DA20846A8
:1031700000F04AFD0120FFF7B3FC04460020FFF7F2
:10318000AFFC03462CA201210020009400F03CFD7E
:103190002C4B2DA20221002000F036FD2D4D0024E5
:1031A000E0B22B5D2CA2032100F02EFD641C102C3C
:1031B000F6DB2A482AA204210378002000F024FD2F
:1031C0002B480068FDF71FF8CDE9000129A2052171
:1031D000002000F019FD29482AA20621006800906D
:1031E00027480368002000F00FFD012000F058F987
:1031F0000446002000F054F9034626A207210020CF
:10320000009400F001FD032000F04AF9044602207A
:1032100000F046F9034622A208210020009400F0A5
:10322000F3FC7CBD505245535320524544202F207F
:10323000574849544500000065313A2564206532FD
:103240003A256400601100207A6F6E653A2025737C
:1032500000000000A4110020256400007D11002062
:1032600063616C696272617465643A256400000090
:10327000189800207961773A256600003000002018
:103280002C0000206C656E6774683A2564206677B0
:103290003A256400696C3A25642069723A25640015
:1032A000756C3A25642075723A2564007CB500215E
:1032B000364B37A2084600F0A7FC384D0024E0B298
:1032C0002B5D37A2012100F09FFC641C102CF6DB63
:1032D00034480068FCF797FFCDE9000132A20921CC
:1032E000002000F091FC012000F0DAF804460020F4
:1032F00000F0D6F803462EA203210020009400F02F
:1033000083FC032000F0CCF80446022000F0C8F84B
:1033100003462AA204210020009400F075FC2A48EC
:103320002BA205210078009028480368002000F0B7
:103330006BFC2B482CA206210078009029480368DA
:10334000002000F061FC0120FFF7CAFB04460020CA
:10335000FFF7C6FB034628A207210020009400F0D7
:1033600053FC0A4827A24C3841690091036908219F
:10337000002000F049FC02B0044BBDE870400C3363
:10338000022124A2002000F03FBC000060110020B8
:103390005A4F4E453A20257300000000A41100202A
:1033A0002564000018980020793A25660000000086
:1033B000696C3A25642069723A256400756C3A2577
:1033C000642075723A256400280000202C0000203B
:1033D0006C653A25642073746174653A2564000055
:1033E000290000203000002066773A25642C2072E6
:1033F000697665723A25640065313A256420653244
:103400003A256400707269763A20256420706473EE
:103410003A25640025730000F0B54FF0FF33002516
:103420001B4C1A462946605C012817D0491C1029FC
:10343000F9DB00215FF00F0014F800C0BCF1010FB0
:1034400016D0401EF8D51348134CDFF850C08D42FB
:1034500019DD05602260CCF80070F0BD6D1C501CB9
:1034600000D10A4660180F4640780028E1D0DDE719
:10347000491C5E1C00D10346261816F8016C002E6C
:103480000646E0D0DDE701602660CCF80030F0BDF4
:10349000A41100202C000020380000203C00002057
:1034A0000549032803D031F81010044801E0C98809
:1034B0000348FDF77DBC0000BC0000200000024076
:1034C000000402400FB4054A002069460B18DB7A5D
:1034D0001354401C0828F9DB04B070474800002052
:1034E0000FB4054A002069460B18DB7A1354401CC0
:1034F0000828F9DB04B07047500000200149D8B219
:10350000086070475800002000210148FEF780B88D
:10351000000401402DE9F0410120FEF7D1FE012514
:1035200003270026304C00282CD00120FEF7C8FECF
:103530000028FAD1E068062824D2DFE800F003066C
:103540000A0D111C257029A10DE0022020702AA16E
:1035500009E027702AA106E0042020702BA102E0D8
:10356000052020702BA120485830FCF743FEE0686E
:10357000401CE06006E01C48267029A15830FCF78A
:1035800039FEE6600220FEF79BFE002829D00220CB
:10359000FEF796FE0028FAD12448A16821B101293E
:1035A00007D0022914D10FE0056026616661A5608D
:1035B0000EE0256105600A2228211D48FEF78CFFD8
:1035C000A068401CA06003E005602561A7606561FC
:1035D00006202070BDE8F041034816A15830FCF7E2
:1035E00009BEBDE8F0810000141100204752454596
:1035F0004E534C4F504531004F52414E47453100DC
:10360000475245454E534C4F504532004F52414E64
:1036100047453200475245454E534C4F50453300C5
:1036200053544152545A4F4E450000003000002080
:103630006045000846494E4953484544534C4F5055
:10364000450000002DE9F0411D4D14460F46064689
:1036500010212846FDF7ACFB0028F9D1601DFFF7CB
:103660004DFDFA210170FF21417087700546C4703D
:1036700000220420211D05E0331813F8043C2B54CC
:10368000401CC0B28842F7D3012004E02B5C401CF0
:103690001A44D2B2C0B28842F8D350422919002647
:1036A0000871641D05E0A95D012000F045FF761C4E
:1036B000F6B2A642F7D32846BDE8F041FFF7DEB9DF
:1036C00000000240002803D1024842690248104726
:1036D00070470000C40000200000014070B50121C7
:1036E0008CB00846FDF708FD01210846FDF7D4FC23
:1036F00002208DF8040003202A4E8DF805000024D6
:1037000004EB440006EBC005287B50B128890090EB
:1037100069466868FDF7EBFA698901226868FDF778
:1037200037FB641C14F0FF04EAD04FF480700024CF
:10373000ADF82C00ADF82640A720ADF8240044F6E3
:103740002060194D0A908DF82E4009A92846FDF7F2
:1037500061FF6020ADF810000120ADF812004FF4B9
:103760007A70ADF81C40ADF820400690ADF81E40D0
:10377000ADF82240ADF8144004A92846FDF70EFF2D
:1037800001212846FDF73AFF01212846FDF708FEF2
:1037900001212846FDF714FE01212846FDF71AFEF7
:1037A0000CB070BDC40000200000014010B5002422
:1037B000FCF7F4FC641CE4B2642CF9D310BD0000E7
:1037C00010B5FFF74BFB00F0C9FD4AF655534FF615
:1037D000FF720021022000F0C5F9FEF7E1FDFFF7BE
:1037E0007DFFFEF757FDFFF727F8FFF79DFAFDF77E
:1037F000D7FBFEF7ADFEFEF743FF40F2FF74084A29
:103800002146C520FEF70EFF064A2146C620FEF7D8
:1038100009FF2146BDE81040034AC720FEF702BF5A
:10382000C5340008E1340008FD340008F0B5174A3B
:1038300000EB800002EB4006C83A02EB4002164F54
:10384000555C134A16F801C002EB8004A2F5C87259
:1038500002EB8002AC4532F811300E4A02EB8002D6
:1038600007EB800030F8117007D134F8110098424E
:1038700003D132F81100B84201D0012000E000204D
:10388000755424F8113022F81170F0BD30900020EA
:1038900088920020A89500201894002010B50024DC
:1038A000204600F005F8641CE4B20A2CF8D310BDE1
:1038B000F0B50F4A0F4E0021D4889388202506F5D5
:1038C000C87706F5966E00BF01EB810206EB420C4D
:1038D000491C0CF8005007EB820C0EEB82022CF80E
:1038E0001040C9B222F810301429EDD3F0BD000009
:1038F00008010020688F002010B5012000F0D6FCE0
:10390000112000F0D3FCB12000F0D0FC012000F029
:10391000F9FC2C2000F0F6FC2D2000F0F3FCB22086
:1039200000F0C4FC012000F0EDFC2C2000F0EAFCCB
:103930002D2000F0E7FCB32000F0B8FC012000F0DF
:10394000E1FC2C2000F0DEFC2D2000F0DBFC01204F
:1039500000F0D8FC2C2000F0D5FC2D2000F0D2FC8B
:10396000B42000F0A3FC072000F0CCFCC02000F045
:103970009DFCA22000F0C6FC022000F0C3FC8420C5
:1039800000F0C0FCC12000F091FCC52000F0BAFCA2
:10399000C22000F08BFC0A2000F0B4FC002000F0F4
:1039A000B1FCC32000F082FC8A2000F0ABFC2A208E
:1039B00000F0A8FCC42000F079FC8A2000F0A2FCF2
:1039C000EE2000F09FFCC52000F070FC0E2000F0FF
:1039D00099FC362000F06AFCC82000F093FCE0203F
:1039E00000F064FC022000F08DFC1C2000F08AFC3A
:1039F000072000F087FC122000F084FC372000F044
:103A000081FC322000F07EFC292000F07BFC2D2080
:103A100000F078FC292000F075FC252000F072FCF5
:103A20002B2000F06FFC392000F06CFC002000F02F
:103A300069FC012000F066FC032000F063FC10200C
:103A400000F060FCE12000F031FC032000F05AFCA3
:103A50001D2000F057FC072000F054FC062000F069
:103A600051FC2E2000F04EFC2C2000F04BFC2920B5
:103A700000F048FC2D2000F045FC2E2000F042FC18
:103A80002E2000F03FFC372000F03CFC3F2000F0EF
:103A900039FC002000F036FC002000F033FC02204E
:103AA00000F030FC102000F02DFC2A2000F0FEFB7E
:103AB000002000F027FC002000F024FC002000F093
:103AC00021FC7F2000F01EFC2B2000F0EFFB0020EB
:103AD00000F018FC002000F015FC002000F012FCA3
:103AE0009F2000F00FFC3A2000F0E0FB052000F0E2
:103AF00009FCBDE81040292000F0D8BB2DE9F041B9
:103B000005462A2000F0D2FB002000F0FBFB00203D
:103B100000F0F8FB002000F0F5FB7F2000F0F2FB46
:103B20002B2000F0C3FB002000F0ECFB002000F095
:103B3000E9FB002000F0E6FB9F2000F0E3FB2C20D7
:103B400000F0B4FB00244FF4A0472E0A304600F0EA
:103B5000D9FBE8B200F0D6FB641CA4B2BC42F5D39A
:103B6000BDE8F0812DE9F05F1F4615460C46804602
:103B700000F0F4F800F0B2F8FFF7BEFE2C2000F0E1
:103B800095FB1E4E2046B480F5803781FFF7B6FFC7
:103B9000DFF86CE086F8008000204FF0200B00EB8F
:103BA0008001184A002302EB810702F5487202EBFC
:103BB0008109A2F57A7202EB410802F5167202EB56
:103BC000810602F548720EEB410A02EB810200BF4A
:103BD0000AF803B027F8135029F8134008F803B087
:103BE00026F8135022F813405B1CDBB20A2BEFD3EC
:103BF000401CC0B21428D2D3BDE8F09F08010020B9
:103C0000688F0020F89000200FB4F0B5C1B00C46CA
:103C10000546002649AA68464899FDF723FE2B4829
:103C20006A46C3880189878848E05B280AD05D28F6
:103C30000FD00D2813D00A2811D0142D0FD80A2C1C
:103C40000DD80EE012F801CCBCF15C0FF5D00126C6
:103C500005E012F801CCBCF15C0FEED00026521C3E
:103C60002CE05C2805D150785B2801D05D2800D17C
:103C7000521CDFF85CE005EB85000EEB400E12F8FD
:103C800001CB0EF804C00EB18C4600E09C46DFF874
:103C900044E0142D0EEB800E2EF814C0DFF838C06F
:103CA0000CEB800020F8147003D30025641CE4B2F0
:103CB00001E06D1CEDB20A2C00D30024107800281E
:103CC000B3D141B0F0BC5DF814FB00000801002046
:103CD000688F0020F89000201894002070B5094DDE
:103CE0004FF4007421462846FDF769F80120FDF7DE
:103CF000DBFD21462846FDF764F8BDE87040012051
:103D0000FDF7D2BD000802402DE9F04104461D46F2
:103D100016460F462A2000F0C9FA002000F0F2FAF9
:103D2000204600F0EFFA002000F0ECFA304600F0F8
:103D3000E9FA2B2000F0BAFA002000F0E3FA384646
:103D400000F0E0FA002000F0DDFA284600F0DAFA90
:103D5000BDE8F0412C2000F0A9BA00002DE9F041A7
:103D600088B001210220FDF797F901210420FDF719
:103D700093F901218E033046FDF79AF9012130466F
:103D8000FDF7A2F9DFF8D88005220D214046FCF7A7
:103D9000FFFF05220F214046FCF7FAFF00248DF8B3
:103DA000064001258DF8045077118DF807400097E3
:103DB0008DF8055069462B48FCF799FF8DF80640B1
:103DC0008DF804508DF8074000968DF8055069462F
:103DD0004046FCF78CFF8DF8064002264FF4204049
:103DE0008DF8046000908DF807408DF805606946F5
:103DF0004046FCF77CFF8DF8064028038DF8045000
:103E000000908DF807408DF8056069464046FCF744
:103E10006EFFADF808404FF48270ADF80A0008203C
:103E2000ADF81400ADF80C40ADF816400E4CADF8EE
:103E30001050ADF80E60ADF8127002A92046FDF7E3
:103E4000DAF901212046FDF7C1F900212046FDF7EE
:103E5000B3F900212046FDF7EAF908B0BDE8F0818A
:103E60000004024000080240003800402DE9F05FE5
:103E7000FE484078002873D0FD4C00204FF0400AE7
:103E80004FF0200E0427A4F5C86C002101EB81033C
:103E90000CEB8302491C32F8105009B20AEA552291
:103EA0000EEA5516324305F010052A43F14E04EB95
:103EB000430506EB8303022633F81030E34606EA97
:103EC0005326C3F3001807EA533346EA08061343A0
:103ED0001E432E541029D9DB401C00B20A28D4DB23
:103EE000E248007878B101287ED002287DD00328EE
:103EF00078D113250026F1B2E8B2FFF797FC00282D
:103F000074D0012761E100240026E1B2F0B2FFF78E
:103F10008DFCE8B3012704E0B9F1100F0DDA7F1C26
:103F20003FB206EB0709B9F1100F06DAE1B209F06A
:103F3000FF00FFF77BFC0028EED10F2000EB041000
:103F4000C3B2F119FF2000EBC100C2B22007010E7D
:103F5000F006000EFFF7D8FE4FF0000800252CE019
:103F600040E0E81705EB507106EBE10000B2C24AF1
:103F700000EB800002EB4003BC4A1B5D0A3208EBF9
:103F8000031321F00701D25C6B1A8021D94000E0B5
:103F900020E00A4202D00BEB800102E0B54901EBC0
:103FA000800131F814A04FEA1A2000F0ABF90AF0B2
:103FB000FF0000F0A7F96D1C2DB2B5EBC70FD0DBE9
:103FC00008F101000FFA80F8B8F1100FC6DBA9F173
:103FD000010006B2761C36B2102E96DB641C24B2A9
:103FE0000A2C91DBBDE8F09F01E070E053E1002670
:103FF0000724E1B2F0B2FFF719FCE8B3012703E0B0
:10400000002D09D47F1C3FB2E51B05D4E9B2F0B204
:10401000FFF70CFC0028F3D1072000EBC600C3B269
:10402000C4F108003844EF2101EB0010C2B2F006E1
:10403000010EC4F107000007000EFFF765FE4FF008
:10404000000800252DE0E81705EB1071A4EB211006
:1040500021F00F016A1A884B06EB860100B203EBD0
:1040600041031B5CC2EB0313804A0A321A44D37B20
:10407000802222FA08F200E020E0134202D00BEB8B
:10408000810102E07B4A02EB810131F810904FEA96
:10409000192000F037F909F0FF0000F033F96D1C2A
:1040A0002DB2B5EB071FCEDB08F101000FFA80F847
:1040B000B8F1080FC5DBE01B401C04B2641E24B23B
:1040C000002C96DA761C36B2142E91DB8AE709248E
:1040D0000F25E1B2E8B2FFF7A9FBE0B3012703E047
:1040E000002E09D47F1C3FB2EE1B05D4E1B2F0B222
:1040F000FFF79CFB0028F3D1C4F10A01FF2000EB7D
:104100000110C3B2C5F110003844F72101EBC00023
:10411000C2B2C4F109000007010EC5F10F00C006CC
:10412000000EFFF7F1FD4FF00008002631E0F01718
:1041300006EB5071A5EBE10000B24F4B00EB8000A5
:1041400003EB4003C8F110021B5D02EB0313474A67
:104150000A321A4400E029E021F00701711AC1F186
:10416000070312F8012C8021D9400A4202D00BEB40
:10417000800102E03F4901EB800131F814904FEAE1
:10418000192000F0BFF809F0FF0000F0BBF8761C22
:1041900036B2B6EBC70FCADB08F101000FFA80F8A0
:1041A000B8F1100FC1DBE81B401C05B26D1E2DB22B
:1041B000002D8EDA641E24B2002C89DA12E700BFCB
:1041C000B9F1080F0DDA7F1C3FB206EB0709B9F110
:1041D000080F06DA09F0FF01E8B2FFF727FB002815
:1041E000EED1C5F114014FF0FF3000EBC101CBB2AD
:1041F000F11900EB0110C2B2C5F11300C006010EA7
:104200003007000EFFF780FD4FF0000800242CE07F
:10421000E01704EB107106EB211021F00F01631A77
:10422000154A05EB850100B202EB4102C8F1070C0B
:10423000125C03EB02130D4A0A329B5C802222FAC5
:104240000CF2134202D00BEB810102E0094A02EBAF
:10425000810131F810A04FEA1A2000F053F80AF05B
:10426000FF0000F04FF8641C24B207E008010020B2
:104270003897002018940020688F0020B4EB071FA7
:10428000C6DB08F101000FFA80F8B8F1080FBDDBBA
:10429000A9F1010006B2761C36B2082EFFF62BAE4D
:1042A0006D1E2DB2002DBFF625AE9BE62DE9F04127
:1042B000124D07464FF4805631462846FCF77FFDE5
:1042C000B1002846FCF77BFD0D4C02212046FCF78F
:1042D00087FF0028F9D039462046FCF78AFF0121E4
:1042E0002046FCF77DFF0028F9D02046FCF77FFF31
:1042F00031462846BDE8F041FCF763BD00040240AA
:10430000003800402DE9F041124D07464FF4805629
:1043100031462846FCF753FDB1002846FCF751FD15
:104320000D4C02212046FCF75BFF0028F9D03946EE
:104330002046FCF75EFF01212046FCF751FF0028D4
:10434000F9D02046FCF753FF31462846BDE8F0413E
:10435000FCF737BD00040240003800401FB50121C2
:104360000820FCF7A5FE4FF47A7002905320134CFE
:10437000ADF8040001A92046FDF74CF901212046C3
:10438000FDF71BF8012211462046FDF7FEF801213A
:104390002046FDF715F800248DF801408DF8024005
:1043A00001208DF8030032208DF800006846FCF7EC
:1043B00035FE0348848044801FBD0000000C00408F
:1043C000DC00002070B50E460446314930480C31FF
:1043D00086B050F8240051F8241008430121FCF75E
:1043E0005BFE2B482B4D0C38ECB350F82400012118
:1043F000FCF75EFE072202212846FCF7C9FC0722D3
:1044000003212846FCF7C4FC2149214A02208DF8EB
:10441000140020391A3A31F8141032F814208DF8AB
:10442000150000258DF8165001208DF81700114356
:104430001948049104A950F82400FCF758FCADF881
:104440000450ADF80650ADF80850ADF80C50124DC0
:104450000C200C3D0096ADF80A0055F82400694682
:10446000FDF7A0F900E006E055F824000121FDF772
:1044700051F906B070BD00680121FCF73DFE07222E
:1044800009212846FCF784FC07220A21B9E700002D
:10449000C445000800000240FC00002038B5044676
:1044A00000214FF00060FCF7EBFD0C4810F8140001
:1044B0008DF8000001208DF801008DF802008DF8C4
:1044C00003006846FCF7AAFD0548012240F2255189
:1044D00050F82400FDF74EF938BD0000B045000843
:1044E000F000002010B5084A002318B1012804D0BC
:1044F000AFF300805160137001E091605370BDE82C
:104500001040FFF7CBBF0000E40000200FB430B52F
:10451000C1B0054646AA68464599FDF7A3F96C4621
:1045200003E02846641C00F007F821780029F8D140
:1045300041B030BC5DF814FB70B5084D0E46044622
:10454000402155F82400FDF7EFF80028F8D055F881
:1045500024003146BDE87040FDF77EB9F000002030
:1045600008060C06030708070807FF0005070000F8
:10457000050705070000000005070507000000000B
:1045800001070107050705070000000008070807E5
:1045900000000000000000000000000008060806FF
:1045A0000806FF00000204000000000408000000EC
:1045B000250026000000000010000000000002009E
:1045C00000000000010000000100000000000000E9
:1045D000010000000100000000000000FC45000890
:1045E00000000020A41100006C070008104D000816
:1045F000A4110020C48D000098180008412D01026C
:104600000304041506070809847A030A69140213CF
:10461000011AFF0181031846056A324A0111320C62
:1046200013CE11C22023D0072AE81435040140021A
:104630003204124022801408024012082A40102935
:104640001839141B0402241A200C695C19243B013C
:10465000080E139D151C080D1632697EA97F1410D3
:1046600001401A443769343904E925E1580B7E8149
:10467000A58181BD9981817E105809FFDBFFFFC3B1
:10468000E7FFFF10211B6CFE017C7C381065AB3806
:104690007C0F780A183C3CE7E7E718183C101A7EB4
:1046A0003D8910492362183AFF012BE7C3612901B4
:1046B000514E3C664242662F39155FC399BDBD9984
:1046C000C3201F1E0E1A3278CC0162781B3C660193
:1046D0001B3C1861611D3F333F30016470F0E01DE9
:1046E0007F637F63015D67E7E6C07D5F18DB3CE7C2
:1046F0003CDB30500C80C0E0F0F8FEF8F0E0C08009
:10470000780C02060E1E3EFE3E1E0E0602BF6D18FF
:1047100018187EB111296F1901190859602EDBDBB9
:10472000DB7B1B0151B00D7CC660386CC6C66C3893
:104730000CC67C1AFE01D950AA7E102901699F3946
:1047400001897119138C0CFE0C0E21C63060FE60BD
:10475000305CC0C0C05E51A6286CFE6C286E10385C
:10476000387C7C7F398C06177C7C3838102D183CBF
:104770003C3C8D599019EBE2241A6C5E390449AE29
:10478000680B7CC6C2C07C060686C67CC26009C2B5
:10479000C60C183060C686480B386C6C3876DCCC9A
:1047A000CCCC76BCD4303060192C39015B180CDDD0
:1047B0003B180C018A18E2AE663CFF3C66A36B18FE
:1047C0007E6C991499311189ED9921812B0206A0F3
:1047D0006BC080A05809C6C6D6D6C6C66C38281B82
:1047E00038784C1901627E4B7CC62F5AC65419107A
:1047F0005808063C060606C67CC01E1C3C6CCCFE57
:10480000B15A1E7B9DC0C0C0FC201B3860101AC668
:104810000159101AFE4049F46950191B9920290CBE
:104820001A7E40BB0C78BA99F1591069EF399F95FF
:1048300030180C0619BA59BD41391C292479601A5F
:104840000CDE895119115EDEDEDEDCC0802F1038EF
:104850006CC6C6FE91611EFC6666667C046366FCDF
:104860001C3C66C2E265C0C2663C2BF86C1D5D66EE
:10487000666CF8E0B80A6662687868606266FE1086
:104880009C6060F04066DEC6C6663A296A396F5998
:10489000701A3C9D390159602B1E0C0165CCCCCCA3
:1048A000781AE66B1B78787562E61AF05B19017965
:1048B000709EC6EEFEFED6508FC6E6F6FEDECE1029
:1048C00019EF490159F039E0294259A059207ED603
:1048D000DE7C0C0E2029E4597019207D60380C060E
:1048E00040BC7E7E5AB0695F6920590E8C6C3810CE
:1048F000106FD6D6D6FEEE6C106F6C7C38387C6CA0
:10490000A0196A9B663C50580AFEC6860C18306097
:10491000C2C6E05B3C3001592011580A80C0E070EB
:10492000381C0E0602205A0C0139205C10386C58D5
:10493000011332FF041130180C6008780C7CCCCCC9
:10494000CC762EE06060786C9559D0316E7CC6C014
:10495000C0C0E01A1C6A1A6C2F693039209AFE20F8
:104960002D36323078B092782A762F2DCC7C0CCC34
:104970001319602B6C766062E61318181A38FE5B08
:104980001818E01306063B0E06012B666613193055
:104990001C666C78935930492D8930311CECFED659
:1049A0000189F82ADC5F9B6666A0290189D049202D
:1049B000CD7C6060F0A05B0C1E207C7666601D39AB
:1049C000406C60380C402D103030FCDF93361C39C1
:1049D0003F93CC76396F9B6C3810199F8BFE6C100F
:1049E0008E6C3838386CB0393066C67E060CF8608C
:1049F00008FECC183060C6FE1A0EEB2A70F0620E6C
:104A000059FE190161291C29244B1870CC0211DCB4
:104A10001A106C6AC64F195E3A820189102BD6AA09
:104A2000028910AF868A8ADAF2B2206DDEFAF6BA0F
:104A30001022CC7C780C7CF0BC603018101A38F84E
:104A4000A9104138087CC6C0C0C0C67CA2198D1907
:104A5000102AFE1059FD292089102950B9201A6604
:104A60005439EF523CBC183C66102930A9104AC694
:104A7000EF1AFEF2598F2910290F3910130C1878EC
:104A800009FE66626878686266E1116008EC363695
:104A90007ED8D86E1E3E6CCCCCFEBF53CCCE49B077
:104AA0002901A9B0891049B08910143078CC293E69
:104AB0007CCCCC7620A9102940392F2EC67E060C3E
:104AC000780F493E69405AC61E6910500C18187C70
:104AD000C6C0C0C0C67C18181F386C6460F0600186
:104AE00063E6FC1E66663C187E0259201808F8CC66
:104AF000CCF8C4CCDE7039F0111B0E1B1A291E4BEA
:104B0000D870501330607C780C7C90140C18301ADC
:104B1000381F7C18183C20A9D02910B9C01376DCA6
:104B20003BDC6601590E1FC6E6F6FEDECE3161158E
:104B30003C6C6C3EA27E15386C6C38494C511B3075
:104B400030036B60C060511AFEE2B2C01BFE06016A
:104B5000611E60E062666C858EDC860C183E104D2E
:104B600066CE9A3F2319F829BD943C3C18B6366CA2
:104B7000D86C36190E636CD8CB114402CB55AA02FF
:104B8000CBDD7702195B091201DAF80E79104A368B
:104B9000015AF6086986BAFE10E9307BF60630E95C
:104BA00001493ED9207CF606FEEB49017910699057
:104BB000F1C9B0BC18181F30F41818FFEAFF3069AB
:104BC000096920E940D92E793059A0BA37C0D437C5
:104BD000303FCB3F30208AF760596EDAF7407930AA
:104BE000592079305940793059DEC920EB3636608A
:104BF00079C06912B9707B3636B069E0D199F06935
:104C0000D2D940795049901902C901F2F87950DAA5
:104C1000FF0169A06901DAF001DA0F01C93771609B
:104C20000876DCD8D8D8DC76600B78CCCCCCD8CC65
:104C3000C6C6C6CC4DFEC6C6C001913BFE6C01691E
:104C4000209009603018183060C6FE1A7E4F94D844
:104C5000D8703A66014C7C6060434B76DCCC592DB1
:104C60002B183C1E643C187E1D386CC6C6748CC65E
:104C70006C38102AC66F62EE3E1E30180C3E328928
:104C8000705CDBDBDB3E311B0306105BF37E6D11DA
:104C90001D1C3060607B7460301C1A7C50390179B7
:104CA000CF6903712C18187E9D695219707D060C0E
:104CB000183010190C19F26A0C104C0E1B1BCFC9BE
:104CC000017DD8D8D87051192C59EE512B76DC03C0
:104CD00069DF69E9C12980B910912B0F0C014DECF6
:104CE0006C6C3CD02B6C3601A16E3C660C1832AB60
:104CF000614A7E0101635008554E4B4E4F574E306E
:104D00000A53544152545A4F4E45F223021B050098
:040000050800018965
:00000001FF
