:020000040800F2
:10000000282C0020850200088D0200088F020008BD
:100010009102000893020008950200080000000009
:10002000000000000000000000000000970200082F
:1000300099020008000000009B0200089D020008D1
:100040009F0200089F0200089F0200089F0200080C
:100050009F0200089F0200089F0200089F020008FC
:100060009F0200089F0200089F0200089F020008EC
:100070009F0200089F0200089F0200089F020008DC
:100080009F0200089F0200089F0200089F020008CC
:100090009F0200089F0200089F0200089F020008BC
:1000A0009F0200089F0200089F0200089F020008AC
:1000B0001D2300089F0200089F0200089F020008FD
:1000C0009F0200089F0200089F0200089F0200088C
:1000D0009F020008195F00089F020008495F00089E
:1000E0009F0200089F0200089F02000800F002F82B
:1000F00000F0B0F80AA090E8000C82448344AAF112
:100100000107DA4501D100F0A5F8AFF2090EBAE80F
:100110000F0013F0010F18BFFB1A43F0010318473B
:10012000887F0000A87F00000A444FF0000C10F800
:10013000013B13F0070408BF10F8014B1D1108BF65
:1001400010F8015B641E05D010F8016B641E01F805
:10015000016BF9D113F0080F1EBF10F8014BAD1C55
:100160000C1B09D16D1E58BF01F801CBFAD505E073
:1001700014F8016B01F8016B6D1EF9D59142D6D3CD
:10018000704700000023002400250026103A28BFF5
:1001900078C1FBD8520728BF30C148BF0B607047F9
:1001A0006E2906F0C782702906F00984662907F0D7
:1001B000DB86652907F0D886672907F0D58661298F
:1001C00007F0D48603681B0A28BF41F08001692923
:1001D00006F07482642906F07182752906F06E8239
:1001E0006F2906F09783782906F0D583E92906F070
:1001F0003183E42906F02E83F52906F02B83EF29BD
:1002000006F09483F82906F0D4830368DB0928BF3D
:1002100041F08001632907F0F780732907F0FC8023
:10022000E32907F00781F32907F00C8100207047CC
:100230001FB507F061F904000020002107F07EFEE1
:10024000401C60600020002107F062FEE0601FBDDE
:1002500010B510BD07F022F91146FFF7E9FF05F0D0
:1002600049FF07F0FBF903B4FFF7F2FF03BC06F008
:1002700091FC00004FF07300A0F101000028FBD1B9
:10028000704700000948804709480047FEE7FEE73D
:10029000FEE7FEE7FEE7FEE7FEE7FEE7FEE7FEE736
:1002A00004480549054A064B70470000B320000882
:1002B000ED00000828260020282C002028280020F7
:1002C0002828002031490143314A1160704770B538
:1002D000002100230F22C47804B32D4C246804F4B9
:1002E000E064C4F5E064210AC1F10403CA40447823
:1002F00004FA03F18478144021430901254C06785F
:10030000A155047804F01F050124AC4005786D1157
:10031000AD0005F1E025C5F8004109E0047804F0DE
:100320001F050124AC401C4D0678761145F8264087
:1003300070BD1A4A0A400243154B1B1F1A607047D2
:1003400039B1134A121D12680243114B1B1D1A606A
:1003500006E00F4A121D126882430D4B1B1D1A60E6
:100360007047042808D14FF0E021096941F00401E9
:100370004FF0E022116107E04FF0E021096921F020
:1003800004014FF0E0221161704700000000FA05FF
:100390000CED00E000E400E080E100E080FFFF1FE2
:1003A00010B50446CC48844208D10121042000F055
:1003B0002DFB0021042000F029FB46E0C7488442C1
:1003C00008D10121082000F021FB0021082000F0C5
:1003D0001DFB3AE0C248844208D10121102000F000
:1003E00015FB0021102000F011FB2EE0BD488442D7
:1003F00008D10121202000F009FB0021202000F07D
:1004000005FB22E0B848844208D10121402000F0D9
:10041000FDFA0021402000F0F9FA16E0B3488442CA
:1004200008D10121802000F0F1FA0021802000F0A5
:10043000EDFA0AE0AE48844207D10121801500F0B0
:10044000E5FA0021A01500F0E1FA10BD10B5012178
:10045000084600F0DBFA0021012000F0D7FA10BDB9
:100460002DE9F0410246002500260020002300244B
:10047000002791F803C00CF00F0591F803C00CF0B1
:10048000100CBCF1000F03D091F802C04CEA050536
:1004900091F800C0BCF1000F31D0146800202BE0AF
:1004A0004FF0010C0CFA00F3B1F800C00CEA03069F
:1004B0009E4220D183004FF00F0C0CFA03F7BC438F
:1004C00005FA03FC4CEA040491F803C0BCF1280FC0
:1004D00006D14FF0010C0CFA00FCC2F814C00AE07F
:1004E00091F803C0BCF1480F05D14FF0010C0CFA94
:1004F00000FCC2F810C0401C0828D1D31460B1F829
:1005000000C0BCF1FF0F34DD546800202EE000F184
:10051000080C4FF0010808FA0CF3B1F800C00CEA1F
:1005200003069E4221D183004FF00F0C0CFA03F713
:10053000BC4305FA03FC4CEA040491F803C0BCF187
:10054000280F05D100F1080C08FA0CF8C2F8148045
:1005500091F803C0BCF1480F07D100F1080C4FF02F
:10056000010808FA0CF8C2F81080401C0828CED305
:100570005460BDE8F0814FF6FF7101800221817067
:100580000421C17070470246002093680B400BB1F4
:10059000012000E0002070470146886880B2704763
:1005A00002460020D3680B400BB1012000E0002080
:1005B00070470146C86880B2704701617047416169
:1005C00070470AB1016100E041617047C160704746
:1005D0004FF480320A43826181618261826982695B
:1005E000704702460020434B18684FF6807318404E
:1005F00040EA021008433F4B186070473E49C8610B
:100600007047F0B50A46002300240021002500F0C1
:100610000046B6F1004F02D1364EF16901E0354E89
:100620007168C0F3034583B200F44016B6F5401F6D
:1006300008D121F070612F4E766826F070662D4F3C
:100640007E6012E000F48016B6F5801F06D1032606
:1006500006FA05F4A14341F0706106E0460D36014B
:1006600003FA06F6B14341F0706122B1460D36013E
:1006700003FA06F6314300F00046B6F1004F02D10E
:100680001C4EF16101E01B4E7160F0BD30B50022DF
:100690008B071C0F0F2303FA04F2164B08338C1040
:1006A00053F824309343134C08348D1044F825300C
:1006B00023468C1053F824308C07240F00FA04F4DE
:1006C00023430C4C08348D1044F8253030BD0A49C2
:1006D000DC3108607047000000080140000C014058
:1006E000001001400014014000180140001C0140AE
:1006F000002001400000014000002042DF48006867
:1007000040F00100DD49086008464068DC490840C7
:10071000DA49486008460068DA490840D749086065
:100720000846006820F4802008600846406820F4ED
:10073000FE0048604FF41F0088607047CF49096889
:1007400021F48031CD4A11601146096821F48021DD
:100750001160B0F5803F03D0B0F5802F0ED106E0D8
:10076000C649096841F48031C44A116007E0C349B1
:10077000096841F4A021C14A116000E000BF00BF38
:10078000704710B501460022002300204A11012ABB
:1007900002D1BA4C236806E0022A02D1B74C236A80
:1007A00001E0B64C636A01F01F02012494401C4032
:1007B0000CB1012000E0002010BD38B500200090F1
:1007C0000024002500BF3120FFF7DBFF054600981D
:1007D000401C00900098B0F5A06F01D0002DF2D021
:1007E0003120FFF7CEFF08B1012400E000242046AD
:1007F00038BD01460020A14A106820F0F80040EA08
:10080000C10010607047A049086070470246002090
:100810009A4B586820F47C1042EA01031843974B26
:100820005860704798490866704701460020934A0F
:10083000506820F003000843506070478F484068BC
:1008400000F00C007047014600208C4A506820F0F0
:10085000F00008435060704701460020874A506806
:1008600020F4E06008435060704701460020834A4E
:10087000506820F4605040EAC1005060704729B1D0
:100880007E4A527A02437D4B5A7204E07B4A527A86
:1008900082437A4B5A7270477B49D831086070475F
:1008A00001460020754A506820F4404008435060DB
:1008B00070470021714A20321170704A82F820106E
:1008C000012802D004280AD104E001216B4A203219
:1008D000117005E00521694A2032117000E000BF67
:1008E00000BF70476949086070476449096A01435D
:1008F000624A11627047654944390860704730B5F3
:1009000000210022002400235C4D6D6805F00C01DD
:1009100021B1042905D0082923D105E05C4D0560EB
:1009200022E05B4D05601FE0544D6D6805F47012C8
:10093000524D6D6805F48034022505EB92421CB9D6
:10094000544D554305600BE04C4D6D6805F4003582
:100950001DB1504D5543056002E04D4D55430560B6
:1009600002E04B4D056000BF00BF444D6D6805F0CF
:10097000F0010909484D6B5C0568DD4045603F4D5D
:100980006D6805F4E061090A434D6B5C4568DD4024
:1009900085603A4D6D6805F46051C90A3E4D6B5C47
:1009A0004568DD40C560354D6D6805F44041890BF3
:1009B0003A4D6B5CC568B5FBF3F5056130BD29B1F7
:1009C0002E4A526902432D4B5A6104E02B4A526968
:1009D00082432A4B5A61704729B1284A92690243DF
:1009E000264B9A6104E0254A92698243234B9A611F
:1009F000704729B1214AD2690243204BDA6104E0F1
:100A00001E4AD26982431D4BDA61704729B11B4AE5
:100A1000D2680243194BDA6004E0184AD268824374
:100A2000164BDA60704729B1144A12690243134B1E
:100A30001A6104E0114A12698243104B1A6170472F
:100A400012494039086070470F49C86470470B4924
:100A5000C87170470948406A40F080700749486291
:100A6000704701460020054A92680A400AB10120F9
:100A700000E0002070470149887270470010024072
:100A80000000FFF8FFFFF6FE0000424280044242F1
:100A900000127A0000093D00000000201000002034
:100AA00010B50446BE48844208D101218014FFF7E6
:100AB000ADFF0021A014FFF7A9FF16E0B94884425A
:100AC00008D101210014FFF7AEFF00212014FFF729
:100AD000AAFF0AE0B448844207D10121C013FFF7FE
:100AE000A2FF0021E013FFF79EFF10BD10B500220A
:100AF000028802F441520B884C8823438C8823439C
:100B0000CC8823430C8923434C8923438C8923437A
:100B1000CC8923431A430280838B4FF2FF74234016
:100B200083830B8A038210BD2DE9F04F85B0054603
:100B30000C464FF0000902274FF000084FF0010B60
:100B40000026B246A88B4FF240010840A88302203D
:100B50002884B5F81C90A068022801D100BF38E0B5
:100B6000A08810B94FF0010B01E04FF0020B8D4847
:100B7000854200D100E000BF6846FFF7C0FEDDF807
:100B800000A0E088B0F5007F0AD14FEA1A2000EB00
:100B900080004000A168B0FBF1F0401D86B20BE080
:100BA0004FEA4B10BAFBF0F000EB80004000A16868
:100BB000B0FBF1F0401D86B20A20B6FBF0F606F05D
:100BC0000108A6EB0800C0F34F074FF6FF7000EADC
:100BD0000828022F01DBFF2F02DD02274FF000085B
:100BE000E08840EA080038432884A088A1890843A7
:100BF000618808432188084340F4006040EA0909FD
:100C0000A5F81C9005B0BDE8F08F0021018041805F
:100C10008180C180018141818181C181072101825F
:100C200070470021018041808180C1800221816064
:100C300000218181704721B1028842F04002028088
:100C400004E002884FF6BF731A400280704721B15A
:100C5000828B42F48062828304E0828B4FF6FF3302
:100C60001A408283704730B5002400230C110125FF
:100C7000A540ABB21AB185881D43858002E0858806
:100C80009D43858030BD1AB183880B43838002E089
:100C900083888B43838070478181704701468889B0
:100CA00070474FF6FF62914204D0028842F480728E
:100CB000028004E002884FF6FF631A40028070470A
:100CC00021B1828842F00402828004E082884FF6DB
:100CD000FB731A408280704702884FF2FF731A40FC
:100CE000028002880A4302807047018841F48051E3
:100CF0000180704721B1028842F40052028004E072
:100D000002884DF6FF731A400280704702460020A9
:100D1000012901D0108B00E0908A70470146088AB3
:100D20007047B1F5804F04D1028842F480420280BE
:100D300004E002884BF6FF731A40028070470246B7
:100D4000002013890B400BB1012000E00020704708
:100D5000CA4302817047F0B50246002000240023F8
:100D6000002501F00F070126BE40B4B20B11012689
:100D70009E40B3B2968806EA03051689264016B14E
:100D80000DB1012000E00020F0BD10B5002201F0FF
:100D90000F040123A3409AB2D343038110BD000086
:100DA0000030014000380040003C004010B50446CF
:100DB000FE48844208D10121C014FFF727FE00211C
:100DC000E014FFF723FEC4E0B4F1804F08D1012105
:100DD0000846FFF728FE00210120FFF724FEB8E0B7
:100DE000F348844208D101210220FFF71CFE0021B4
:100DF0000220FFF718FEACE0EE48844208D1012142
:100E00000420FFF710FE00210420FFF70CFEA0E0F5
:100E1000E948844208D101210820FFF704FE00219F
:100E20000820FFF700FE94E0E448844208D1012145
:100E30001020FFF7F8FD00211020FFF7F4FD88E0F7
:100E4000DF48844208D101212020FFF7ECFD00217A
:100E50002020FFF7E8FD7CE0DA48844208D1012138
:100E60004014FFF7D3FD00216014FFF7CFFD70E0C1
:100E7000D548844209D10121C804FFF7C7FD0021EC
:100E80004FF40020FFF7C2FD63E0D048844209D14F
:100E900001210805FFF7BAFD00214FF48010FFF78C
:100EA000B5FD56E0CA48844209D101214805FFF743
:100EB000ADFD00214FF40010FFF7A8FD49E0C54843
:100EC000844208D101214020FFF7ADFD00214020E0
:100ED000FFF7A9FD3DE0C048844208D101218020F0
:100EE000FFF7A1FD00218020FFF79DFD31E0BB4809
:100EF000844208D101218015FFF795FD0021A0153E
:100F0000FFF791FD25E0B648844209D1012108048C
:100F1000FFF77CFD00214FF48030FFF777FD18E0EC
:100F2000B048844209D101214804FFF76FFD002138
:100F30004FF40030FFF76AFD0BE0AB48844208D164
:100F400001218804FFF762FD00214FF48020FFF7A4
:100F50005DFD10BD00220288944B98420ED0994B43
:100F600098420BD0B0F1804F08D0914B984205D0F9
:100F7000904B984202D0904B984204D14FF68F7319
:100F80001A404B881A438D4B984207D08C4B98429D
:100F900004D04FF6FF431A40CB881A4302808B8857
:100FA00083850B880385814B98420BD0854B9842F3
:100FB00008D08B4B984205D08A4B984202D08A4B7E
:100FC000984201D10B7A038601238382704770B562
:100FD000002400220023058C4FF6FE763540058460
:100FE000028C8388048B4FF68F752C40B51E2C40E5
:100FF0000D882C43751E2A400D892A434D882A43AB
:101000006A4DA8420BD06F4DA84208D0744DA8423B
:1010100005D0744DA84202D0734DA84213D14FF6AB
:10102000F7752A404D892A434FF6FB752A408D8873
:101030002A434FF6FF652B404FF6FF552B408D8915
:101040002B43CD892B4383800483CD8885860284FE
:1010500070BD70B5002400220023058C4FF6EF769A
:1010600035400584028C8388048B48F6FF752C403C
:101070004FF6FF452C400D884FF6FF7606EA052512
:101080002C434FF6DF752A400D8906EA05152A43E1
:101090004D8806EA05152A43444DA84202D0494D21
:1010A000A8421DD14FF67F752A404D894FF6FF7635
:1010B00006EA05152A434FF6BF752A408D8806EAD1
:1010C00005152A434FF6FF352B404FF2FF752B4095
:1010D0008D8906EA85052B43CD8906EA85052B43D4
:1010E00083800483CD880587028470BD70B5002499
:1010F00000220023058C4FF6FF6635400584028CE4
:101100008388848B4FF68F752C404FF6FC752C40EE
:101110000D882C434FF6FF552A400D894FF6FF7678
:1011200006EA05252A434D8806EA05252A431F4D70
:10113000A84202D0234DA8421DD14FF2FF752A408C
:101140004D894FF6FF7606EA05252A434FF6FF350F
:101150002A408D8806EA05252A434EF6FF752B4066
:101160004DF6FF752B408D8906EA05152B43CD8979
:1011700006EA05152B4383808483CD888587028406
:1011800070BD70B5002200230024058C4EF6FF765A
:1011900035400584038C8488828B48F6FF752A408D
:1011A0004FF6FF452A400D8820E00000002C01404A
:1011B0000004004000080040000C00400010004007
:1011C0000014004000340140004C01400050014038
:1011D0000054014000180040001C00400020004066
:1011E0000040014000440140004801404FF6FF76B6
:1011F00006EA05252A434DF6FF752B400D8906EAC0
:1012000005352B434D8806EA05352B43FA4DA84298
:1012100002D0FA4DA84208D14BF6FF752C408D89BB
:101220004FF6FF7606EA85152C4384808283CD88AD
:10123000A0F84050038470BD828B4FF2FF331A40F8
:101240008283828B4FF6FF7303EA01231A43828362
:101250007047F0B50C461546002200210026078C89
:101260004EF6FF7C07EA0C070784828B018C4FF651
:10127000FF7707EA043640F6FF473A404FF6FF771C
:1012800007EA05273A434FF6FF7707EA03373A4361
:10129000D94FB8420ED0D94FB8420BD0B0F1804FE1
:1012A00008D0D74FB84205D0D64FB84202D0D64F5B
:1012B000B84206D14DF6FF77394046F4805739439E
:1012C00005E047F6FF57394044F48057394382839D
:1012D0000184F0BD828B4FF6F3731A408283828BB8
:1012E0000A4382837047F0B50C4615460022002160
:1012F0000026078C4FF6FF6C07EA0C070784828BE9
:10130000018C4FF6FF7707EA04264FF60C773A4038
:101310004FF6FF7707EA03172F433A43B64FB84219
:101320000ED0B64FB8420BD0B0F1804F08D0B44FBA
:10133000B84205D0B34FB84202D0B34FB84206D13D
:101340004FF6FF57394046F48077394305E04FF2B6
:10135000FF57394044F48077394382830184F0BDDC
:10136000028B4FF2FF331A400283028B4FF6FF735A
:1013700003EA01231A4302837047F0B50C46154671
:10138000002200210026078C4FF6EF7C07EA0C07AD
:101390000784028B018C4FF6FF7707EA041640F6AC
:1013A000FF473A404FF6FF7707EA03373A434FF6D5
:1013B000FF7707EA05273A438F4FB8420ED08F4F89
:1013C000B8420BD0B0F1804F08D08D4FB84205D055
:1013D0008C4FB84202D08C4FB84206D14FF6DF771F
:1013E000394046F01007394305E04FF65F77394042
:1013F00044F01007394302830184F0BD028B4FF69D
:10140000F3731A400283028B0A4302837047F0B5DC
:101410000C46154600220021068C4FF6FE773E4012
:101420000684028B018C4FF60C7632407E1C06EA55
:1014300003162E433243704EB0420ED06F4EB04270
:101440000BD0B0F1804F08D06D4EB04205D06D4E3C
:10145000B04202D06C4EB04206D14FF6FD7631401C
:1014600044F00106314305E04FF6F576314044F093
:101470000106314302830184F0BD70B505460C4678
:101480005D4885420ED05D4885420BD0B5F1804F56
:1014900008D05B48854205D05A48854202D05A4858
:1014A000854200D100E000BF208850B92389A2887E
:1014B00061882846FFF7ABFFE1882846FFF79EFFCB
:1014C00025E0208804280AD12389A288618828463B
:1014D000FFF753FFE1882846FFF742FF17E0208817
:1014E00008280AD12389A28861882846FFF7FBFED5
:1014F000E1882846FFF7EEFE09E02389A28861888B
:101500002846FFF7A6FEE1882846FFF795FE70BD46
:101510002DE9F04105460C4600260127608808B9F0
:10152000022600E00026A088012801D1022700E061
:1015300001272088A0B92389A28861882846FFF75F
:1015400066FFE1882846FFF759FF23893A4631466E
:101550002846FFF712FFE1882846FFF701FF13E056
:101560002389A28861882846FFF707FFE18828467B
:10157000FFF7F6FE23893A4631462846FFF747FF34
:10158000E1882846FFF73AFFBDE8F0810A884B88DA
:101590001A438B881A43CB881A430B891A434B8909
:1015A0001A438B891A43A0F8442070474FF6FF7105
:1015B000818000210180C18041800172704700213B
:1015C000018041808180C180018141818181C1810F
:1015D0007047002101804180012181800021C1806C
:1015E000018170470021018041808180C18001819B
:1015F0004181818170470000002C0140003401408E
:101600000004004000080040000C004021B10288A6
:1016100042F00102028004E002884FF6FE731A4095
:101620000280704731B1B0F8442042F40042A0F883
:10163000442005E0B0F84420C2F30E02A0F8442094
:1016400070471AB183890B43838102E083898B43FE
:10165000838170478182704741EA0203A0F84830D5
:1016600070471AB183890B43838102E083898B43DE
:101670008381704701894FF6F872114001817047EC
:101680000A46002101894FF68F73194011430181E9
:10169000704730B504460D4629462046FFF7F0FF57
:1016A000208940F00700208130BD2DE9F04104463B
:1016B0000D4616461F46602D06D13B460122314697
:1016C0002046FFF75AFE05E03B4601223146204600
:1016D000FFF79DFE29462046FFF7D2FF208940F004
:1016E00007002081BDE8F08130B50C46002101895A
:1016F000C9B24FF6FF7505EA032515432543294373
:10170000018130BD2DE9F04105460E461746984649
:10171000002443463A4631462846FFF7E5FF2C8928
:101720004FF6F870044044F007044FF68F70044001
:1017300044F070042C81BDE8F081F0B504460D46FC
:1017400016461F463B46324629462046FFF7CCFF49
:10175000208940F480402081F0BD0185828270475D
:101760000A46002101884FF68F731940114301800A
:101770007047F0B50C4615461E4600210022002396
:101780000189028B038C4FF6F877394021434FF6DD
:10179000FC473A4040F201173A434FF6DD773B40B1
:1017A0004FF6FF7707EA06172F433B430181028379
:1017B0000384F0BD0A460021018B4FF68F73194058
:1017C0001143018370470A460021018B48F6FF73DD
:1017D00019404FF6FF7303EA022319430183704750
:1017E0000A460021818B4FF68F7319401143818384
:1017F00070470A460021818B48F6FF7319404FF667
:10180000FF7303EA022319438183704721B10288E1
:1018100042F08002028004E002884FF67F731A4093
:101820000280704721B1828842F00402828004E085
:1018300082884FF6FB731A408280704721B18288FC
:1018400042F00802828004E082884FF6F7731A4063
:101850008280704721B1828842F00102828004E0D8
:1018600082884FF6FE731A40828070470A46002134
:10187000018B4FF6F77319401143018370470A46F5
:101880000021018B4FF2FF7319404FF6FF7303EAFB
:1018900002231943018370470A460021818B4FF6CA
:1018A000F77319401143818370470A460021818BE9
:1018B0004FF2FF7319404FF6FF7303EA02231943F7
:1018C000818370470A460021018B4FF6FB73194054
:1018D0001143018370470A460021018B4FF6FF3305
:1018E00019404FF6FF7303EA02231943018370473F
:1018F0000A460021818B4FF6FB7319401143818307
:1019000070470A460021818B4FF6FF3319404FF68E
:10191000FF7303EA02231943818370470A460021BB
:10192000018B4FF67F7319401143018370470A46BC
:101930000021018BC1F30E014FF6FF7303EA02236E
:101940001943018370470A460021818B4FF67F734C
:1019500019401143818370470A460021818BC1F3EE
:101960000E014FF6FF7303EA022319438183704788
:101970000A460021018C4FF6FD7319401143018482
:1019800070470A460021018C4FF6F7731940114346
:10199000018470470A460021018C4FF6DF7319401D
:1019A0004FF6FF7303EA02131943018470470A4696
:1019B0000021018C4FF67F7319404FF6FF7303EA45
:1019C00002131943018470470A460021018C4FF627
:1019D000FF5319404FF6FF7303EA022319430184B2
:1019E00070470A460021018C4FF2FF7319404FF6F1
:1019F000FF7303EA02231943018470470A4600215A
:101A0000018C4DF6FF7319404FF6FF7303EA023362
:101A100019430184704730B5002301248C40A3B2E0
:101A2000048C9C430484048C02FA01F5ADB22C436F
:101A3000048430BD30B5002304248C40A3B2048C50
:101A40009C430484048C02FA01F5ADB22C43048457
:101A500030BD70B50346002000241846183001251B
:101A60008D40ACB21D8CA5431D8409B1082909D154
:101A700000EB6100056825F07005056005681543F9
:101A800005600EE00D1FC5F34E052844056825F4DA
:101A9000E045056005684FF6FF7606EA0226354305
:101AA000056070BD21B1028842F00202028004E0AC
:101AB00002884FF6FD731A400280704721B10288F8
:101AC00042F00402028004E002884FF6FB731A40E1
:101AD0000280704721B1828842F08002828004E057
:101AE00082884FF67F731A408280704702884FF6D3
:101AF000F7731A40028002880A4302807047828886
:101B00004FF68F731A40828082880A438280704722
:101B100002894FF6F8731A40028102890A43028152
:101B2000704702894FF67F731A40028102890A4387
:101B30000281704781847047818570478186704734
:101B40000187704781877047A0F84010704702886E
:101B50004FF6FF431A40028002880A430280704712
:101B60000146888E70470146088F70470146888F6E
:101B700070470146B1F8400070470146888C7047B5
:101B80000146088D704702460020138A0B400BB1B6
:101B9000012000E000207047CA430282704730B540
:101BA0000246002000230024158A05EA01039589D6
:101BB00005EA010413B10CB1012000E0002030BDA2
:101BC000CA4302827047000010B50446FC488442B4
:101BD00009D101218803FEF719FF00214FF480404D
:101BE000FEF714FF32E0F748844209D1012148048E
:101BF000FEF719FF00214FF40030FEF714FF25E037
:101C0000F148844209D101218804FEF70CFF00212C
:101C10004FF48020FEF707FF18E0EC48844209D11A
:101C20000121C804FEF7FFFE00214FF40020FEF75B
:101C3000FAFE0BE0E648844208D101210805FEF7D0
:101C4000F2FE00214FF48010FEF7EDFE10BD2DE9ED
:101C5000F04786B005460E460024A24600BFA146C6
:101C60000027B08900B100BF2F462C8A4CF6FF70C8
:101C70000440F08804432C82AC894EF6F3100440F3
:101C8000B08831890843718908430443AC81AC8A28
:101C90004FF6FF400440B0890443AC8201A8FEF730
:101CA0002EFEC748874202D1DDF810A001E0DDF822
:101CB0000CA0A88900F4004040B10AEBCA0000EB78
:101CC0000A1031684900B0FBF1F807E00AEBCA00DE
:101CD00000EB0A1031688900B0FBF1F86420B8FB12
:101CE000F0F004012009642101FB1089A88900F4A7
:101CF000004040B1322000EBC900B0FBF1F000F031
:101D00000700044308E0322000EB09106421B0FB17
:101D1000F1F000F00F0004432C8106B0BDE8F0871D
:101D20004FF4E131016000218180C1804FF4806176
:101D300001810C21418100218181704710B502464B
:101D40000020108A4FF2FF0318400B884C88234371
:101D50008C882343CC8823431843108210BD002174
:101D6000018041808180C180704721B1828942F425
:101D70000052828104E082894DF6FF731A4082810D
:101D80007047F0B50346002400260025002040F6E9
:101D90006A17B94200D100BF1846C1F3421401F0DE
:101DA0001F06012707FA06F5012C01D10C3004E0CB
:101DB000022C01D1103000E014301AB107682F4313
:101DC000076002E00768AF430760F0BD1AB1838A7D
:101DD0000B43838202E0838A8B4383827047028AAB
:101DE0004FF6F0731A400282028A0A430282704759
:101DF00082894FF2FF731A40828182890A4382816D
:101E0000704721B1828942F00202828104E0828916
:101E10004FF6FD731A4082817047028A4FF6DF73D6
:101E20001A400282028A0A430282704721B1028A62
:101E300042F48042028204E0028A4BF6FF731A40A9
:101E400002827047C1F30802828070470146888889
:101E5000C0F308007047818941F00101818170471A
:101E6000028BD2B20283028B42EA012202837047C4
:101E7000028B02F47F420283028B0A430283704783
:101E800021B1828A42F02002828204E0828A4FF6E7
:101E9000DF731A408282704721B1828A42F01002B9
:101EA000828204E0828A4FF6EF731A408282704782
:101EB00021B1828A42F00802828204E0828A4FF6CF
:101EC000F7731A408282704721B1828942F400423E
:101ED000828103E08289C2F30E028281704721B1C0
:101EE000828A42F40062828204E0828A4FF2FF73A7
:101EF0001A4082827047828A4FF6FB731A408282B0
:101F0000828A0A438282704721B1828A42F00202A9
:101F1000828204E0828A4FF6FD731A408282704703
:101F200002460020B1F5007F00D100BF13880B40AE
:101F30000BB1012000E00020704701F40072B2F5FF
:101F4000007F00D100BFCA430280704770B50246CF
:101F5000002400230025002040F66A16B14200D17B
:101F600000BFC1F3421501F01F03012606FA03F377
:101F7000012D02D19689334006E0022D02D1168A46
:101F8000334001E0968A33400C12012606FA04F42D
:101F90001688344013B10CB1012000E0002070BD60
:101FA00010B50022002340F66A14A14200D100BF00
:101FB0000A1201249440A3B2DC43048010BD000047
:101FC000003801400044004000480040004C004000
:101FD000005000400CB50020019000906C48006853
:101FE00040F480306A49086000BF6948006800F426
:101FF000003000900198401C0190009818B9019899
:10200000B0F5A06FF1D16248006800F4003010B163
:102010000120009001E0002000900098012843D1A9
:102020005C48006840F010005A49086008460068A3
:1020300020F0030008600846006840F002000860D5
:10204000534840685249486008464068486008461E
:10205000406840F4806048600846406820F47C1086
:1020600048600846406840F4E81048600846006848
:1020700040F08070086000BF4548006800F00070C4
:102080000028F9D04248406820F0030040494860E9
:102090000846406840F00200486000BF3C48406885
:1020A00000F00C000828F9D10CBD10B5FFF792FF25
:1020B00010BD10B53648006840F001003449086092
:1020C000084640683449084031494860084600687D
:1020D000324908402E4908600846006820F48020F4
:1020E00008600846406820F4FE0048604FF41F0076
:1020F0008860FFF7DAFF4FF000602949086010BDE3
:1021000010B5002100200022214B5B6803F00C0178
:1021100021B1042906D0082928D107E0214B224CFF
:10212000236027E01F4B204C236023E0184B5B68A3
:1021300003F47010164B5B6803F48032022303EB48
:10214000904022B9194B4343174C23600DE0104BCC
:102150005B6803F4003323B1144B4343124C2360F8
:1021600003E0104B4343104C236003E00D4B0E4C37
:10217000236000BF00BF064B5B68C3F303130C4C26
:10218000E15C094B1B68CB40074C236010BD00008D
:1021900000100240002002400000FFF8FFFFF6FEA2
:1021A00008ED00E000127A001400002000093D0054
:1021B0001800002008B501210D20FEF70DFC0121BB
:1021C0002748FEF71EFA03208DF8020010208DF834
:1021D00003001820ADF8000069462248FEF740F9D8
:1021E0004FF40040ADF8000069461F48FEF738F98B
:1021F0004FF400411C48FEF7E2F908211948FEF7A8
:10220000DEF910211748FEF7DAF908BD70B504466B
:102210000D461648007838B929462046FEF7CFF912
:102220000120124908700AE010480078012806D100
:1022300029462046FEF7C1F900200C49087070BD00
:1022400070B504460D4629462046FEF7B8F970BD24
:1022500070B504460D4629462046FEF7AEF970BD1E
:1022600000023000000C014000080140280000205E
:10227000AB4800687047AA4800687047A8480068E3
:10228000322148434FF47A71B0FBF1F080B27047CD
:10229000A3480068322148434FF47A71B0FBF1F053
:1022A000B0FBF1F080B270479D480068322148438E
:1022B00070471FB501210846FEF79BFB3220ADF8A1
:1022C0000400984800689849B0FBF1F0401E80B2C5
:1022D000ADF8000069464FF08040FEF73BFE01215B
:1022E0008807FFF76DFC012211469007FFF7A9F957
:1022F00001218807FFF78AF900208DF80D008DF87D
:102300000E0001208DF80F001C208DF80C0003A892
:10231000FDF7DDFF0020824908601FBD10B50121D7
:102320008807FFF73CFC002865D001218807FFF7EC
:1023300033FC7B480068401C794908607B48007882
:1023400001284ED1084600681421B0FBF1F201FBD0
:102350001200002845D176480088401E7449088044
:1023600003F078FC7248008800283ADC7148008845
:10237000401C7049088070480068098810F82100E6
:1023800010B903F0E1FB20E06B4800686949098857
:1023900000EB810090F90000401C18B9002063494F
:1023A000087012E0644800686249098800EB810007
:1023B0004378614800685F49098800EB810090F923
:1023C00000206421012003F09CFC5B48006859490F
:1023D000098800EB810040885549088064205749EE
:1023E0000880564801880088401E544A1080002901
:1023F00001DA03F0A9FB10BD10B5044601204B49DA
:10240000087000204B4908800846008804EB8000D3
:1024100090F9000081B2012003F02FFC608844494C
:10242000088044480088401C4249088042480460B3
:1024300010BD70B5044642480078F0B9012040490B
:10244000087004EBC4004FF0E0214861002088616F
:102450000120086100BF4FF0E020056905F0010090
:1024600018B105F480300028F5D000204FF0E021AD
:10247000086188613249087009E00A20B4FBF0F471
:1024800001E0FDF7F7FE201EA4F10104F9D170BDB3
:1024900010B5002400BF03E0FDF7ECFE601CC4B2E1
:1024A000642CF9DB10BD70B504462548007868BB84
:1024B00001202349087023E0B4F57A7F02DD4FF450
:1024C0007A7000E02046064642F2283070434FF012
:1024D000E0214861002088610120086100BF4FF0C1
:1024E000E020056905F0010018B105F480300028EE
:1024F000F5D000204FF0E02108618861A01B84B274
:10250000002CD9D100200E49087007E001E0FFF748
:10251000BFFF201EA4F101018CB2F8D170BD0000F4
:102520002C0000201400002040420F00300000204A
:102530003200002034000020380000203600002047
:1025400040000020F8490870704700B587B00121AD
:102550000420FEF741FA01210846FEF73DFA012169
:102560000803FEF739FA0121F048FEF74AF8042083
:10257000ADF8040010208DF8070001208DF806004A
:1025800001A9EB48FDF76CFF0820ADF8040010200E
:102590008DF8070001208DF8060001A9E448FDF739
:1025A0005FFFE020ADF8040018208DF8070003203D
:1025B0008DF8060001A9DE48FDF752FF1020ADF8A6
:1025C00004008DF8070003208DF8060001A9D84803
:1025D000FDF746FF0020ADF808004FF48270ADF81B
:1025E0000A000020ADF80C000220ADF80E0001201A
:1025F000ADF810004002ADF812000820ADF814004C
:102600000020ADF8160002A9CA48FEF76FFA0121B2
:10261000C848FEF710FB0021C648FEF76BFB0021FF
:10262000C448FEF74DFB07B000BD10B504461021AD
:10263000BF48FDF7C4FF0821BD48FDF7C0FF00BF3C
:102640000221BC48FEF77BFB0028F9D02146B9489F
:10265000FEF722FB00BF0121B648FEF770FB002801
:10266000F9D0B448FEF71AFB1021B148FDF7A5FFD9
:1026700010BD10B504461021AD48FDF7A0FF08219C
:10268000AB48FDF79AFF00BF0221AA48FEF757FBAF
:102690000028F9D02146A748FEF7FEFA00BF012125
:1026A000A448FEF74CFB0028F9D0A248FEF7F6FA42
:1026B00010219F48FDF781FF10BD10B50120FFF7E5
:1026C000B4FF1120FFF7B1FFB120FFF7AEFF0120EB
:1026D000FFF7CFFF2C20FFF7CCFF2D20FFF7C9FF1E
:1026E000B220FFF7A2FF0120FFF7C3FF2C20FFF766
:1026F000C0FF2D20FFF7BDFFB320FFF796FF01209D
:10270000FFF7B7FF2C20FFF7B4FF2D20FFF7B1FF35
:102710000120FFF7AEFF2C20FFF7ABFF2D20FFF7C6
:10272000A8FFB420FFF781FF0720FFF7A2FFC0201A
:10273000FFF77BFFA220FFF79CFF0220FFF799FF26
:102740008420FFF796FFC120FFF76FFFC520FFF73A
:1027500090FFC220FFF769FF0A20FFF78AFF0020E1
:10276000FFF787FFC320FFF760FF8A20FFF781FF95
:102770002A20FFF77EFFC420FFF757FF8A20FFF7CC
:1027800078FFEE20FFF775FFC520FFF74EFF0E2004
:10279000FFF76FFF3620FFF748FFC820FFF769FFFC
:1027A000E020FFF742FF0220FFF763FF1C20FFF746
:1027B00060FF0720FFF75DFF1220FFF75AFF372069
:1027C000FFF757FF3220FFF754FF2920FFF751FF93
:1027D0002D20FFF74EFF2920FFF74BFF2520FFF7A5
:1027E00048FF2B20FFF745FF3920FFF742FF00206D
:1027F000FFF73FFF0120FFF73CFF0320FFF739FF02
:102800001020FFF736FFE120FFF70FFF0320FFF74F
:1028100030FF1D20FFF72DFF0720FFF72AFF0620BE
:10282000FFF727FF2E20FFF724FF2C20FFF721FFC3
:102830002920FFF71EFF2D20FFF71BFF2E20FFF79B
:1028400018FF2E20FFF715FF3720FFF712FF3F205C
:10285000FFF70FFF0020FFF70CFF0020FFF709FF35
:102860000220FFF706FF1020FFF703FF2A20FFF7E3
:10287000DCFE0020FFF7FDFE0020FFF7FAFE00203F
:10288000FFF7F7FE7F20FFF7F4FE2B20FFF7CDFECA
:102890000020FFF7EEFE0020FFF7EBFE0020FFF721
:1028A000E8FE9F20FFF7E5FE3A20FFF7BEFE052079
:1028B000FFF7DFFE2920FFF7B8FE10BD10B5042199
:1028C0001B48FDF77CFE0120FFF7EDFD04211848B1
:1028D000FDF773FE0120FFF7E6FD10BD70B504465D
:1028E0002A20FFF7A2FE0020FFF7C3FE0020FFF71B
:1028F000C0FE0020FFF7BDFE7F20FFF7BAFE2B20B1
:10290000FFF793FE0020FFF7B4FE0020FFF7B1FEB3
:102910000020FFF7AEFE9F20FFF7ABFE2C20FFF755
:1029200084FE002510E000004C1000200002300062
:1029300000080140003001402012FFF79AFEE0B28B
:10294000FFF797FE681C85B2B5F5A04FF4DB70BDAC
:10295000FE4908807047FE4908807047FD4908809D
:1029600070472DE9F04780460E4617469946FFF717
:10297000ECFDFFF7A3FFFFF7A0FE2C20FFF755FEAD
:102980003046FFF7EBFF3846FFF7E5FF4846FFF715
:10299000DFFF3046FFF7A2FFEF4880F800800024F9
:1029A00031E000252BE0202004EB8401EB4A02EB10
:1029B0004101485504EB8400E94901EB800020F80F
:1029C000157004EB8400E74901EB800020F81560E6
:1029D000202004EB8401E44A02EB4101485504EB5A
:1029E0008400E24901EB800020F8157004EB8400BC
:1029F000DF4901EB800020F81560681CC5B20A2D84
:102A0000D1DB601CC4B2142CCBDB002019E0002108
:102A100013E000EBC00202EB0012D64B03EB4202C4
:102A200022F8116000EBC00202EB0012D24B03EB64
:102A3000420222F811604A1C91B21929E9DB411CBB
:102A400088B22028E3DBBDE8F0870120CB4908707D
:102A500070470020C94908707047BE480088704719
:102A6000BB4800887047B94800887047BA4800786A
:102A7000704770B5002420E000251AE0202004EB08
:102A80008401B94A02EB41014855B148008804EB82
:102A90008401B64A02EB810121F81500AD48008897
:102AA00004EB8401B24A02EB810121F81500681C95
:102AB000C5B20A2DE2DB601CC4B2142CDCDBA548D5
:102AC0000088FFF70BFF70BD10B504462046E117E4
:102AD00004EB91718910A4EB81019F4A1170FFF7FB
:102AE000C8FF10BD9C48017801EBD1704010A1EBEC
:102AF000400008B1142070471020FCE79648017888
:102B000001EBD1704010A1EB400008B108207047E4
:102B10000A20FCE770B505460C462A20FFF785FD24
:102B20000020FFF7A6FD2846FFF7A3FD0020FFF7D2
:102B3000A0FD691CC8B2FFF79CFD2B20FFF775FDB7
:102B40000020FFF796FD2046FFF793FD0020FFF7DA
:102B500090FD611CC8B2FFF78CFD2C20FFF765FDCE
:102B600070BD2DE9F04107460C4615461E462A2049
:102B7000FFF75BFD0020FFF77CFD3846FFF779FD8E
:102B80000020FFF776FD2846FFF773FD2B20FFF7A7
:102B90004CFD0020FFF76DFD2046FFF76AFD002089
:102BA000FFF767FD3046FFF764FD2C20FFF73DFD82
:102BB000BDE8F08110B5014600201AE0202200EBAC
:102BC0008003664C04EB43035A54614A128800EBBD
:102BD0008003634C04EB830323F811205D4A1288C1
:102BE00000EB80035F4C04EB830323F81120421CAD
:102BF000D0B21428E2DB10BD10B5002404E020465A
:102C0000FFF7D8FF601CC4B20A2CF8DB10BD10B56A
:102C1000FFF72FFFFFF7F0FF4F490978481CC11756
:102C200000EB91718910A0EB81014B4A117010BD2E
:102C300070B504460D4616464748007830B1012865
:102C400009D002280ED003281CD114E029462046C2
:102C5000FFF760FF16E0C5F17F01C8B22146FFF71C
:102C600059FF0FE0C5F19F02D1B2C4F17F02D0B28B
:102C7000FFF750FF06E0C4F19F00C1B22846FFF7FE
:102C800049FF00BF00BF3012FFF7F3FCF0B2FFF7BF
:102C9000F0FC70BD30B5024602EB8203324C04EB0F
:102CA00043035B5C02EB82042C4D05EB4404645C43
:102CB000A3421FD102EB82032C4C04EB830333F8B5
:102CC000113002EB8204264D05EB840434F81140E8
:102CD000A3420FD102EB8203254C04EB830333F8AC
:102CE000113002EB82041F4D05EB840434F81140CF
:102CF000A34201D0012300E00023184602EB820327
:102D0000164C04EB43035B5C02EB8204164D05EBAF
:102D10004404635402EB8203114C04EB830333F845
:102D2000113002EB8204114D05EB840424F81130BC
:102D300002EB82030B4C04EB830333F8113002EBFC
:102D400082040B4D05EB84041AE0000046100020BD
:102D50004410002042100020481000209010002055
:102D6000201200204015002058110020B013002030
:102D7000D0160020681F00202819002049100020CC
:102D800024F8113030BD0FB4F0B5C1B005460E4681
:102D90000027002449A8009001A8009A489903F050
:102DA000D5FB0020009001AC55E020785B2806D1CF
:102DB00014F8010C5C2802D00127641C4AE020783A
:102DC0005D2806D114F8010C5C2802D00027641C91
:102DD00040E020780D2802D020780A2801D1641C18
:102DE00038E0142D01DC0A2E01DD641C33E020786C
:102DF0005C2806D160785B2802D060785D2800D11D
:102E0000641C14F8010B05EB8501FE4A02EB41013D
:102E1000885517B1FC48008801E0FC48008805EBA4
:102E20008501FB4A02EB810121F81600F948008870
:102E300005EB8501F84A02EB810121F81600142DFB
:102E400003DB0025701CC6B201E0681CC5B20A2E67
:102E500000DB002600BF20780028A6D141B0F0BCDE
:102E60005DF814FB10B50446ECA221460020FFF7E4
:102E70008AFF10BD2DE9F05F0026ED48007808B903
:102E8000BDE8F09F002468E0002562E005EB8500C6
:102E9000DF4901EB800030F8140000F4004008B175
:102EA000402000E0002005EB8501D94A02EB8101BA
:102EB00031F8141001F4806109B1202100E00021F3
:102EC000084305EB8501D24A02EB810111F8141089
:102ED00001F0100109B1102100E00021084305EBC9
:102EE0008501D44A02EB4101085505EB8500CA492A
:102EF00001EB800030F8140000F4004008B1042019
:102F000000E0002005EB8501CA4A02EB4101095DA2
:102F1000084305EB8501C04A02EB810131F814102A
:102F200001F4806109B1022100E00021084305EBB2
:102F30008501B94A02EB810111F81410C1F30011A7
:102F4000084305EB8501BB4A02EB41010855681CAB
:102F500005B2102D9ADB601C04B20A2C94DBB64833
:102F6000007830B101287CD002287BD003287AD1A8
:102F7000CEE1002488E0002581E0E1B2E8B2FFF76D
:102F800089FE002879D0012605E0A819102800DB69
:102F90000BE0701C06B2A819102806DAE1B2AA19D3
:102FA000D0B2FFF777FE0028EFD100BF04F1010C8B
:102FB0004FF0010ECEEB0C1C0CF0FF0305EB060CE2
:102FC000CEEBCC0C0CF0FF024FEA047C4FEA1C6104
:102FD0004FEAC56C4FEA1C60FFF7C3FDA2464FF0F5
:102FE000000844E0002736E03846F91707EB517136
:102FF00005EBE1010FFA81F9F91707EB5171C910DF
:10300000A7EBC1028021114109EB89027D4B03EB43
:10301000420212F80A2008EB0212884B9A5C114017
:1030200039B109EB89017A4A02EB810131F81A10B2
:1030300006E009EB8901784A02EB810131F81A10A8
:103040008B464FEA2B20FFF714FB0BF0FF00FFF736
:1030500010FB781C07B2B7EBC60FC5DB08F1010007
:1030600003E015E0A3E0E2E107E00FFA80F8B8F131
:10307000100FB7DB701E284405B2681C05B2102D76
:10308000FFF67BAF601C04B20A2CFFF674AFCEE1F2
:10309000002588E0072481E0E1B2E8B2FFF7FAFDFD
:1030A000002879D0012604E0A01B00D50AE0701C9E
:1030B00006B2A01B06D4A21BD1B2E8B2FFF7EAFD0C
:1030C0000028F1D100BF05F1010C4FF0010ECEEB4D
:1030D000CC0C0CF0FF03C4F1070CB444CEEB0C1C79
:1030E0000CF0FF024FEAC56C4FEA1C61C4F1070CFB
:1030F0004FEA0C7C4FEA1C60FFF733FDA94600271E
:1031000045E04FF000083DE040464FEAE87108EB2B
:103110001171A4EB21110FFA81FA4FEAE87108EB63
:1031200011710911A8EB011209EB8901354B03EB71
:10313000410111F80A10102303EB0111891A491EED
:103140003E4A515C80223A41114039B109EB890174
:103150002F4A02EB810131F81A1006E009EB8901D0
:103160002D4A02EB810131F81A108B464FEA2B20D1
:10317000FFF77FFA0BF0FF00FFF77BFA08F1010081
:103180000FFA80F8B8EB061FBEDB781C07B2082FD9
:10319000B7DB701E201A04B2601E04B2002CBFF60A
:1031A0007BAF681C05B2142DFFF674AF3FE1092414
:1031B000AAE00F25A3E0E1B2E8B2FFF76BFD00281B
:1031C0007BD0012604E0A81B00D50AE0701C06B2E3
:1031D000A81B06D4E1B2AA1BD0B2FFF75BFD002802
:1031E000F1D100BFC4F10A0C4FF0010ECEEB0C1C64
:1031F0000CF0FF03C5F10F0CB444CEEBCC0C0CF07B
:10320000FF021DE090100020461000204410002016
:1032100020120020421000204015002020202020F5
:10322000202020202020202020202020000000001E
:1032300049100020601800204810002042000020A3
:10324000C4F1090C4FEA0C7C4FEA1C61C5F10F0C6C
:103250004FEACC6C4FEA1C60FFF783FCA2464FF0AC
:10326000000844E000273BE03846F91707EB5171AE
:10327000A5EBE1010FFA81F9C8F10F0109EB890211
:10328000FE4B03EB420212F80A2001EB0211FC4A4A
:10329000515CFA1707EB5272D210A7EBC202C2F1CF
:1032A000070280231341194041B109EB8901F54A16
:1032B00002EB810131F81A1007E01EE009EB8901E9
:1032C000F14A02EB810131F81A108B464FEA2B20AC
:1032D000FFF7CFF90BF0FF00FFF7CBF9781C07B22F
:1032E000B7EBC60FC0DB08F101000FFA80F8B8F1A8
:1032F000100FB7DB701E281A05B2681E05B2002D2C
:10330000BFF659AF601E04B2002CBFF652AF8EE07C
:10331000132588E0002481E0E1B2E8B2FFF7BAFCAF
:1033200078B3012605E0A019082800DB0BE0701C2B
:1033300006B2A019082806DAA219D1B2E8B2FFF73E
:10334000A9FC0028EFD100BFC5F1140C4FF0010E0D
:10335000CEEBCC0C0CF0FF0304EB060CCEEB0C1CFC
:103360000CF0FF02C5F1130C4FEACC6C4FEA1C6164
:103370004FEA047C4FEA1C60FFF7F3FBA9460027E5
:1033800045E049E04FF000083CE040464FEAE87174
:1033900008EB117104EB21110FFA81FA4FEAE87181
:1033A00008EB11710911A8EB011209EB8901B34B6C
:1033B00003EB410111F80A1002EB0111B04A515C14
:1033C000C7F1070280231341194039B109EB890184
:1033D000AC4A02EB810131F81A1006E009EB8901D1
:1033E000A94A02EB810131F81A108B464FEA2B20D3
:1033F000FFF73FF90BF0FF00FFF73BF908F1010081
:103400000FFA80F8B8EB061FBFDB781C07B2082F55
:10341000B8DB701E204404B2601C04B2082CFFF616
:103420007BAF681E05B2002DBFF674AF00BF00BFB2
:1034300000BF25E52DE9F04100244DE0002547E0DF
:1034400004EBC40000EB0410904901EB400030F89D
:10345000150004EBC40101EB04118D4A02EB41019C
:1034600031F81510884231D000262DE0002727E0E2
:1034700004EBC40303EB0413DFF814C20CEB4303A7
:1034800033F8152005EB85033B44D9B204EB8403E4
:103490003344D8B2FFF7CCFB04EBC40000EB0410BC
:1034A0007B4901EB400030F8150004EBC40101EB4F
:1034B0000411764A02EB410121F81500781C87B20D
:1034C000052FD5DB701C86B2052ECFDB681C85B2BC
:1034D000192DB5DB601C84B2202CAFDBBDE8F08178
:1034E00010B500EBC00303EB0013694C04EB43037E
:1034F00023F8112010BD0FB583B005980A284AD2D1
:10350000DFE800F0054ADAFEFDFCFBFAF9F80120DD
:10351000029019E0DDE902100844C0B20190069A59
:103520000499FFF7DDFF04981630C0B20190DDE981
:1035300002100844C0B20090069A0199FFF7D0FF2C
:103540000298401C80B2029002980928E2DB002019
:1035500002901DE0029904980844C0B201900398BB
:10356000401CC0B20090069A0199FFF7B9FF02997A
:1035700004980844C0B2019003980830C0B200908B
:10358000069A0199FFF7ACFF0298401C80B20290A6
:1035900002981728DEDBAAE30120029010E00498CD
:1035A0001630C0B20190DDE902100844C0B20090AC
:1035B000069A0199FFF794FF0298401C80B202908E
:1035C00002980928EBDB0020029010E00299049891
:1035D0000844C0B201900398401DC0B20090069A02
:1035E0000199FFF77DFF0298401C80B2029002987B
:1035F0001728EBDB0498401CC0B202900398001D12
:10360000C0B20190069A0299FFF76AFF0498401C25
:10361000C0B202900398C01CC0B20190069A0299F1
:10362000FFF75EFF0498801CC0B202900398C01C94
:10363000C0B20190069A0299FFF752FF0498801CCD
:10364000C0B202900398801CC0B20190069A029901
:10365000FFF746FF0498C01CC0B202900398801C7C
:10366000C0B20190069A0299FFF73AFF0498C01C75
:10367000C0B202900398401CC0B20BE09010002032
:1036800042000020201200204015002028190020B0
:10369000681F00200190069A0299FFF721FF049805
:1036A000001DC0B202900398401CC0B20190069A5F
:1036B0000299FFF715FF1AE3012002902EE0DDE9E1
:1036C00002100844C0B20190069A0499FFF708FF5F
:1036D00004980B30C0B20190DDE902100844C0B27A
:1036E0000090069A0199FFF7FBFE04981630C0B2CD
:1036F000019006E09FE24CE209E2ACE158E111E101
:1037000035E0DDE902100844C0B20090069A019944
:10371000FFF7E6FE0298401C80B20290029809284A
:10372000CDDB002002901EE0029904980844C0B24C
:10373000019003980830C0B20090069A0199FFF7F3
:10374000CFFE04980B3002990844C0B20190039850
:10375000401CC0B20090069A0199FFF7C1FE029882
:10376000401C80B2029002980B28DDDBBFE20420EF
:10377000029019E0DDE902100844C0B20190069AF7
:103780000499FFF7ADFE04981630C0B20190DDE950
:1037900002100844C0B20090069A0199FFF7A0FEFB
:1037A0000298401C80B2029002980928E2DB0220B5
:1037B000029010E004980B30C0B20190DDE90210D5
:1037C0000844C0B20090069A0199FFF789FE02985A
:1037D000401C80B2029002980928EBDB0020029086
:1037E00010E0029904980844C0B201900398083090
:1037F000C0B20090069A0199FFF772FE0298401C31
:1038000080B2029002981728EBDB0398C01CC0B26C
:103810000290069A0499FFF763FE0498401CC0B218
:1038200002900398C01CC0B20190069A0299FFF75B
:1038300057FE0498401CC0B202900398801CC0B28E
:103840000190069A0299FFF74BFE0498801CC0B2C3
:1038500002900398801CC0B20190069A0299FFF76B
:103860003FFE0498801CC0B202900398401CC0B276
:103870000190069A0299FFF733FE0498C01CC0B26B
:1038800002900398401CC0B20190069A0299FFF77B
:1038900027FE04981630C0B202900398C01CC0B234
:1038A0000190069A0299FFF71BFE04981530C0B2EA
:1038B00002900398C01CC0B20190069A0299FFF7CB
:1038C0000FFE04981530C0B202900398801CC0B25D
:1038D0000190069A0299FFF703FE04981430C0B2D3
:1038E00002900398801CC0B20190069A0299FFF7DB
:1038F000F7FD04981430C0B202900398401CC0B287
:103900000190069A0299FFF7EBFD04981330C0B2BC
:1039100002900398401CC0B20190069A0299FFF7EA
:10392000DFFDE4E10020029010E0029904980844D1
:10393000C0B201900398401CC0B20090069A019951
:10394000FFF7CEFD0298401C80B2029002980C282E
:10395000EBDB0020029010E0029904980844C0B20A
:1039600001900398C01DC0B20090069A0199FFF71C
:10397000B7FD0298401C80B2029002981728EBDB3A
:103980000120029010E004980A30C0B20190DDE9F5
:1039900002100844C0B20090069A0199FFF7A0FDFA
:1039A0000298401C80B2029002980928EBDB9EE14D
:1039B0000120029026E0DDE902100844C0B2019027
:1039C000069A0499FFF78CFD04980B30C0B2019061
:1039D000DDE902100844C0B20090069A0199FFF791
:1039E0007FFD04981630C0B20190DDE90210084452
:1039F000C0B20090069A0199FFF772FD0298401C30
:103A000080B2029002980928D5DB002002901EE0C7
:103A1000029904980844C0B201900398401CC0B2B7
:103A20000090069A0199FFF75BFD04980B3002990C
:103A30000844C0B2019003980830C0B20090069AC2
:103A40000199FFF74DFD0298401C80B20290029848
:103A50000B28DDDB4BE10120029026E0DDE90210BE
:103A60000844C0B20190069A0499FFF739FD049802
:103A70000B30C0B20190DDE902100844C0B20090E2
:103A8000069A0199FFF72CFD04981630C0B20190F8
:103A9000DDE902100844C0B20090069A0199FFF7D0
:103AA0001FFD0298401C80B2029002980928D5DBC5
:103AB0000B20029010E0029904980844C0B20190D3
:103AC00003980830C0B20090069A0199FFF708FDEC
:103AD0000298401C80B2029002981728EBDB00206D
:103AE000029010E0029904980844C0B20190039833
:103AF000401CC0B20090069A0199FFF7F1FC0298B1
:103B0000401C80B2029002981728EBDBEFE0012006
:103B100002900CE0DDE902100844C0B20190069A60
:103B20000499FFF7DDFC0298401C80B202900298D5
:103B30000928EFDB0020029010E002990498084465
:103B4000C0B201900398401CC0B20090069A01993F
:103B5000FFF7C6FC0298401C80B20290029806282B
:103B6000EBDB0020029010E0029904980844C0B2F8
:103B7000019003980830C0B20090069A0199FFF7AF
:103B8000AFFC0298401C80B2029002981728EBDB31
:103B9000ADE00220029026E0DDE902100844C0B248
:103BA0000190069A0499FFF79BFC04980B30C0B271
:103BB0000190DDE902100844C0B20090069A019914
:103BC000FFF78EFC04981630C0B20190DDE90210B8
:103BD0000844C0B20090069A0199FFF781FC029850
:103BE000401C80B2029002980828D5DB0120029088
:103BF0001DE0029904980844C0B201900398401C4B
:103C0000C0B20090069A0199FFF76AFC02990498E5
:103C10000844C0B2019003980830C0B20090069AE0
:103C20000199FFF75DFC0298401C80B20290029857
:103C30001628DEDB5BE00120029026E0DDE90210C1
:103C40000844C0B20190069A0499FFF749FC049811
:103C50000B30C0B20190DDE902100844C0B2009000
:103C6000069A0199FFF73CFC04981630C0B2019007
:103C7000DDE902100844C0B20090069A0199FFF7EE
:103C80002FFC0298401C80B2029002980928D5DBD4
:103C90000020029010E0029904980844C0B20190FC
:103CA0000398401CC0B20090069A0199FFF718FCD7
:103CB0000298401C80B2029002980C28EBDB002096
:103CC000029010E0029904980844C0B20190039851
:103CD0000830C0B20090069A0199FFF701FC0298E3
:103CE000401C80B2029002981728EBDB00BF00BF97
:103CF00007B000BD03B585B0002004901BE0002094
:103D0000039011E0039906980844C0B20290DDE9DF
:103D100004100844C0B2002201900299FEF788FF07
:103D20000398401CC0B2039003982A28EADB049849
:103D3000401CC0B2049004982F28E0DB0F200490B0
:103D400010E00698401CC0B20390DDE9041008445E
:103D5000C0B2102202900399FEF76AFF0498401C3B
:103D6000C0B2049004982D28EBDB0E2004901DE0D7
:103D70000698801CC0B20390DDE904100844C0B26C
:103D8000102202900399FEF753FF0698C01CC0B2A0
:103D90000390DDE904100844C0B210220290039998
:103DA000FEF746FF0498401CC0B2049004982C28EB
:103DB000DEDB0D2004902AE00698001DC0B20390BF
:103DC000DDE904100844C0B2102202900399FEF706
:103DD0002FFF0698401DC0B20390DDE9041008448F
:103DE000C0B2102202900399FEF722FF0698801DB0
:103DF000C0B20390DDE904100844C0B21022029062
:103E00000399FEF715FF0498401CC0B20490049873
:103E10002B28D1DB0C2004902AE00698C01DC0B2EC
:103E20000390DDE904100844C0B210220290039907
:103E3000FEF7FEFE06980830C0B20390DDE90410DC
:103E40000844C0B2102202900399FEF7F1FE0698D2
:103E50000930C0B20390DDE904100844C0B210225A
:103E600002900399FEF7E4FE0498401CC0B204904F
:103E700004982A28D1DB0B2004901DE006980A3014
:103E8000C0B20390DDE904100844C0B210220290D1
:103E90000399FEF7CDFE06980B30C0B20390DDE922
:103EA00004100844C0B2102202900399FEF7C0FE2D
:103EB0000498401CC0B2049004982928DEDB0A2034
:103EC000049037E006980C30C0B20390DDE904108E
:103ED0000844C0B2102202900399FEF7A9FE06988A
:103EE0000D30C0B20390DDE904100844C0B21022C6
:103EF00002900399FEF79CFE06980E30C0B2039024
:103F0000DDE904100844C0B2102202900399FEF7C4
:103F10008FFE06980F30C0B20390DDE9041008440C
:103F2000C0B2102202900399FEF782FE0498401C52
:103F3000C0B2049004982828C4DB092004902AE029
:103F400006981030C0B20390DDE904100844C0B2F6
:103F5000102202900399FEF76BFE06981130C0B252
:103F60000390DDE904100844C0B2102202900399C6
:103F7000FEF75EFE06981230C0B20390DDE9041031
:103F80000844C0B2102202900399FEF751FE049833
:103F9000401CC0B2049004982728D1DB082004906C
:103FA0001DE006981330C0B20390DDE90410084408
:103FB000C0B2102202900399FEF73AFE0698143020
:103FC000C0B20390DDE904100844C0B21022029090
:103FD0000399FEF72DFE0498401CC0B2049004988B
:103FE0002628DEDB0720049037E006981530C0B2A3
:103FF0000390DDE904100844C0B210220290039936
:10400000FEF716FE06981630C0B20390DDE90410E4
:104010000844C0B2102202900399FEF709FE0698E8
:104020001730C0B20390DDE904100844C0B210227A
:1040300002900399FEF7FCFD06981830C0B2039079
:10404000DDE904100844C0B2102202900399FEF783
:10405000EFFD0498401CC0B2049004982528C4DBEE
:104060000698801DC0B2049005981030C0B24AF680
:10407000555203900499FEF7DBFD1120049011E0E6
:104080000698801DC0B20390DDE904100844C0B258
:104090004FF6FF7202900399FEF7CAFD0498401C88
:1040A000C0B2049004982428EADB0F20049011E0A9
:1040B0000698C01DC0B20390DDE904100844C0B2E8
:1040C0004FF6FF7202900399FEF7B2FD0498401C70
:1040D000C0B2049004982528EADB06980830C0B2E4
:1040E000049005980E30C0B245F2AA2203900499BC
:1040F000FEF79EFD0F20049011E006980830C0B234
:104100000390DDE904100844C0B24FF6FF7202903C
:104110000399FEF78DFD0498401CC0B204900498EA
:104120002528EADB06980830C0B2049005982530AF
:10413000C0B24AF6555203900499FEF779FD0E205D
:10414000049011E006980930C0B20390DDE9041034
:104150000844C0B24FF6FF7202900399FEF768FD63
:104160000498401CC0B2049004982628EADB0E2074
:10417000049011E006980A30C0B20390DDE9041003
:104180000844C0B24FF6FF7202900399FEF750FD4B
:104190000498401CC0B2049004981428EADB0698E6
:1041A0000A30C0B2049005981430C0B24AF6555295
:1041B00003900499FEF73CFD06980A30C0B20490C3
:1041C00005981C30C0B24AF6555203900499FEF788
:1041D0002FFD1F20049011E006980A30C0B2039012
:1041E000DDE904100844C0B24FF6FF720290039953
:1041F000FEF71EFD0498401CC0B2049004982628C7
:10420000EADB0E20049011E006980B30C0B2039058
:10421000DDE904100844C0B24FF6FF720290039922
:10422000FEF706FD0498401CC0B2049004981428C0
:10423000EADB06980B30C0B2049005981C30C0B27F
:104240004AF6555203900499FEF7F2FC06980B309B
:10425000C0B2049005981D30C0B245F2AA22039066
:104260000499FEF7E5FC2020049011E006980B303D
:10427000C0B20390DDE904100844C0B24FF6FF72EB
:1042800002900399FEF7D4FC0498401CC0B204903D
:1042900004982628EADB06980C30C0B204900598F2
:1042A0000D30C0B24AF6555203900499FEF7C0FC97
:1042B0000E20049011E006980C30C0B20390DDE9A6
:1042C00004100844C0B24FF6FF7202900399FEF743
:1042D000AFFC0498401CC0B2049004981328EADB99
:1042E00006980C30C0B2049005981330C0B245F265
:1042F000AA2203900499FEF79BFC06980C30C0B2EA
:10430000049005981530C0B24FF6FF7203900499DF
:10431000FEF78EFC1E20049011E006980C30C0B20F
:104320000390DDE904100844C0B24FF6FF7202901A
:104330000399FEF77DFC0498401CC0B204900498D9
:104340002628EADB0D20049011E006980D30C0B25B
:104350000390DDE904100844C0B24FF6FF720290EA
:104360000399FEF765FC0498401CC0B204900498C1
:104370001328EADB06980D30C0B20490059813307C
:10438000C0B24AF6555203900499FEF751FC0698C4
:104390000D30C0B2049005981C30C0B24FF6FF72C9
:1043A00003900499FEF744FC06980D30C0B20490C7
:1043B00005981D30C0B24FF6FF7203900499FEF7C6
:1043C00037FC2020049011E006980D30C0B2039015
:1043D000DDE904100844C0B24FF6FF720290039961
:1043E000FEF726FC0498401CC0B2049004982628CE
:1043F000EADB0D20049011E006980E30C0B2039065
:10440000DDE904100844C0B24FF6FF720290039930
:10441000FEF70EFC0498401CC0B2049004981328C8
:10442000EADB06980E30C0B2049005981330C0B293
:1044300045F2AA2203900499FEF7FAFB06980E3083
:10444000C0B2049005981430C0B245F2AA2203907D
:104450000499FEF7EDFB06980E30C0B20490059863
:104460001C30C0B24AF6555203900499FEF7E0FBA7
:1044700006980E30C0B2049005981F30C0B24AF6BC
:10448000555203900499FEF7D3FB2020049011E0CD
:1044900006980E30C0B20390DDE904100844C0B2A3
:1044A0004FF6FF7202900399FEF7C2FB0498401C7E
:1044B000C0B2049004982628EADB0C2004902DE07A
:1044C00006980F30C0B20390DDE904100844C0B272
:1044D0004FF6FF7202900399FEF7AAFB0698103080
:1044E000C0B20390DDE904100844C0B24FF6FF7279
:1044F00002900399FEF79CFB06981130C0B203901E
:10450000DDE904100844C0B24FF6FF72029003992F
:10451000FEF78EFB0498401CC0B204900498122849
:10452000CEDB0B2004902DE006981230C0B2039031
:10453000DDE904100844C0B24FF6FF7202900399FF
:10454000FEF776FB06981330C0B20390DDE9041045
:104550000844C0B24FF6FF7202900399FEF768FB61
:1045600006981430C0B20390DDE904100844C0B2CC
:104570004FF6FF7202900399FEF75AFB0498401C15
:10458000C0B2049004981128CEDB0A2004901FE0EA
:1045900006981530C0B20390DDE904100844C0B29B
:1045A0004FF6FF7202900399FEF742FB0698163011
:1045B000C0B20390DDE904100844C0B24FF6FF72A8
:1045C00002900399FEF734FB0498401CC0B204909B
:1045D00004981028DCDB0A20049011E006981730BC
:1045E000C0B20390DDE904100844C0B24FF6FF7278
:1045F00002900399FEF71CFB0498401CC0B2049083
:1046000004980F28EADB0920049011E0069818307E
:10461000C0B20390DDE904100844C0B24FF6FF7247
:1046200002900399FEF704FB0498401CC0B204906A
:1046300004980F28EADB092004901FE0069819303F
:10464000C0B20390DDE904100844C0B24FF6FF7217
:1046500002900399FEF7ECFA06981A30C0B2039064
:10466000DDE904100844C0B24FF6FF7202900399CE
:10467000FEF7DEFA0498401CC0B2049004980E289D
:10468000DCDB1520049011E006980F30C0B20390D7
:10469000DDE904100844C0B24FF6FF72029003999E
:1046A000FEF7C6FA0498401CC0B20490049826286D
:1046B000EADB1420049011E006981030C0B2039099
:1046C000DDE904100844C0B24FF6FF72029003996E
:1046D000FEF7AEFA0498401CC0B204900498262855
:1046E000EADB1420049011E006981130C0B2039068
:1046F000DDE904100844C0B24FF6FF72029003993E
:10470000FEF796FA0498401CC0B20490049825283D
:10471000EADB1520049011E006981230C0B2039035
:10472000DDE904100844C0B24FF6FF72029003990D
:10473000FEF77EFA0498401CC0B204900498242826
:10474000EADB1520049011E006981330C0B2039004
:10475000DDE904100844C0B24FF6FF7202900399DD
:10476000FEF766FA0498401CC0B2049004981D2815
:10477000EADB152004903EE006981430C0B20390A6
:10478000DDE904100844C0B24FF6FF7202900399AD
:10479000FEF74EFA06981530C0B20390DDE904101A
:1047A0000844401CC0B24FF6FF7202900399FEF716
:1047B0003FFA06981630C0B20390DDE904100844B1
:1047C000801CC0B24FF6FF7202900399FEF730FAD8
:1047D00006981730C0B20390DDE904100844C01CED
:1047E000C0B24FF6FF7202900399FEF721FA0498C7
:1047F000401CC0B2049004981E28BDDB1920049010
:1048000011E006981830C0B20390DDE904100844A6
:10481000C0B24FF6FF7202900399FEF709FA0498AE
:10482000401CC0B2049004982128EADB1A200490AE
:1048300011E006981930C0B20390DDE90410084475
:10484000C0B24FF6FF7202900399FEF7F1F9049897
:10485000401CC0B2049004982328EADB1B2004907B
:1048600011E006981A30C0B20390DDE90410084444
:10487000C0B24FF6FF7202900399FEF7D9F904987F
:10488000401CC0B2049004982328EADB069811303B
:10489000C0B2049005980B30C0B245F2AA22039032
:1048A0000499FEF7C5F906981130C0B20490059836
:1048B0001530C0B24AF6555203900499FEF7B8F984
:1048C00006981230C0B2049005981130C0B245F27B
:1048D000AA2203900499FEF7ABF906981230C0B2F1
:1048E000049005982430C0B24AF6555203900499BA
:1048F000FEF79EF91D20049011E006981330C0B217
:104900000390DDE904100844C0B24AF65552029003
:104910000399FEF78DF90498401CC0B204900498E6
:104920002228EADB06981330C0B2049005982230A2
:10493000C0B245F2AA2203900499FEF779F90698CD
:104940001430C0B2049005980A30C0B24AF65552ED
:1049500003900499FEF76CF906981430C0B20490E5
:1049600005981230C0B24FF6FF7203900499FEF71B
:104970005FF906981530C0B2049005981030C0B2A7
:104980004AF6555203900499FEF752F906981530ED
:10499000C0B2049005981430C0B24FF6FF72039075
:1049A0000499FEF745F906981630C0B204900598B0
:1049B0001230C0B24FF6FF7203900499FEF738F937
:1049C00006981630C0B2049005981230C0B24AF66C
:1049D000555203900499FEF72BF906981730C0B290
:1049E000049005980930C0B245F2AA2203900499B8
:1049F000FEF71EF906981830C0B2049005982130D1
:104A0000C0B24AF6555203900499FEF711F9069880
:104A10001930C0B2049005980E30C0B245F2AA22F7
:104A200003900499FEF704F906981A30C0B2049076
:104A300005980830C0B24AF6555203900499FEF723
:104A4000F7F806981A30C0B2049005982330C0B227
:104A500045F2AA2203900499FEF7EAF80698C01CD2
:104A6000C0B2049005980F30C0B21F220390049981
:104A7000FEF7DEF80698001DC0B2049005981130CC
:104A8000C0B21F2203900499FEF7D2F80698401D89
:104A9000C0B2049005981030C0B21F220390049950
:104AA000FEF7C6F80698401DC0B204900598233062
:104AB000C0B21F2203900499FEF7BAF80698801D31
:104AC000C0B2049005982630C0B21F22039004990A
:104AD000FEF7AEF80698801DC0B2049005983130FC
:104AE000C0B21F2203900499FEF7A2F80698C01DD9
:104AF000C0B2049005982730C0B21F2203900499D9
:104B0000FEF796F806980E30C0B2049005980B3068
:104B1000C0B21F2203900499FEF78AF806980D3060
:104B2000C0B2049005981430C0B21F2203900499BB
:104B3000FEF77EF806980E30C0B204900598273034
:104B4000C0B21F2203900499FEF772F806980F3046
:104B5000C0B2049005982730C0B21F220390049978
:104B6000FEF766F806981230C0B20490059814302B
:104B7000C0B21F2203900499FEF75AF8069812302B
:104B8000C0B2049005982530C0B21F22039004994A
:104B9000FEF74EF806981330C0B204900598263000
:104BA000C0B21F2203900499FEF742F80698143011
:104BB000C0B2049005982230C0B21F22039004991D
:104BC000FEF736F806981430C0B2049005982430E9
:104BD000C0B21F2203900499FEF72AF806981630F7
:104BE000C0B2049005982130C0B21F2203900499EE
:104BF000FEF71EF806981730C0B2049005980830EA
:104C0000C0B21F2203900499FEF712F806981730DD
:104C1000C0B2049005981430C0B21F2203900499CA
:104C2000FEF706F806981730C0B2049005981530C4
:104C3000C0B21F2203900499FDF7FAFF06981730BF
:104C4000C0B2049005982130C0B21F22039004998D
:104C5000FDF7EEFF06981830C0B2049005980830B2
:104C6000C0B21F2203900499FDF7E2FF06981830A6
:104C7000C0B2049005981130C0B21F22039004996D
:104C8000FDF7D6FF06981830C0B20490059816308C
:104C9000C0B21F2203900499FDF7CAFF069818308E
:104CA000C0B2049005982430C0B21F22039004992A
:104CB000FDF7BEFF06981930C0B204900598C01DDC
:104CC000C0B21F2203900499FDF7B2FF0698193075
:104CD000C0B2049005981830C0B21F220390049906
:104CE000FDF7A6FF06981A30C0B204900598C01DC3
:104CF000C0B21F2203900499FDF79AFF06981A305C
:104D0000C0B2049005980F30C0B21F2203900499DE
:104D1000FDF78EFF06981A30C0B204900598123045
:104D2000C0B21F2203900499FDF782FF06981A3043
:104D3000C0B2049005981330C0B21F2203900499AA
:104D4000FDF776FF06981A30C0B204900598163029
:104D5000C0B21F2203900499FDF76AFF06981A302B
:104D6000C0B2049005981730C0B21F220390049976
:104D7000FDF75EFF06981A30C0B20490059818300F
:104D8000C0B21F2203900499FDF752FF06981C3011
:104D9000C0B204900598801DC0B24FF6FF72039018
:104DA0000499FDF745FF06981C30C0B204900598A1
:104DB0000A30C0B24FF6FF7203900499FDF738FF36
:104DC00006981C30C0B2049005980B30C0B24FF664
:104DD000FF7203900499FDF72BFF06981C30C0B2B8
:104DE000049005980D30C0B24FF6FF7203900499FD
:104DF000FDF71EFF06981C30C0B2049005981130D4
:104E0000C0B24FF6FF7203900499FDF711FF0698A8
:104E10001C30C0B2049005981430C0B24FF6FF7237
:104E200003900499FDF704FF06981C30C0B204906B
:104E300005981730C0B24FF6FF7203900499FDF742
:104E4000F7FE06981C30C0B2049005981830C0B226
:104E50004FF6FF7203900499FDF7EAFE1B200490C1
:104E600011E006981C30C0B20390DDE9041008443C
:104E7000C0B24FF6FF7202900399FDF7D9FE049875
:104E8000401CC0B2049004982428EADB06981D3028
:104E9000C0B204900598401DC0B24FF6FF72039057
:104EA0000499FDF7C5FE06981D30C0B20490059820
:104EB000801DC0B24FF6FF7203900499FDF7B8FE53
:104EC00006981D30C0B2049005980930C0B24FF664
:104ED000FF7203900499FDF7ABFE06981D30C0B237
:104EE000049005980C30C0B24FF6FF7203900499FD
:104EF000FDF79EFE06981D30C0B2049005980D3057
:104F0000C0B24FF6FF7203900499FDF791FE069828
:104F10001D30C0B2049005981030C0B24FF6FF7239
:104F200003900499FDF784FE06981D30C0B20490EA
:104F300005981130C0B24FF6FF7203900499FDF747
:104F400077FE06981D30C0B2049005981330C0B2A9
:104F50004FF6FF7203900499FDF76AFE06981D3024
:104F6000C0B2049005981430C0B24FF6FF7203909F
:104F70000499FDF75DFE06981D30C0B204900598B7
:104F80001630C0B24FF6FF7203900499FDF750FE41
:104F900006981D30C0B2049005981730C0B24FF685
:104FA000FF7203900499FDF743FE06981D30C0B2CE
:104FB000049005981830C0B24FF6FF720390049920
:104FC000FDF736FE1A20049011E006981D30C0B29D
:104FD0000390DDE904100844C0B24FF6FF7202905E
:104FE0000399FDF725FE0498401CC0B20490049874
:104FF0001D28EADB1D20049011E006981D30C0B288
:105000000390DDE904100844C0B24FF6FF7202902D
:105010000399FDF70DFE0498401CC0B2049004985B
:105020002328EADB06981E30C0B204900598401D84
:10503000C0B24FF6FF7203900499FDF7F9FD069890
:105040001E30C0B204900598801DC0B24FF6FF72AA
:1050500003900499FDF7ECFD06981E30C0B2049051
:1050600005980830C0B24FF6FF7203900499FDF71F
:10507000DFFD06981E30C0B2049005980930C0B21A
:105080004FF6FF7203900499FDF7D2FD06981E308B
:10509000C0B2049005980C30C0B24FF6FF72039076
:1050A0000499FDF7C5FD06981E30C0B2049005981E
:1050B0000D30C0B24FF6FF7203900499FDF7B8FDB2
:1050C00006981E30C0B2049005980F30C0B24FF65B
:1050D000FF7203900499FDF7ABFD06981E30C0B235
:1050E000049005981030C0B24FF6FF7203900499F7
:1050F000FDF79EFD06981E30C0B20490059813304F
:10510000C0B24FF6FF7203900499FDF791FD069827
:105110001E30C0B2049005981430C0B24FF6FF7232
:1051200003900499FDF784FD06981E30C0B20490E8
:1051300005981630C0B24FF6FF7203900499FDF740
:1051400077FD06981E30C0B2049005981730C0B2A3
:105150004FF6FF7203900499FDF76AFD06981E3022
:10516000C0B2049005981A30C0B24FF6FF72039097
:105170000499FDF75DFD06981E30C0B204900598B5
:105180001B30C0B24FF6FF7203900499FDF750FD3B
:1051900006981E30C0B2049005982030C0B24FF679
:1051A000FF7203900499FDF743FD0520049011E080
:1051B00006981F30C0B20390DDE904100844C0B265
:1051C0004FF6FF7202900399FDF732FD0498401CE0
:1051D000C0B2049004980A28EADB0B20049011E086
:1051E00006981F30C0B20390DDE904100844C0B235
:1051F0004FF6FF7202900399FDF71AFD0498401CC8
:10520000C0B2049004981028EADB06981F30C0B2A0
:10521000049005981330C0B24FF6FF7203900499C2
:10522000FDF706FD06981F30C0B2049005981430B3
:10523000C0B24FF6FF7203900499FDF7F9FC06988F
:105240001F30C0B2049005981630C0B24FF6FF72FE
:1052500003900499FDF7ECFC06981F30C0B204904F
:1052600005981730C0B24FF6FF7203900499FDF70E
:10527000DFFC06981F30C0B2049005981930C0B208
:105280004FF6FF7203900499FDF7D2FC06981F3089
:10529000C0B2049005981A30C0B24FF6FF72039066
:1052A0000499FDF7C5FC06981F30C0B2049005981C
:1052B0001B30C0B24FF6FF7203900499FDF7B8FCA3
:1052C00006981F30C0B2049005981F30C0B24FF648
:1052D000FF7203900499FDF7ABFC06981F30C0B233
:1052E000049005982030C0B24FF6FF7203900499E5
:1052F000FDF79EFC0420049011E006982030C0B217
:105300000390DDE904100844C0B24FF6FF7202902A
:105310000399FDF78DFC0498401CC0B204900498DA
:105320000A28EADB06982030C0B2049005980B30BA
:10533000C0B24FF6FF7203900499FDF779FC06980E
:105340002030C0B2049005980C30C0B24FF6FF7206
:1053500003900499FDF76CFC06982030C0B20490CD
:1053600005980E30C0B24FF6FF7203900499FDF716
:105370005FFC06982030C0B2049005980F30C0B290
:105380004FF6FF7203900499FDF752FC0698203007
:10539000C0B2049005981230C0B24FF6FF7203906D
:1053A0000499FDF745FC06982030C0B2049005989A
:1053B0001330C0B24FF6FF7203900499FDF738FC2A
:1053C00006982030C0B2049005981530C0B24FF650
:1053D000FF7203900499FDF72BFC06982030C0B2B1
:1053E000049005981630C0B24FF6FF7203900499EE
:1053F000FDF71EFC06982030C0B2049005981A30C4
:10540000C0B24FF6FF7203900499FDF711FC0698A5
:105410002030C0B2049005981B30C0B24FF6FF7226
:1054200003900499FDF704FC06982030C0B2049064
:1054300005981F30C0B24FF6FF7203900499FDF734
:10544000F7FB06982030C0B2049005982030C0B217
:105450004FF6FF7203900499FDF7EAFB069821309E
:10546000C0B204900598001DC0B24FF6FF720390C1
:105470000499FDF7DDFB06982130C0B20490059831
:10548000401DC0B24FF6FF7203900499FDF7D0FBA8
:1054900006982130C0B204900598C01DC0B24FF6E6
:1054A000FF7203900499FDF7C3FB06982130C0B248
:1054B000049005980830C0B24FF6FF72039004992B
:1054C000FDF7B6FB06982130C0B2049005980B306A
:1054D000C0B24FF6FF7203900499FDF7A9FB06983E
:1054E0002130C0B2049005980C30C0B24FF6FF7264
:1054F00003900499FDF79CFB06982130C0B20490FC
:1055000005980E30C0B24FF6FF7203900499FDF774
:105510008FFB06982130C0B2049005980F30C0B2BE
:105520004FF6FF7203900499FDF782FB0698213035
:10553000C0B2049005981230C0B24FF6FF720390CB
:105540000499FDF775FB06982130C0B204900598C8
:105550001330C0B24FF6FF7203900499FDF768FB59
:1055600006982130C0B2049005981530C0B24FF6AD
:10557000FF7203900499FDF75BFB06982130C0B2DF
:10558000049005981630C0B24FF6FF72039004994C
:10559000FDF74EFB06982130C0B2049005981930F3
:1055A000C0B24FF6FF7203900499FDF741FB0698D5
:1055B0002130C0B2049005981A30C0B24FF6FF7285
:1055C00003900499FDF734FB06982130C0B2049093
:1055D00005981B30C0B24FF6FF7203900499FDF797
:1055E00027FB06982130C0B2049005981E30C0B247
:1055F0004FF6FF7203900499FDF71AFB06982130CD
:10560000C0B2049005981F30C0B24FF6FF720390ED
:105610000499FDF70DFB06982230C0B2049005985E
:10562000C01CC0B24FF6FF7203900499FDF700FB57
:1056300006982230C0B204900598001DC0B24FF603
:10564000FF7203900499FDF7F3FA06982230C0B276
:1056500004900598401DC0B24FF6FF720390049964
:10566000FDF7E6FA06982230C0B204900598C01DF6
:10567000C0B24FF6FF7203900499FDF7D9FA06986D
:105680002230C0B2049005980830C0B24FF6FF72C5
:1056900003900499FDF7CCFA06982230C0B204902A
:1056A00005980A30C0B24FF6FF7203900499FDF7D7
:1056B000BFFA06982230C0B2049005980B30C0B2F1
:1056C0004FF6FF7203900499FDF7B2FA0698223064
:1056D000C0B2049005980E30C0B24FF6FF7203902E
:1056E0000499FDF7A5FA06982230C0B204900598F7
:1056F0000F30C0B24FF6FF7203900499FDF798FA8D
:1057000006982230C0B2049005981230C0B24FF60D
:10571000FF7203900499FDF78BFA06982230C0B20D
:10572000049005981330C0B24FF6FF7203900499AD
:10573000FDF77EFA06982230C0B204900598143026
:10574000C0B24FF6FF7203900499FDF771FA069804
:105750002230C0B2049005981530C0B24FF6FF72E7
:1057600003900499FDF764FA06982230C0B20490C1
:1057700005981830C0B24FF6FF7203900499FDF7F8
:1057800057FA06982230C0B2049005981930C0B27A
:105790004FF6FF7203900499FDF74AFA06982230FB
:1057A000C0B2049005981A30C0B24FF6FF72039051
:1057B0000499FDF73DFA06982230C0B2049005988E
:1057C0001E30C0B24FF6FF7203900499FDF730FA15
:1057D00006982230C0B2049005981F30C0B24FF630
:1057E000FF7203900499FDF723FA06982330C0B2A4
:1057F00004900598C01CC0B24FF6FF720390049944
:10580000FDF716FA06982330C0B204900598001DE3
:10581000C0B24FF6FF7203900499FDF709FA06989B
:105820002330C0B204900598C01DC0B24FF6FF727D
:1058300003900499FDF7FCF906982330C0B2049058
:1058400005981330C0B24FF6FF7203900499FDF72C
:10585000EFF906982330C0B2049005981430C0B216
:105860004FF6FF7203900499FDF7E2F90698233092
:10587000C0B2049005981830C0B24FF6FF72039082
:105880000499FDF7D5F906981C30C0B2049005982C
:10589000401DC0B24AF6555203900499FDF7C8F96D
:1058A00006981C30C0B2049005980C30C0B24AF67D
:1058B000555203900499FDF7BBF906981C30C0B20D
:1058C000049005981030C0B24AF6555203900499DE
:1058D000FDF7AEF906981D30C0B204900598083067
:1058E000C0B24AF6555203900499FDF7A1F9069803
:1058F0001E30C0B2049005981F30C0B24AF655520F
:1059000003900499FDF794F906981F30C0B20490F3
:105910000598001DC0B24AF6555203900499FDF750
:1059200087F906982030C0B2049005981730C0B2AD
:105930004AF6555203900499FDF77AF906982330F8
:10594000C0B2049005980A30C0B24AF6555203908E
:105950000499FDF76DF906982330C0B204900598BC
:105960000B30C0B24AF6555203900499FDF760F926
:1059700006982330C0B2049005980E30C0B24AF6A3
:10598000555203900499FDF753F906982330C0B29D
:10599000049005980F30C0B24AF65552039004990E
:1059A000FDF746F906982330C0B2049005981230EE
:1059B000C0B24AF6555203900499FDF739F906989A
:1059C0002330C0B2049005981930C0B24AF655523F
:1059D00003900499FDF72CF906982330C0B2049087
:1059E00005981E30C0B24AF6555203900499FDF74F
:1059F0001FF906982330C0B2049005981F30C0B23A
:105A00004AF6555203900499FDF712F906981C3096
:105A1000C0B204900598C01DC0B245F2AA220390FE
:105A20000499FDF705F906981E30C0B20490059858
:105A30001930C0B245F2AA2203900499FDF7F8F894
:105A400006982030C0B2049005980D30C0B245F2DF
:105A5000AA2203900499FDF7EBF806982030C0B213
:105A6000049005981930C0B245F2AA220390049917
:105A7000FDF7DEF806982130C0B204900598183082
:105A8000C0B245F2AA2203900499FDF7D1F8069816
:105A90002330C0B204900598801DC0B245F2AA22FE
:105AA00003900499FDF7C4F806982230C0B2049020
:105AB00005980C30C0B245F2AA2203900499FDF774
:105AC000B7F806982230C0B2049005981030C0B2E2
:105AD00045F2AA2203900499FDF7AAF8069823300C
