:020000040800F2
:10000000008001204D040008A1040008A10400089C
:10001000A1040008A1040008A104000800000000D9
:10002000000000000000000000000000A104000823
:10003000A104000800000000A1040008A1040008B9
:10004000A1040008A1040008A1040008A1040008FC
:10005000A1040008A1040008A1040008A1040008EC
:10006000A1040008A1040008A1040008A1040008DC
:10007000A1040008A1040008A1040008A1040008CC
:10008000A1040008A1040008A1040008A1040008BC
:10009000A1040008A1040008A1040008A1040008AC
:1000A000A1040008A1040008A1040008A10400089C
:1000B000A1040008A1040008A1040008A10400088C
:1000C000A1040008A1040008A1040008A10400087C
:1000D000A1040008A1040008A1040008A10400086C
:1000E000A1040008A1040008A1040008A10400085C
:1000F000A1040008A1040008A1040008A10400084C
:10010000A1040008A1040008A1040008A10400083B
:10011000A1040008A1040008A1040008A10400082B
:10012000A1040008A1040008A1040008A10400081B
:1001300000000000000000000000000000000000BF
:1001400000000000000000000000000000000000AF
:10015000000000000000000000000000000000009F
:10016000000000000000000000000000000000008F
:10017000000000000000000000000000000000007F
:10018000000000000000000000000000000000006F
:10019000000000000000000000000000000000005F
:1001A000000000000000000000000000000000004F
:1001B000000000000000000000000000000000003F
:1001C000000000000000000000000000000000002F
:1001D000000000000000000000000000000000001F
:0401E0005FF8E0F1F3
:1001E400044B05481B1A062B02D9044B03B11847CC
:1001F400704700BF03000020000000200000000042
:1002040005490648091A891001EBD171491002D039
:10021400034B03B118477047000000200000002082
:100224000000000010B5064C237843B9FFF7D8FF4F
:10023400044B13B10448AFF300800123237010BDB5
:1002440000000020000000001407000808B5084B57
:100254001BB108490848AFF300800848036813B984
:10026400BDE80840CCE7064B002BF9D09847F7E7E8
:100274000000000004000020140700080000002013
:100284000000000070B50F4E0F4D761BB61018BF5E
:10029400002405D0013455F8043B9847A642F9D10F
:1002A4000A4E0B4D00F028FA761BB61018BF002436
:1002B40006D0013455F8043B9847A642F9D170BDE5
:1002C40070BD00BF140700081407000818070008D1
:1002D4001407000880B500AF154A154B1B6843F09E
:1002E400010313601249124B5A68124B13404B60BE
:1002F4000F4A0F4B1B6823F0847323F4803313607D
:100304000B4A0B4B1B6823F480231360084A084BE9
:100314005B6823F4FE035360054B4FF41F029A609D
:1003240000F00CF8044B4FF000629A6000BF80BDEF
:10033400001002400000FFF800ED00E080B500AFBF
:1003440000F002F800BF80BD80B483B000AF00238A
:100354007B6000233B603A4A394B1B6843F480338B
:100364001360374B1B6803F400333B607B68013335
:100374007B603B68002B03D17B68B3F5A06FF0D1A1
:100384002F4B1B6803F40033002B02D001233B6086
:1003940001E000233B603B68012B4BD1294A294BE8
:1003A4001B6843F010031360264A264B1B6823F096
:1003B40003031360234A234B1B6843F002031360B7
:1003C4001F4A1F4B5B6853601D4A1D4B5B6853609B
:1003D4001B4A1B4B5B6843F480635360184A184BF9
:1003E4005B6823F47C135360154A154B5B6843F434
:1003F400E8135360124A124B1B6843F08073136076
:1004040000BF0F4B1B6803F00073002BF9D00C4A9C
:100414000B4B5B6823F003035360094A084B5B688A
:1004240043F00203536000BF054B5B6803F00C0309
:10043400082BF9D100BF0C37BD4680BC704700BF04
:1004440000100240002002400D4B0E4A9A600E4DEF
:100454000E4C03E02B682360043504340C4B9C429F
:10046400F8D10C4C02E00023236004340A4B9C4274
:10047400F9D1FFF72FFFFFF705FF00F019F9FEE7A9
:1004840000ED00E0000000081C0700080000002048
:1004940000000020000000201C000020FEE700BF38
:1004A40080B489B000AF786039600023FB61002319
:1004B4003B610023BB610023FB6000237B610023BD
:1004C400BB603B68DB7803F00F03FB613B68DB78C0
:1004D40003F01003002B05D03B689B781A46FB6998
:1004E4001343FB613B681B88DBB2002B44D07B6861
:1004F4001B687B610023BB6138E00122BB6902FAFF
:1005040003F3FB603B681B881A46FB6813403B619E
:100514003A69FB689A4226D1BB699B00FB600F22B3
:10052400FB6802FA03F3BB60BB68DB437A691340E0
:100534007B61FA69FB6802FA03F37A6913437B610E
:100544003B68DB78282B05D10122BB699A407B6884
:100554005A6108E03B68DB78482B04D10122BB696F
:100564009A407B681A61BB690133BB61BB69072B85
:10057400C3D97B687A691A603B681B88FF2B46D90C
:100584007B685B687B610023BB613AE0BB6908332D
:10059400012202FA03F3FB603B681B881A46FB68DE
:1005A40013403B613A69FB689A4227D1BB699B00BF
:1005B400FB600F22FB6802FA03F3BB60BB68DB43FA
:1005C4007A6913407B61FA69FB6802FA03F37A697A
:1005D40013437B613B68DB78282B05D1BB69083367
:1005E40001229A407B685A613B68DB78482B05D12D
:1005F400BB69083301229A407B681A61BB690133E5
:10060400BB61BB69072BC1D97B687A695A6000BF9B
:100614002437BD4680BC704780B483B000AF786097
:100624000B467B8013467B707B78002B03D07A8843
:100634007B681A6102E07A887B685A6100BF0C37D4
:10064400BD4680BC704700BF80B483B000AF786003
:100654000B46FB70FB78002B06D00949084B9A69BE
:100664007B6813438B6106E00549054B9A697B68F7
:10067400DB4313408B6100BF0C37BD4680BC704721
:100684000010024080B483B000AF00237B607B681D
:10069400064A934204DC00BF7B6801337B60F6E7C3
:1006A40000BF0C37BD4680BC704700BF3F420F00FF
:1006B40080B582B000AF01211020FFF7C5FF4023B1
:1006C400BB801023FB710323BB713B1D19460948F2
:1006D400FFF7E6FE012240210648FFF79DFFFFF7E2
:1006E400D1FF002240210348FFF796FFFFF7CAFF1E
:1006F400F0E700BF00100140F8B500BFF8BC08BC2B
:100704009E467047F8B500BFF8BC08BC9E467047CB
:040714005102000886
:0407180029020008AA
:040000050800044D9E
:00000001FF
