:020000040800F2
:10000000880C0020D53E0008DD3E0008DF3E0008D9
:10001000E13E0008E33E0008E53E00080000000065
:10002000000000000000000000000000E73E0008A3
:10003000E93E000800000000EB3E0008ED3E00082D
:10004000EF3E0008EF3E0008EF3E0008EF3E0008DC
:10005000EF3E0008EF3E0008EF3E0008EF3E0008CC
:10006000EF3E0008EF3E0008EF3E0008EF3E0008BC
:10007000EF3E0008EF3E0008EF3E0008EF3E0008AC
:10008000EF3E0008EF3E0008EF3E00089B06000828
:1000900033070008EF3E0008EF3E0008EF3E00087F
:1000A000EF3E0008EF3E0008EF3E0008EF3E00087C
:1000B00015170008EF3E0008EF3E0008EF3E00086D
:1000C000EF3E0008EF3E0008EF3E0008EF3E00085C
:1000D000EF3E0008EF3E0008EF3E0008EF3E00084C
:1000E000EF3E0008EF3E0008EF3E0008EF3E00083C
:1000F000EF3E0008EF3E0008EF3E0008EF3E00082C
:10010000EF3E0008EF3E0008EF3E0008EF3E00081B
:10011000EF3E0008EF3E0008EF3E0008EF3E00080B
:10012000EF3E0008EF3E0008EF3E0008EF3E0008FB
:10013000DFF80CD004F084F900480047F903000808
:10014000880C00204FF07300A0F101000028FBD1C3
:100150007047000038B501211C2002F0B4FE4FF4B6
:10016000C040ADF800004820C14D8DF8030069463D
:10017000284602F0BEFCFF20ADF8000000248DF8F8
:1001800003406946BB4802F0B4FC0320ADF8000010
:100190008DF803406946284602F0ABFC3F20ADF8DD
:1001A00000008DF803406946B34802F0A2FC38BD58
:1001B00010B501218CB0084602F07CFEAF4C204601
:1001C00002F01EF9AE480090AE480021CDE90101D1
:1001D0001020CDE9030180200590400006908000AA
:1001E0000790202008900002CDE9090169462046C9
:1001F00002F073F901220221204602F0A3F9A0487F
:1002000001214C3801F02EFC0121204602F08FF92B
:100210000CB010BD08B50121082002F054FE0320E7
:100220008DF802004FF4E050ADF8000010208DF87A
:10023000030069468E4802F05CFC08BD08B5012148
:10024000082002F040FE4FF4C040ADF80000482006
:100250008DF803006946864802F04BFC08BD10B5D6
:1002600086B00121102002F02EFE3F20ADF81400D0
:1002700000248DF8174005A97F4802F03AFC0121BF
:10028000042002F020FEFF20ADF814008DF8174086
:1002900005A9784802F02DFC0121082002F013FE88
:1002A0000320ADF814008DF8174005A9704802F03E
:1002B00020FC0121480202F006FE01208DF8040016
:1002C0004FF46020CDE9020400948DF805406C4C99
:1002D00010208DF810004C3C6946204601F090FB40
:1002E000002301220A21204601F00AFC00230222F9
:1002F0000B21204601F004FC002303220C212046A0
:1003000001F0FEFB002304220D21204601F0F8FB42
:10031000002305221946204601F0F2FB00230622A5
:100320000121204601F0ECFB002307220221204698
:1003300001F0E6FB002308220321204601F0E0FB48
:10034000002309220421204601F0DAFB00230A22BF
:100350000521204601F0D4FB00230B220621204674
:1003600001F0CEFB00230C220721204601F0C8FB40
:1003700000230D220E21204601F0C2FB00230E2295
:100380000F21204601F0BCFB00230F22082120464C
:1003900001F0B6FB002310220921204601F0B0FB3A
:1003A0000121204601F054FB204601F06EFB20465F
:1003B00001F070FB0028FAD1204601F072FB2046C4
:1003C00001F074FB0128FAD006B010BD10B5FFF79C
:1003D00035FFFFF71FFFFFF742FF4FF47A31002090
:1003E00001F0BAF9FFF7E4FE01F05EF900F0F2F96E
:1003F000BDE8104000F062B9FFF7E8FF00F026FB0F
:1004000000F0C8FA4FF4FA7001F00DF9184F1E4CC5
:1004100000254FF4005600BF01F036F9A842FBD08A
:1004200001F032F905462068072816DA31463846C9
:1004300002F0B9FB08B120680BE03146384602F003
:10044000B2FB0028F9D0114800F0BCFB2068401C2A
:100450002060072801DB00F033FA00F09EFD0C4815
:1004600000F005FB00F07DFE00F0D5FED4E70000B3
:10047000000C01400008014000100140080002404B
:100480004C2401400002002000000020C40600208F
:10049000E4050020CC4800887047CB48408870476E
:1004A000C94948880A88801A00B2002802DA898877
:1004B000084400B280B27047C34801884088814236
:1004C00001D10120704700207047C04801680268D0
:1004D000C1F38061C2F3C06200681144C0F30070D0
:1004E0000844704730B58BB0FFF7E6FF00286FD1A6
:1004F000FFF7EBFF00286BD0B34C2088A16801EB1D
:10050000001212680192042202EB00128A5C8DF83C
:100510000820052202EB00128A5C8DF809200622D1
:1005200002EB00128A5C8DF80A20072202EB00120F
:100530008A5C8DF80B20082202EB00128A5C8DF891
:100540000C20092202EB00128A5C8DF80D200A2291
:1005500002EB00128A5C8DF80E200B2202EB0012D7
:100560008A5C8DF80F200C2202EB0010085C0199C8
:1005700005918DF8100000219DF808008DF81D10E0
:100580008DF81C1006918DF81E0001A905AA03E044
:100590000B1815185B79EB72401EC0B2F8D209989F
:1005A00005AD009095E80F0000F078F938B120888B
:1005B000A188401CB0FBF1F201FB12002080FFF784
:1005C00084FF08B1FFF78EFF01200BB030BDFFE7BD
:1005D0000020FAE72DE9F0417B4C6588A7886E1C66
:1005E000B6FBF7FC07FB1C662788BE4204D1FFF769
:1005F00079FF0020BDE8F081A66806EB05152860AC
:1006000065880426A06806EB05154155080A66882A
:100610000527A56807EB0616A8550D0C6688062762
:10062000A06807EB06168555080E65880726A168A1
:1006300006EB0515485561880825A06805EB0111F2
:100640004254110A65880926A06806EB0515415534
:10065000100C65880A26A16806EB05154855100E92
:1006600062880B25A16805EB0212885461880C2270
:10067000A06802EB011143546088A188401CB0FBC4
:10068000F1F201FB12006080FFF72CFF0120B1E7BF
:100690004D48002141800180704710B54B4C01212D
:1006A000083C204601F016FE002806D00121204615
:1006B00001F061FEBDE8104014E710BD08B514203C
:1006C0008DF8000000208DF8010004208DF8020054
:1006D00001208DF80300684601F023F908BD7FB5BD
:1006E000394C15461F22241F42EA411221788DF809
:1006F0000A1000214FF6FF7606EA40100123ADF8FC
:1007000000008DF80B108DF80C30ADF80420ADF81A
:100710000210ADF80610ADF808108DF80D306846DF
:1007200001F071FB2A49207841F82050401C2070CC
:100730007FBD10B5254C86B0083C0221204601F053
:100740001AFE01AA0021204601F0A8FC9DF80C0029
:10075000002814D11C499DF81700091F0978884208
:100760000DD21C280BD21A4951F82040002C06D07B
:1007700005980DF1040C00909CE80F00A04706B00E
:1007800010BD19B1491EC9B20012FAE7C0B27047D4
:1007900010B5044641B1491EC9B2601CFFF7F8FF0D
:1007A000217801EB002010BD007810BDC17A007BDC
:1007B00041EA0020704719B1012903D00020704799
:1007C000C0B27047000A704708000020086400406B
:1007D0004005002070B5012186B0084602F073FB89
:1007E0000121042002F06FFB0121480602F074FB96
:1007F0000121042002F067FB4FF40060ADF80C000B
:1008000048208DF80F002C4D03248DF80E4003A9CD
:10081000284602F06EF9A814ADF80C0018208DF8E7
:100820000F008DF80E4003A9284602F062F9234E0E
:10083000304601F061FA684601F046FB00248DF86D
:10084000064001258DF8075002208DF804008DF830
:1008500002408DF803400620ADF8000002948DF8A8
:1008600005506946304601F05AFA012211463046D9
:1008700001F0F8FC01220221304601F0F3FC1320C4
:100880008DF810008DF8114004208DF812008DF8BD
:10089000135004A801F045F806B070BD0FB4074826
:1008A00010B502A901F06AFB042803D0012010BC96
:1008B0005DF814FB0020FAE70008014000640040E6
:1008C00070B55D4D2C6801F098FE342002F0A3F85D
:1008D000286801F0CDFE594D002600BF05EB46000B
:1008E000B0F86010204601F086FF761CF6B2241D99
:1008F000102EF3D35FF00006204635F8161001F0F5
:100900007AFF761CF6B2241D102EF5D35FF0000698
:1009100005EB4600B0F84010204601F06CFF761C55
:10092000F6B2241D102EF3D35FF0000605EB46004F
:10093000018C204601F05FFF761CF6B2241D102EBC
:10094000F4D33F4E002500BF36F81510204601F0C5
:1009500052FF6D1CEDB2241D062DF5D3394E002536
:10096000204636F8151001F046FF6D1CEDB2241D2F
:10097000062DF5D3344E0025204636F8151001F02B
:100980003AFF6D1CEDB2241D062DF5D3BDE8704075
:1009900001F03FBE284810B500682849002200BF7A
:1009A00001EB4204521C30F8043BD2B2A4F8603090
:1009B000102AF5D35FF0000230F8043B21F8123022
:1009C000521CD2B2102AF7D35FF0000201EB4204AE
:1009D000521C30F8043BD2B2A4F84030102AF5D3B0
:1009E0005FF0000201EB4204521C30F8043BD2B22B
:1009F0002384102AF6D3124A002100BF30F8043BAA
:100A000022F81130491CC9B20629F7D30D4A00213A
:100A100030F8043B22F81130491CC9B20629F7D33B
:100A2000094A002130F8043B22F81130491CC9B2B0
:100A30000629F7D310BD000014000020C4060020D2
:100A4000B0050020BC050020C80500200020FF4A9A
:100A5000014600BF02EB4003A3F8601022F810101B
:100A6000A3F84010401C19841028F3DB70472DE9CF
:100A7000F04F91B080462021684603F087FA20228B
:100A8000F34908A803F069FA002738464FF47A7E44
:100A9000BA4608AAE9464FF0FF0B39F8104038F87B
:100AA00010604946B44202D221F81060012708EBD9
:100AB000400331F81040B3F84050AC4202D221F864
:100AC0001050022731F810C01C8CA44502D221F826
:100AD0001040032732F810C0B44501D922F8106045
:100AE00032F810C0AC4501D922F8105032F810C0CD
:100AF000A44501D922F8104031F8101032F810C086
:100B0000614502D1A3F880A042E0012F04D0022F5A
:100B10001AD0032F27D03BE04FF47A7675436FF05D
:100B20007C06744305EBC404A1EB0C0594FBF5F4BF
:100B300041F2707594FBF5F605FB164424B2002CC7
:100B400000DA2C4424B21CE04FF47A756C436FF049
:100B50007C056E4304EBC604A1EB0C0594FBF5F495
:100B600004F5FA640DE04FF47A7466436FF07C0488
:100B7000654306EBC504A1EB0C0594FBF5F404F505
:100B80007A64C4EB0414A50095FBFEF4A3F880403E
:100B9000A9B1A1EB0C0464256C4394FBF1F4A3F818
:100BA000A04064246143B1FBFBF1401CC0B2A3F838
:100BB000C0101028FFF471AF11B0BDE8F08FA3F89A
:100BC000A0A0EEE72DE9F05FA24E04464FF4804569
:100BD0002946304601F0E7FF0028F9D0DFF8788297
:100BE00000209E4D98F80010DFF874924FF40067D3
:100BF0004FF4805A4FF4806B00297CD0994C00212F
:100C000004EB4102A2F8600024F81100A2F84000B1
:100C10001084A2F88000491CA2F8A000C9B2A2F872
:100C2000C0001029ECD34FF47A7000F0D1FC012100
:100C30008A4800F042FF022001F091FC0028FAD01F
:100C400000204D4635F8101004EB4002401CC0B2A5
:100C5000A2F860101028F5D3022001F08EFC4FF4AA
:100C60000061304601F0B3FF4FF47A7000F0B0FC41
:100C7000DFF8E8910121484600F01FFF022001F053
:100C80006EFC0028FAD0714F0020E03735F81020B4
:100C900004EB4001B1F860108A4209D335F8102006
:100CA00037F81030521AC2EB0222591A92FBF1F1B6
:100CB00024F81010401CC0B21028E7D34FF4006194
:100CC000304601F086FF022001F057FC51463046C5
:100CD00001F07DFF4FF47A7000F07AFC0121484664
:100CE00000F0EBFE022001F03AFC0028FAD00020D0
:100CF00035F8103000E091E004EB4002B2F86010EB
:100D00008B420CD335F8103007EB400C5B1ABCF863
:100D100040C0C3EB0323ACEB010193FBF1F1401C9A
:100D2000C0B2A2F840101028E2D35146304601F07C
:100D300050FF022001F021FC5946304601F047FFE8
:100D40004FF47A7000F044FC0121484600F0B5FEF3
:100D5000022001F004FC0028FAD0002035F8103001
:100D600004EB4002B2F860108B420CD335F810301F
:100D700007EB400C5B1ABCF820C0C3EB0323ACEBC1
:100D8000010193FBF1F1401CC0B211841028E5D39E
:100D90005946304601F01DFF022001F0EEFB3148BC
:100DA000FFF765FE294D0020343D05F10C0298F84F
:100DB000001002F10C0303EB410302EB410205EBCF
:100DC000410100BF04EB400531F8026C35F8807F2B
:100DD000401C3E4421F8026C32F8026C2F8CC0B2E9
:100DE0003E4422F8026C33F8026CB5F840501028EB
:100DF000354423F8025CE5D331F8020D0009088080
:100E000032F8020D0009108033F8020D0009188035
:100E1000BDE8F05F4FF4FA7000F005BC04EB41024E
:100E2000A2F8600024F81100491CA2F84000C9B2E1
:100E300010841029F2D34FF47A7000F0C9FB01211D
:100E4000A846284600F039FE02200DE0E405002007
:100E5000984E0008000C01400000002000240140D2
:100E600000020020A407002001F079FB0028EBD04D
:100E700000204D4635F8101004EB4002401CC0B273
:100E8000A2F860101028F5D3022001F076FBB946D5
:100E90003946304601F09BFE4FF47A77384600F031
:100EA00097FB0121404600F008FE022001F057FBAD
:100EB0000028FAD05FF0000035F8101004EB400273
:100EC000B2F86020891A34F81020914203DD35F819
:100ED000101024F81010401CC0B21028ECD3494662
:100EE000304601F076FE022001F047FB51463046C5
:100EF00001F06DFEB946384600F06AFB012140461C
:100F000000F0DBFD022001F02AFB0028FAD00020CF
:100F100035F8102004EB4001B1F86030D21AB1F876
:100F200040309A4203DD35F81020A1F84020401CE3
:100F3000C0B21028ECD35146304601F04AFE0220E0
:100F400001F01BFB5F465946304601F040FE484623
:100F500000F03EFB0121404600F0AFFD022001F011
:100F6000FEFA0028FAD0002035F8102004EB4001EA
:100F7000B1F86030D21A0B8C9A4202DD35F810209D
:100F80000A84401CC0B21028EED33946304601F026
:100F900020FE022001F0F1FA3AE72DE9F0474FF484
:100FA0007A76304600F014FBCF4F0121384600F02E
:100FB00084FD022001F0D3FA0028FAD0CB4DCC4CAE
:100FC000002000BF35F8101004EB4002401CC0B2F6
:100FD000A2F860101028F5D3022001F0CEFADFF855
:100FE00014934FF4006A5146484601F0F0FDB046B4
:100FF000304600F0EDFA0121384600F05EFD022097
:1010000001F0ADFA0028FAD05FF0000035F81010BA
:1010100024F81010401CC0B21028F7D351464E4699
:10102000484601F0D6FD022001F0A7FA4FF480599E
:101030004946304601F0CBFD404600F0C9FA012197
:10104000384600F03AFD022001F089FA0028FAD073
:101050005FF0000035F8101004EB4002401CC0B2F5
:10106000A2F840101028F5D34946304601F0B1FDF2
:10107000022001F082FA4FF480694946304601F0BF
:10108000A6FD404600F0A4FA0121384600F015FD07
:10109000022001F064FA0028FAD0002035F8101080
:1010A00004EB4002401CC0B211841028F6D349461C
:1010B000304601F08EFD022001F05FFA8C4B0020DB
:1010C00013F1E00304EB400134F81050B1F8602054
:1010D000954201D224F81020B1F84050954201D237
:1010E000A1F840200D8C954200D20A8434F810609B
:1010F00033F81050AE4201D924F8105003EB4006EB
:10110000B1F840C0B6F84070BC4501D9A1F84070B4
:10111000B1F820C0368CB44500D90E8434F810C024
:10112000AD1AACEB020CCCEB0C2C9CFBF5F524F8C7
:10113000105031F8405FBF1AAD1AC5EB052595FB7D
:10114000F7F521F82059401C0D88C0B2AD1AB21A2B
:10115000C5EB052595FBF2F20A801028B2D3BDE855
:10116000F0872DE9F05F644C0027DFF884A1676009
:1011700020783E4642F210753946AAF12809A8B1F6
:1011800062780020D04639F812201E3A08EB40035E
:10119000B3F8A0C0944504DBB3F88030491C1E446A
:1011A000C9B2401CC0B21028F0D36660B6FBF1F0A3
:1011B000DFF83CB10026ABF1340B4FF00108606062
:1011C0003BF816006168401A00F0D2F9A84201DA33
:1011D00066700546207808B984F80080761CF6B25F
:1011E000062EEDD363780020524639F81310404B99
:1011F0004446103BB1F11E0102EB4005B5F8A0508A
:101200008D4201DB1F5400E01C54401CC0B210286A
:10121000F2D3BDE8F09FD0B588B0C5200822009079
:10122000334900208DF804206B4610391F180E5CDE
:10123000401C7E710828F9DBC62004908DF814202C
:10124000002004AA0B1816181B7A401C737108287A
:10125000F8DB012060F307042748C726407860F3D5
:101260000F249DE80F00FFF7B5F904AF97E80F00D2
:10127000FFF7B0F92B461A4621463046FFF7AAF988
:1012800008B0D0BD38B500F005FAC821B0FBF1F2C6
:1012900001FB1200002826D1002118A003F07CF9E0
:1012A0001348E030018C0091B0F840300288B0F86B
:1012B000601015A003F070F90D4C208C0090B4F86C
:1012C00040302288B4F860100FA003F065F9B4F83C
:1012D000C030B4F8A020B4F8801001B011A0BDE86F
:1012E000304003F059B938BD00240140000200200D
:1012F000E4050020000C01401800002053656E73C7
:101300006F723A25640A00004E203A2025642009B5
:10131000523A20256409473A20256409423A20259B
:10132000640D0A005B6873765D20482833363029E7
:101330003A202564095328313030293A20256409A0
:101340005628313030293A2025640D0A000000006B
:1013500070B501E000F561600028FBDB4FF46161CE
:1013600090FBF1F201FB120040F68C2102B24FF427
:10137000E165884202DDC0F5616009E0A84202DD56
:10138000A0F5E16004E0B0F5617F01DDC0F5E1604A
:101390000A2190FBF1F3C3F15A048B4B33F914602B
:1013A00090FBF1F401FB140490FBF1F033F9100011
:1013B000444340F23D2004F58F7494FBF0F0304438
:1013C000AA4200DD404270BDC0F56170C0E7002157
:1013D000002806DA0121404200E0B43000B20028C3
:1013E000FBDBB42290FBF2F302FB1300764AB63A21
:1013F0005A2803DDC0F1B40039B901E009DA21B19E
:1014000032F91000C0F1000001E032F9100000B222
:1014100070474FF0FF3070472DE9F04100254FF441
:1014200061784FF4E1762F46002801DA0127404227
:101430000FFA80FCA81904B22046FFF789FF0EB10D
:1014400084450DD14FF00A0004F1040494FBF0F040
:1014500000B2002F02D0C0F1000000B2BDE8F08160
:1014600001DAA04600E02546A8EB050000EBD070AD
:1014700040F34F06DEE700B5FFF7CEFFC0F15A009C
:1014800000B200BDF0B505004FF0000420461AD4AC
:1014900006462046FFF79BFF854201DCB54210DA85
:1014A000641C24B25A2CF3DB0BE006462046FFF7FF
:1014B0008EFF854201DBB54203DD641E24B2BC42CF
:1014C000F3DA2046F0BD6FF05807EEE700B579B1CA
:1014D000B8B16422504301EBD17200EB620090FB83
:1014E000F1F0002913DAFFF7CDFFB43000B200BDF0
:1014F000002802DA6FF0590000BD06D04FF05A0004
:1015000000BD002901DAB42000BD002000BD5DF857
:1015100004EBB7E7F0B505460C4617461046FFF753
:1015200053FF296800FB01F63846FFF711FF2168D9
:1015300000FB11663846FFF70BFF296800FB01FC32
:101540003846FFF741FF216800FB01C042F21071ED
:1015500096FBF1F290FBF1F02A602060F0BD00E014
:1015600008440028FCDB90FBF1F201FB12007047FD
:10157000002800DA404270474043704770B50028A9
:1015800000DA404200240546214602F00AFD0F49D8
:1015900001EB500002F01BFD0646A10341EA954114
:1015A000A8033246002302F0A7FC80196141401CC9
:1015B00041F1000149084FEA30004FF0640100FB9F
:1015C00001F04FEAD01070BDD600002000403B2350
:1015D0002C4A10B5117819B10A21B0FBF1F415E0CD
:1015E00000EBC00101234FF0E020137041610021A6
:1015F000816103610369DC0701D0DB03FAD5016176
:101600008161117010BD00BFFEF79CFD641EFBD20E
:1016100010BD10B55FF00004FEF794FD641CE4B249
:10162000642CF9D310BD2DE9F041164A0446107818
:1016300020BB4FF0010C82F800C04FF47A770025F0
:101640004FF0E02013E039468C4200D8214642F2A8
:1016500028334B4343618561C0F810C00369DE073E
:1016600001D0DB03FAD505618561611A8CB2002CCB
:10167000E9D11570BDE8F081FFF7CBFF641EA4B27D
:10168000FAD2F7E78C0100203048008870472F48D5
:10169000408870472D484188008801EB4102C2EB29
:1016A000C11100EBC10070471FB50121084601F0D0
:1016B00013FC4FF47A70ADF80800254825494FF027
:1016C00080440068B0FBF1F0401EADF8040001A9B1
:1016D000204601F0DFFC0121204602F0BAF9012288
:1016E0001146204601F094FF0121204601F07BFFC6
:1016F00000248DF801408DF8024001208DF8030090
:101700001C208DF80000684600F00BF90F4844805B
:1017100004801FBD10B501218C07204602F08DF911
:1017200000280ED00121204602F084F907480188E4
:1017300040F2E732914205D3002101804188491CE3
:10174000418010BD0188491C018010BD8E01002020
:10175000E801002040420F0030B50D4604466C49B8
:101760006B48143185B050F8240051F82410084318
:1017700040F00100012101F0A6FB65481438ECB3EC
:1017800050F82400012101F0A7FB18208DF8130068
:101790005F4804A9283030F81400ADF81000032089
:1017A0008DF812005B4850F8240001F0A2F90420E3
:1017B0008DF81300564804A9323030F81400ADF803
:1017C00010005448143050F8240001F092F9002021
:1017D0000095ADF804004F4DADF80600ADF80800D7
:1017E000ADF80C000C20143DADF80A0055F82400AB
:1017F000694602F061F955F8240000E004E0012197
:1018000002F0CDF905B030BD0068012101F05BFBAD
:10181000BBE738B5044600214FF0006000F0B0F897
:101820003B483C3010F814008DF8000001208DF882
:1018300001008DF802008DF80300684600F071F891
:1018400034480122143840F2255150F8240002F0A7
:10185000B0F938BD2F491839087070472D49FF205D
:1018600018390870704770B52A4D0E460446143D6D
:10187000402155F8240002F049FA0028F8D055F824
:1018800024003146BDE8704002F0DFB90FB430B536
:101890008BB0054610AA68460F9902F08DFE6C4683
:1018A00003E02846641CFFF7DEFF21780029F8D109
:1018B0000BB030BC5DF814FB70B5164D0446143DFA
:1018C000402155F8240002F021FA0028F8D055F8FC
:1018D000240002F0BEF9C0B270BD70B50D4C0646D2
:1018E000183C94F90000401C10D0251D94F900000C
:1018F000402155F8200002F009FA0028F6D094F9AA
:101900000000F1B255F8200002F09FF9304670BD9A
:10191000CC4E0008AC010020284908432849086043
:10192000704770B50F23C47801780122F4B1244CBC
:101930002468457804F4E064C4F5E064240AC4F142
:101940000406E3408478B5401C402C4301F1E021BB
:10195000230181F80034007800F01F018A4040091B
:10196000800000F1E020C0F8002170BD01F01F00F0
:1019700082404809800000F1E020C0F8802170BD5D
:10198000104A114001430E48001F016070470C4A85
:10199000121D0029116801D0014300E0814311604C
:1019A00070474FF0E0210428086903D020F00400BC
:1019B0000861704740F00400FAE700000000FA05F3
:1019C0000CED00E080FFFF1FC54910B5884202D131
:1019D000012144150AE0C349884202D101210415BE
:1019E00004E0C14988420AD10121CC03204601F01C
:1019F0007CFA2046BDE81040002101F076BA10BD07
:101A000010B54268B94B0C791A400B6842EA0422BF
:101A1000134343608368B64A1340D1E9024222432C
:101A20004C7943EA44031A438260C26A097C22F477
:101A30007002491EC9B242EA0151C16210BD0021C3
:101A40000160017141718160C160012101747047C1
:101A50000029816802D041F0010101E021F001017B
:101A6000816070470029816802D041F4807101E0F3
:101A700021F4807181607047002A4268C9B201D0A8
:101A80000A4300E08A4342607047816841F00801E0
:101A900081607047014600208968090700D5012050
:101AA0007047816841F00401816070470146002061
:101AB0008968490700D5012070470029816802D054
:101AC00041F4A00101E021F4A001816070470146CA
:101AD00000208968490200D5012070474268491EEC
:101AE00022F4604242EA4131416070470029416876
:101AF00002D041F4006101E021F4006141607047CF
:101B000070B5072409290AD9C568A1F10A0606EBB0
:101B10004606B440A543B3401D43C56007E00569D0
:101B200001EB4106B440A543B3401D4305611F23AB
:101B3000072A09D2446B521E02EB820293409C4357
:101B400091400C43446370BD0D2A09D2046BD21F2F
:101B500002EB820293409C4391400C43046370BDAE
:101B6000C46A0D3A02EB820293409C4391400C43BD
:101B7000C46270BD0029816802D041F4801101E087
:101B800021F4801181607047C06C80B27047544866
:101B90004C30006870470029416802D041F48061F0
:101BA00001E021F48061416070470029416802D062
:101BB00041F4805101E021F4805141607047826816
:101BC00022F4E0420A43826070470029816802D013
:101BD00041F4004101E021F4004181607047002997
:101BE000816802D041F4021101E021F40211816008
:101BF0007047014600208968890200D5012070479E
:101C000070B5072409290AD9C568A1F10A0606EBAF
:101C10004606B440A543B3401D43C56007E00569CF
:101C200001EB4106B440A543B3401D430561836BFE
:101C3000C3F30154121B921C02EB82041F22A24028
:101C40009343A1400B43836370BD826B491E22F412
:101C5000401242EA01518163704708B50844009080
:101C6000026008BD08B5084428300090006880B2C2
:101C700008BD42681F4B1A400A43426070474162E8
:101C800082627047426822F01F020A434260704736
:101C9000134908310028086802D040F4000001E030
:101CA00020F40000086070470246002012680A42D3
:101CB00000D001207047C9430160704710B502464B
:101CC000002054680B0AC9B20C401168194202D0B6
:101CD000002C00D0012010BD6FEA11210160704777
:101CE0000024014000280140003C0140FFFEF0FFBD
:101CF000FDF7F1FFFFFD3FFFFE4910B588424FF0B1
:101D0000010101D14C0601E04FF08064204601F052
:101D1000F5F82046BDE81040002101F0EFB810B5FD
:101D20000368002223F002030360036843F0010309
:101D300003604FF6FF7300E0521C4468E40701D1D2
:101D40009A42F9D14268D2073ED08A79012A0268C4
:101D50003CD022F080020260CA79012A026838D0A1
:101D600022F0400202600A7A012A026834D022F08E
:101D7000200202604A7A012A026830D022F0100262
:101D800002608A7A012A02682CD022F008020260DE
:101D9000CA7A012A026828D022F0040202608A78F6
:101DA000CC78920742EA04620C7942EA04424C7908
:101DB000098842EA0452491E0A43C261016821F0BF
:101DC00001010160002114E0002010BD42F08002FA
:101DD000C1E742F04002C5E742F02002C9E742F005
:101DE0001002CDE742F00802D1E742F00402D5E745
:101DF000491C4268D20701D09942F9D14068C00716
:101E0000E2D1012010BDF0B5827A01219140BA4A99
:101E1000136843F001031360B74B1C331C688C43F9
:101E20001C60B54D067BB54C0C35A6B92E688E43AB
:101E30002E604688C78846EA0746877A04EBC707BC
:101E4000C7F840660688878846EA0746877A04EB23
:101E5000C707C7F84466067B012E12D12E680E43D1
:101E60002E60867A056804EBC6064FEA3545C6F84B
:101E70004056867A456804EBC6044FEA3545C4F8F7
:101E800044569D4CC57A241D002D256806D00D436F
:101E90002560994C0589143415B104E08D43F7E7AA
:101EA00025688D4325600589012D02D125680D43E4
:101EB0002560407B012802D118680843186010682B
:101EC00020F001001060F0BD00218171C17101722C
:101ED00041728172C1728170C1700321017102214E
:101EE000417101210180704783490A6842F0010273
:101EF0000A600A6843F60E739A430A600A6842EA67
:101F000000200860086820F0010008607047002980
:101F1000016802D041F4803101E021F48031016098
:101F200070470029016813D041F080010160D0F8AA
:101F3000841141F48071C0F88411D0F8941141F4F7
:101F40008071C0F89411D0F8A41141F4807112E0AE
:101F500021F080010160D0F8841121F48071C0F873
:101F60008411D0F8941121F48071C0F89411D0F844
:101F7000A41121F48071C0F8A411704730B5024655
:101F8000002093685B0108D49068000101D501200E
:101F900003E09068C00037D5022002EB0012D2F8AF
:101FA000803103F00103C2F880310B7A73B3D2F8A9
:101FB00080414D681C434B7A43EAC5031C43C2F879
:101FC00080418B7A03F00F038B72D2F8843123F0B7
:101FD0000F03C2F88431D2F884318C7A2343C2F8DB
:101FE0008431CB7ACC6843EA0423C2F88831CB7BB6
:101FF000096943EA0121C2F88C11D2F8801141F03D
:102000000101C2F8801130BD042030BDD2F880310A
:102010004C7A23430C8843EA4453C2F88031D0E71A
:10202000002221B1012905D0022906D112E08268DF
:10203000334801E08268334802403349501A8A42EB
:1020400014D00ADCA2B16FF0806010180FD0022803
:102050000CD10FE082682D48EEE7B0F5007F09D083
:102060002B49401803D0B0F5003F03D00020704743
:10207000022070470120704741B101290AD002298E
:1020800003D1816841F4000181607047816841F0AB
:102090008001F9E7816841F40041F5E710B500EBF4
:1020A0000113D3F8B04114F004041472D3F8B04112
:1020B00045D0E408C2F80440D3F8B04104F002046B
:1020C0005472D3F8B44104F00F049472D3F8B441BD
:1020D000240AD474D3F8B841D472D3F8B841240A8E
:1020E0001473D3F8B841240C5473D3F8B841240EB8
:1020F00094730FE000640040006600400060004000
:1021000003000004000300080001000800000310A1
:102110000001FFF7D3F8BC41D473D3F8BC41240AC3
:102120001474D3F8BC41240C5474D3F8BC311B0E86
:10213000937439B1016941F02001016110BD640D52
:102140001460B9E7C16841F02001C16010BD21B140
:10215000016941F0200101617047C16841F020012F
:10216000C16070470246002029B1012902D11069DF
:1021700000F003007047D068FAE700234FF6FF72C3
:1021800021B1012917D0022924D03AE0016821F0B9
:10219000020141F00101016000E0521E416801F0BE
:1021A0000301012901D0002AF7D1406800F00300A3
:1021B000012823D124E0016821F00301016000E03F
:1021C000521E4168890701D0002AF9D14068800772
:1021D00014D115E0016821F0010141F00201016014
:1021E00000E0521E416801F00301022901D0002ADB
:1021F000F7D1406800F00300022801D0002300E07E
:102200000123184670470268002122F0010242F0C3
:1022100002020260406800F00300022800D10121A0
:102220000846704703684FF6FF71002223F002034F
:10223000036000E0491E43689B0701D50029F9D1DE
:102240004068800700D40122104670478069C0F3BF
:102250000210000170478069000E70478069C0F36A
:1022600007407047002A426901D00A4300E08A43D0
:10227000426170470246002011F4700F03D092694A
:1022800004E001207047CB0104D552680A401103D5
:10229000F7D170470B0101D59268F7E78B0101D5A3
:1022A000D268F3E71269F1E7534A914202D1002163
:1022B00081617047C1F313028B0101D5C260704781
:1022C0004B0101D502617047090101D58260704759
:1022D000426070470246002053690B424AD0B1F574
:1022E000807F3BD013DC08292ED007DC012926D0C3
:1022F000022927D004293DD1D0682BE0102925D010
:10230000202926D0402935D11069102130E0B1F5BF
:10231000004F2BD00BDCB1F5007F22D0B1F5806FE0
:1023200022D0B1F5006F25D19069702120E0B1F580
:10233000803F11D0B1F5003F1CD15068E5E79068AF
:102340002E4915E0D06802E0D068DEE7106903216D
:102350000EE0106908210BE05068FBE7906901214D
:1023600006E09069022103E0906900E050680421D2
:1023700000F03BB8704730B5082310240422B1F5B3
:10238000007F1DD010DC202929D007DC012921D0B5
:10239000042922D0082900D1C46030BD402920D0B2
:1023A000B1F5807FF9D10BE00025B1F5004F06D0E3
:1023B00008DCB1F5806F03D0B1F5006FEDD1856118
:1023C000426030BDB1F5803F0DD0B1F5003FF8D18E
:1023D000446030BD0949816030BDC36030BD0361D8
:1023E00030BD046130BD436030BD024600200A426A
:1023F00000D00120704700007000F03001010100A2
:1024000001684FF6FE7211400160002101604160D9
:102410008160C1606A496A4A0839904203D14868BC
:1024200040F00F0006E0664A1432904204D148683A
:1024300040F0F00048607047614A2832904203D172
:10244000486840F47060F5E75D4A3C32904203D141
:10245000486840F47040EDE7594A5032904203D149
:10246000486840F47020E5E7554A6432904203D151
:10247000486840F47000DDE7514A7832904203D159
:10248000486840F07060D5E74E4A111F904203D172
:10249000086840F00F0006E04A4A1432904204D126
:1024A000086840F0F00008607047464A28329042C1
:1024B00003D1086840F47060F5E7424A3C3290422C
:1024C00003D1086840F47040EDE73E4A5032904234
:1024D000EAD1086840F47020E5E730B5036847F6B4
:1024E000F07293430C6A8A682243D1E904452C4375
:1024F00022438C692243CC6922434C6A22438C6A72
:1025000022431A430260CA6842600A6882604968CE
:10251000C16030BD0021016041608160C160016126
:1025200041618161C161016241628162704700293C
:10253000016802D041F0010102E04FF6FE72114045
:1025400001607047002A026801D00A4300E08A4314
:102550000260704741607047406880B27047014632
:102560000020CA0002D5174A083A01E0144A083A86
:1025700012680A4200D001207047C10003D51149FA
:10258000091F086070470E490839486070470146C6
:102590000020CA0002D50B4A083A01E0084A083A6E
:1025A00012680A4200D001207047C10003D50549D6
:1025B000091F0860704702490839486070470000E9
:1025C0000800024008040240FC4A116801F038018A
:1025D000014311607047F9490A6822F008020A6055
:1025E0000A6802430A607047F4490A6822F0100240
:1025F0000A600A6802430A607047F048F049416087
:10260000F04941607047ED48ED494160ED49416056
:102610007047EA48016941F0800101617047E7486D
:10262000016941F0800101617047E4490420CA68F2
:10263000D20701D001207047CA68520701D5022095
:102640007047C968C906FBD50320704700B503462B
:10265000FFF7EBFF03E000BFFFF7E7FF5B1E01287A
:1026600003D0002B00D1052000BD002BF4D1FAE7E8
:1026700070B505464FF430263046FFF7E7FF0428D3
:1026800011D1CE4C206940F00200206165612069C3
:1026900040F0400020613046FFF7D8FF216941F645
:1026A000FD721140216170BD30B54FF430252846D0
:1026B000FFF7CCFF042810D1C04C206940F0040083
:1026C0002061206940F0400020612846FFF7BEFFEE
:1026D000216941F6FB721140216130BD00B503460E
:1026E000FFF7A3FF03E000BFFFF79FFF5B1E01287A
:1026F00003D0002B00D1052000BD002BF4D1FAE758
:1027000030B54FF430252846FFF7E8FF042810D1F4
:10271000AA4C206940F004002061206940F040008C
:1027200020612846FFF7DAFF216941F6FB7211406C
:10273000216130BDA1490020C969890700D5012068
:10274000704770B5A525FFF7F5FF00B100254FF4E0
:1027500030263046FFF77AFF042827D1974C984857
:10276000A0609848A060206940F0200020612069A6
:1027700040F0400020613046FFF768FF41F6EF76F9
:1027800004280ED1206941F6DF71084020612069DC
:1027900040F0100020618C4805804FF40050FFF796
:1027A00055FF052802D021693140216170BDF8B57F
:1027B000064600204FF4005C00900D466046FFF78F
:1027C00045FF042816D17D4C206940F001002061AE
:1027D00035806046FFF73AFF41F6FE77042806D1C0
:1027E000B61C280C009630806046FFF72FFF216949
:1027F00039402161F8BDF0B506464FF400570D464B
:102800003846FFF723FF04280CD16C4C206940F0B8
:102810000100206135803846FFF718FF2169BA1E94
:1028200011402161F0BDF0B506464FF400570D464A
:102830003846FFF70BFF042813D1604C6048A060B6
:102840006048A060206940F0100020613580384663
:10285000FFF7FCFE052804D0216941F6EF72114014
:102860002161F0BD2DE9F041C04300F0FF0CC0F341
:102870000727C0F30746050E4FF400584046FFF700
:10288000E5FE042837D14D4C4D49A1604D49A1606A
:10289000216941F010012161BCF1FF0F08D04A48C5
:1028A0000830A0F800C04046FFF7D0FE04281BD136
:1028B000FF2F07D044480A3007804046FFF7C6FE86
:1028C000042811D1FF2E07D03F480C300680404627
:1028D000FFF7BCFE042807D1FF2D07D03A480E3081
:1028E00005804046FFF7B2FE052804D0216941F675
:1028F000EF7211402161BDE8F08170B505464FF4DB
:1029000030263046FFF7A2FE042818D12B4C2C4865
:10291000A0602C48A060206940F020002061206960
:1029200040F0400020613046FFF790FE41F6DF7135
:10293000042805D0052802D022690A40226170BD12
:10294000206908402061206940F0100020611E4885
:102950000DB1002100E0A52101803046FFF776FE91
:102960000528ECD0216941F6EF721140216170BD5C
:10297000F0B5124C0746124816460D46A0601148A5
:10298000A0604FF4005C6046FFF760FE042814D19D
:10299000206940F01000206135430B493D43891CFC
:1029A00045F0F80008806046FFF750FE052804D087
:1029B000216941F6EF7211402161F0BD0020024013
:1029C00023016745AB89EFCD00F8FF1F1C48C069A4
:1029D000800870471A48006A704719490020096842
:1029E000890600D501207047154A0029116901D0D8
:1029F000014300E081431161704701460020104A05
:102A0000012903D0D2680A4203D17047D169C907AE
:102A1000FBD0012070470A49C8607047084904206C
:102A2000CA68D20701D001207047CA68520701D591
:102A300002207047C968C906FBD503207047000013
:102A400000200240914910B5884206D1012104209E
:102A500000F04BFA002104203BE08D49884206D16A
:102A60000121082000F041FA0021082031E08949C5
:102A7000884206D10121102000F037FA00211020F1
:102A800027E08549884206D10121202000F02DFA57
:102A9000002120201DE08149884206D101214020EB
:102AA00000F023FA0021402013E07D49884206D13E
:102AB0000121802000F019FA0021802009E07949E5
:102AC00088420AD184150121204600F00EFA002127
:102AD0002046BDE8104000F008BA10BD10B5012135
:102AE000084600F002FA0021BDE81040012000F085
:102AF000FCB9F0B5CA78002502F00F03D20601D563
:102B00008A7813430A784FF00F0E12F0FF0F4FF040
:102B100001021DD0D0F800400F8802FA05F63740B8
:102B2000B74211D14FEA850C0EFA0CF724EA0707D9
:102B300003FA0CF43C43CF78282F02D0482F02D060
:102B400002E0466100E006616D1C082DE4D30460DC
:102B50000C88FF2C1ED944685FF0000606F10807B8
:102B600002FA07F50F882F40AF420FD14FEA860CCB
:102B70000EFA0CF7BC4303FA0CF73C43CF78282F2E
:102B800000D14561CF78482F00D10561761C082E11
:102B9000E4D34460F0BD4FF6FF71018002218170E3
:102BA0000421C17070470246002092680A4200D09A
:102BB00001207047806880B2704702460020D268CA
:102BC0000A4200D001207047C06880B2704701619E
:102BD0007047416170470AB10161704741617047B8
:102BE000C160704741F48032826181618261816994
:102BF000806970472C4B10B51A684FF680742240DC
:102C000042EA00100843186010BD2849C8617047A7
:102C1000F0B5254C002801DAE36900E06368420D55
:102C2000120185B2C0F301579540C0F30346032F4C
:102C300005D0C2020AD50322B240934307E023F035
:102C40007062636823F07063636002E0AB4343F03B
:102C5000706201B12A43002801DAE261F0BD6260CE
:102C6000F0BD10B58A0721F003040F49130F21446A
:102C70000F228C689A4094438C608A689840024383
:102C80008A6010BD0949C1F8DC00704700080140A6
:102C9000000C0140001001400014014000180140E8
:102CA000001C0140002001400000014000002042C3
:102CB000A448016841F0010101604168A24A114045
:102CC00041600168A14A11400160016821F480213E
:102CD0000160416821F4FE0141604FF41F018160F1
:102CE000704798490A6822F480320A600A6822F420
:102CF00080220A60B0F5803F07D0B0F5802F03D165
:102D0000086840F4A02008607047086840F48030EC
:102D1000F9E70246002053098A49012B0AD0022B09
:102D20000AD0496A02F01F02012393400B4200D0EF
:102D3000012070470968F5E7096AF3E718B5002034
:102D40004FF4A06400903120FFF7E3FF0099491C85
:102D50000091A14201D00028F5D03120FFF7D9FF22
:102D6000002800D0012018BD76490A6822F0F80238
:102D700042EAC00008607047754908607047714AB0
:102D80005368084323F47C1318435060704770491C
:102D9000086670476B4A516821F003010143516096
:102DA00070476848406800F00C007047654A5168F9
:102DB00021F0F001014351607047624A516821F4EB
:102DC000E0610143516070475E494A6822F46052F5
:102DD00042EAC000486070475A4A0029517A01D03F
:102DE000014300E08143517270475949C1F8D8004E
:102DF0007047544A516821F4404101435160704783
:102E00005049002281F8202081F82020012802D09A
:102E1000042802D1052081F8200070474D49086040
:102E2000704748490A6A02430A627047494944396F
:102E30000860704730B543494A6812F00C03464AAF
:102E400003D0042B01D0082B21D002604A680F2345
:102E5000424C03EA1212A35C0268DA4042604B68FB
:102E6000072505EA1323E35C22FA03F383604B682A
:102E700005EAD323E35CDA40C2604968032303EA2E
:102E80009131231F595CB2FBF1F1016130BD4A68F9
:102E90004B6802F470124FF0020413F4803F04EB0D
:102EA000924202D04B689B0301D52D4B00E02A4B88
:102EB0005A43CAE7234A0029516901D0014300E07F
:102EC0008143516170471F4A0029916901D0014334
:102ED00000E08143916170471A4A0029D16901D00D
:102EE000014300E08143D1617047164A0029D1684F
:102EF00001D0014300E08143D1607047114A0029AD
:102F0000116901D0014300E081431161704711490B
:102F10004039086070470E49C86470470949C87154
:102F200070470848416A41F0807141627047054A24
:102F30000146002092680A4200D0012070470149F2
:102F400088727047001002400000FFF8FFFFF6FE95
:102F5000000042428004424200127A00D801002060
:102F600000093D00F94910B5884202D10121C4147D
:102F700086E0B0F1804F09D0F54988420DD101219A
:102F80000220FFF7BBFF0021022064E00121084678
:102F9000FFF7B4FF002101205DE0EE49884206D131
:102FA00001210420FFF7AAFF0021042053E0EA4991
:102FB000884206D101210820FFF7A0FF0021082048
:102FC00049E0E649884206D101211020FFF796FF2B
:102FD000002110203FE0E249884206D10121202053
:102FE000FFF78CFF0021202035E0DE49884202D126
:102FF0000121441444E0DC49884202D10121CC047F
:103000003EE0DA49884202D101210C0538E0D84976
:10301000884202D101214C0532E0D649884206D1CE
:1030200001214020FFF76AFF0021402013E0D24930
:10303000884206D101218020FFF760FF0021802017
:1030400009E0CE4988420AD1841501212046FFF7C4
:1030500055FF00212046BDE81040FFF74FBFC8498B
:10306000884202D101210C040AE0C649884202D1FB
:1030700001214C0404E0C44988420AD101218C0496
:103080002046FFF732FF2046BDE810400021FFF741
:103090002CBF10BD30B50288AC4BB24C98420DD05D
:1030A000A0420BD0B0F1804F08D0A94DA84205D066
:1030B000A84DA84202D0A84DA84203D122F0700525
:1030C0004A882A43A54DA84206D0A54DA84203D060
:1030D00022F44075CA882A4302808A8882850A8839
:1030E000028598420AD0A04208D0A54A904205D055
:1030F000A44A904202D0A44A904201D1097A0186A2
:103100000121818230BD30B5028C22F0010202849F
:10311000028C8388048B22F0020224F073050C8851
:103120002C430D8915434A882A43884DA8420BD069
:103130008C4DA84208D0924DA84205D0914DA8428E
:1031400002D0914DA8420DD122F008054A8923F4FE
:1031500040732A4322F004058A882A438D891D433F
:10316000CB892B4383800483C9888186028430BD48
:1031700070B5028C22F010020284028C8488038BCA
:103180000D8823F4E6464FF6FF7303EA0525354321
:103190000E8922F0200203EA061616434A8803EA43
:1031A00002123243694EB04202D06E4EB04215D187
:1031B00022F080064A8924F4406403EA0212324372
:1031C00022F040068A8803EA021232438E8903EA1B
:1031D00086062643CC8903EA84043443848005832D
:1031E000C9880187028470BD70B5028C22F4807298
:1031F0000284028C8488838B0D8823F073031D4323
:1032000022F400730E894FF6FF7202EA06261E436F
:103210004B8802EA032333434C4EB04202D0514E56
:10322000B04215D123F400664B8924F4405402EADD
:103230000323334323F480668B8802EA032333435A
:103240008E8902EA06162643CC8902EA0414344326
:1032500084808583C9888187038470BD70B5028CA2
:1032600022F480520284048C8288838B0D8823F49C
:10327000E6464FF6FF7303EA0525354324F400566E
:103280000C8903EA043434434E8803EA06362643A5
:103290002E4CA04202D0334CA04205D122F48044EF
:1032A0008A8903EA8212224382808583C988A0F832
:1032B0004010068470BD828B22F440628283828B30
:1032C0004FF6FF7303EA01210A4382837047828B22
:1032D00022F00C028283828B0A4382837047028B26
:1032E00022F440620283028B4FF6FF7303EA01214E
:1032F0000A4302837047F0B5048C24F01004048460
:10330000078B048C4FF6FF7527F4734705EA0333E8
:103310003B4305EA02221A430C4B05EA0116984288
:103320000ED0104B98420BD0B0F1804F08D0084B14
:10333000984205D0074B984202D0074B984225D1BE
:1033400024F02001314341F0100124E0002C014021
:103350000004004000080040000C00400010004045
:103360000014004000340140004C01400050014076
:103370000054014000180040001C004000200040A4
:1033800000400140004401400048014024F0A003F7
:103390000B4343F0100102830184F0BD028B22F045
:1033A0000C020283028B0A430283704770B5048CBF
:1033B00024F001040484058B048C4FF6FF7606EAA2
:1033C0000313134325F0F305F94A2B4390420ED023
:1033D000F84A90420BD0B0F1804F08D0F64A9042A4
:1033E00005D0F64A904202D0F54A904202D124F02C
:1033F000020201E024F00A020A4342F001010383C1
:10340000018470BD2DE9F05F0D4604460888E84F41
:10341000DFF8A0C3DFF8A0834988AA882B894FF082
:10342000804960B3042832D04FF6FF7E082836D09A
:10343000208C9B4620F480502084A38B268C7046E1
:1034400000EA022223F473431A4300EA0B301043CC
:103450000EEA013EBC420BD0644509D04C4507D072
:10346000444505D0D54A944202D0D54B9C4245D123
:1034700026F4005141EA0E0141F4805143E0204618
:10348000FFF794FFE9882046BDE8F05F86E7204615
:10349000FFF731FFE9882046BDE8F05F1FE7208C89
:1034A00020F480702084B4F81CA0208C0EEA031352
:1034B00013432AF0F30A0EEA012B43EA0A03BC4243
:1034C0000BD0644509D04C4507D0444505D0BB4AD4
:1034D000944202D0BA4A944204D120F4007040EAE7
:1034E0000B0002E020F42060084340F48070A383C6
:1034F0002084E9882046BDE8F05FE8E626F4024231
:103500000A4342F48051A08320462184E988BDE823
:10351000F05FD0E62DE9F0410C46002649880746C9
:10352000012501B90226A288012A00D1022520889E
:1035300023890028384610D0FFF7DDFEE1883846A1
:10354000FFF7CDFE23892A4631463846FFF72EFF86
:10355000E1883846BDE8F04120E7FFF727FFE18822
:103560003846FFF71BFF23892A4631463846FFF7C6
:10357000C2FEE1883846BDE8F041B0E610B50A88E1
:103580004B88CC881A438B8823431A430B891A43F0
:103590004B8989891A430A43A0F8442010BD4FF68D
:1035A000FF71818000210180C180418001727047DC
:1035B0000021018041808180C18001814181818120
:1035C000C181704700210180418001228280C18039
:1035D000018170470021018041808180C18001818B
:1035E0004181818170470029018802D041F00101A9
:1035F00001E021F0010101807047002930F8441FEB
:1036000002D041F4004101E0C1F30E010180704796
:10361000002A828901D00A4300E08A4382817047F0
:10362000818270471143A0F848107047002A8289B0
:1036300001D00A4300E08A4382817047018921F06A
:10364000070101817047028922F070020A4302815A
:10365000704700B50346FFF7F6FF188940F00700F2
:10366000188100BD70B516460D46602904464FF01E
:10367000010231460AD0FFF799FE29462046FFF79E
:10368000E2FF208940F00700208170BDFFF733FE84
:10369000F3E730B504894FF6FF7505EA03231343BA
:1036A000E4B20B432343038130BD10B50446FFF75A
:1036B000F0FF208940F07700208110BD10B504464E
:1036C000FFF7E7FF208940F48040208110BD01858D
:1036D00082827047028822F070020A43028070479B
:1036E00070B50589048B068C25F007050D434FF650
:1036F000FC410C4040F201110C434FF6FF7101EA0E
:10370000031126F02206114331430581048301840D
:1037100070BD028B22F070020A4302837047028B55
:103720004FF6FF7322F4E04203EA012111430183C3
:103730007047828B22F070020A4382837047828B2B
:103740004FF6FF7322F4E04203EA01211143818323
:1037500070470029018802D041F0800101E021F08A
:103760008001018070470029818802D041F0040166
:1037700001E021F00401818070470029818802D096
:1037800041F0080101E021F0080181807047002923
:10379000818802D041F0010101E021F00101818026
:1037A0007047028B22F008020A4302837047000030
:1037B000002C01400034014000040040000800409B
:1037C000000C0040028B4FF6FF7322F4006203EA04
:1037D000012111430183E9E7828B22F008020A43A9
:1037E0008283E3E7828B4FF6FF7322F4006203EAE1
:1037F000012111438183D9E7028B22F004020A439D
:103800000283D3E7028B4FF6FF7322F4806203EA50
:10381000012111430183C9E7828B22F004020A438C
:103820008283C3E7828B4FF6FF7322F4806203EA40
:10383000012111438183B9E7028B22F080020A4300
:103840000283B3E7028B4FF6FF73C2F30E0203EA63
:10385000012111430183A9E7828B22F080020A43F0
:103860008283A3E7828B4FF6FF73C2F30E0203EA53
:1038700001211143818399E7028C22F002020A435D
:10388000028493E7028C22F008020A4302848DE747
:10389000028C4FF6FF7322F0200203EA011111435C
:1038A000018483E7028C4FF6FF7322F0800203EA63
:1038B00001111143018479E7028C4FF6FF7322F462
:1038C000007203EA0121114301846FE7028C4FF675
:1038D000FF7322F4006203EA01211143018465E7CA
:1038E000028C4FF6FF7322F4005203EA01311143B8
:1038F00001845BE710B50123048C8B409C43048456
:10390000038C8A401343038410BD10B50423048C38
:103910008B409C430484038C8A401343038410BD72
:1039200030B50124058C00F118038C40A5430584B3
:1039300089B108290FD0091FC1F34E00184401684E
:1039400021F4E041016001684FF6FF7303EA0222AF
:103950001143016030BD03EB5100016821F070019B
:1039600001600168F4E70029018802D041F00201FA
:1039700001E021F00201018018E70029018802D04E
:1039800041F0040101E021F0040101800EE700296B
:10399000818802D041F0800101E021F08001818026
:1039A00004E7028822F00802028002880A430280AB
:1039B000FCE6828822F07002828082880A4382803C
:1039C000F4E6028922F00702028102890A43028199
:1039D000ECE6028922F08002028102890A43028118
:1039E000E4E68184E2E68185E0E68186DEE6018721
:1039F000DCE68187DAE6A0F84010D7E6028822F4F8
:103A00004072028002880A430280CFE6808ECDE6B3
:103A1000008FCBE6808FC9E6B0F84000C6E6808C08
:103A2000C4E6008DC2E602460020128A0A4200D097
:103A30000120BBE6C9430182B8E602460020138A92
:103A400092890B4202EA010202D0002A00D0012032
:103A5000ACE6C9430182A9E6C44910B588420AD13F
:103A600001218C032046FFF740FA2046BDE81040B4
:103A70000021FFF73ABABE49884202D101214C0425
:103A800010E0BC49884202D101218C040AE0BA4905
:103A9000884202D10121CC0404E0B84988420AD10D
:103AA00001210C052046FFF729FA2046BDE8104009
:103AB0000021FFF723BA10BD30B50446008A85B057
:103AC0000D464CF6FF710840E98801432182A18927
:103AD0004EF6F3100140A8882A8910436A890A43E8
:103AE0001043A081A08A4FF6FF410840A9890143F5
:103AF000A1826846FFF79EF99C48844201D1039851
:103B000000E00298A189090400EBC00101EB00105C
:103B1000296801D5490000E08900B0FBF1F064227A
:103B2000B0FBF2F109010B096FF018056B4300EBD4
:103B30008300A3891D044FF0320306D503EBC000B8
:103B4000B0FBF2F000F0070005E003EB0010B0FB63
:103B5000F2F000F00F000843208105B030BD4FF4B3
:103B60001651016000218180C18001810C224281B7
:103B70008181704710B5038A4FF2FF0213400A8813
:103B80004C8822438C88C9880C4322431A43028202
:103B900010BD0021018041808180C18070470029D3
:103BA000818902D041F4005101E021F4005181816A
:103BB000704710B5C1F3421301F01F040121A14069
:103BC000012B07D0022B07D01430002A026805D041
:103BD0000A4304E00C30F8E71030F6E78A4302604D
:103BE00010BD002A828A01D00A4300E08A43828203
:103BF0007047028A22F00F020282028A0A4302827E
:103C00007047828922F40062828182890A4382811C
:103C100070470029818902D041F0020101E021F0C2
:103C2000020181817047028A22F020020282028A08
:103C30000A43028270470029018A02D041F4804180
:103C400001E021F4804101827047C1F308018180C5
:103C500070478088C0F308007047818941F00101F6
:103C600081817047028BD2B20283028B42EA01212A
:103C700001837047028B02F47F420283028B0A4366
:103C8000028370470029818A02D041F0200101E0BF
:103C900021F02001818270470029818A02D041F001
:103CA000100101E021F01001818270470029818A12
:103CB00002D041F0080101E021F008018182704743
:103CC0000029818902D041F4004101E0C1F30E01D5
:103CD000818170470029818A02D041F4006101E0AE
:103CE00021F4006181827047828A22F0040282827C
:103CF000828A0A43828270470029818A02D041F079
:103D0000020101E021F00201818270470246002099
:103D100012880A4200D001207047C94301807047D1
:103D200030B501F01F0201240025C1F3421304FA4B
:103D300002F2012B0FD0022B0FD0838A4FEA112100
:103D40000088134204FA01F400EA040001D000B133
:103D50000125284630BD8389F0E7038AEEE70A0A89
:103D600001219140C94301807047000000380140A3
:103D70000044004000480040004C0040005000401B
:103D80000CB500214B4801910091026842F4803249
:103D900002604FF4A063026802F400320092019ABC
:103DA000521C0192009A12B9019A9A42F3D1026808
:103DB000920333D5012100913F490A6842F0100275
:103DC0000A600A6822F003020A600A6842F00202EE
:103DD0000A604168416041684160416841F4806126
:103DE0004160416821F47C114160416841F4E8116F
:103DF0004160016841F08071016001688901FCD572
:103E0000416821F003014160416841F002014160D5
:103E10004168C1F381010229FAD10CBD00910CBDAA
:103E2000244810B5016841F0010101604168234A4E
:103E3000114041600168224A11400160016821F48B
:103E400080210160416821F4FE0141604FF41F01AF
:103E50008160FFF795FF1B494FF00060086010BDBF
:103E6000144910B54868184A10F00C03174803D0DD
:103E7000042B01D0082B0AD002604968134AC1F311
:103E80000311121D515C0268CA40026010BD4A68ED
:103E90004B6802F470124FF0020413F4803F04EBFD
:103EA000924202D04B689B0301D5094B00E0064BC0
:103EB0005A43E1E700100240002002400000FFF8F2
:103EC000FFFFF6FE08ED00E000127A00E801002096
:103ED00000093D000648804706480047FEE7FEE728
:103EE000FEE7FEE7FEE7FEE7FEE7FEE7FEE7FEE7AA
:103EF000213E0008310100082DE9F05F0546002051
:103F000092469B4688460646814640241BE028464A
:103F100041464746224600F093F853465A46C01A97
:103F2000914110D311461846224600F07AF82D1A16
:103F300067EB01084F4622460120002100F071F88E
:103F400017EB00094E41201EA4F10104DFDC4846B6
:103F500031462A464346BDE8F09F40EA01039B07ED
:103F600003D009E008C9121F08C0042AFAD203E0EE
:103F700011F8013B00F8013B521EF9D27047D2B252
:103F800001E000F8012B491EFBD270470022F6E742
:103F900010B513460A4604461946FFF7F0FF2046BF
:103FA00010BDF0B4CA17CB0F50405140C61841F1B4
:103FB00000054FEAC372314628004FF0960303D044
:103FC000B623F0BC00F055B830460021F9E720F0E8
:103FD0000040C10DC0F3160040F400007F2901DA53
:103FE00000207047962903DCC1F19601C840704754
:103FF00096398840704730B50B4601460020202294
:10400000012409E021FA02F59D4205D303FA02F5E5
:10401000491B04FA02F52844151EA2F10102F1DC45
:1040200030BD202A04DB203A00FA02F1002070475C
:104030009140C2F1200320FA03F3194390407047E6
:10404000202A04DB203A21FA02F00021704721FAED
:1040500002F3D040C2F12002914008431946704754
:104060000029A8BF7047401C490008BF20F001008C
:10407000704710B4B0FA80FC00FA0CF050EA01046A
:1040800004BF10BC704749B1CCF1200421FA04F4FC
:1040900011FA0CF118BF012121430843A3EB0C01D5
:1040A000CB1D4FEA00614FEA102042BF002010BC38
:1040B000704700EBC35010440029A4BF10BC7047E8
:1040C000401C490008BF20F0010010BC70472DE9DA
:1040D000FE4F804681EA0300C00F0C46009021F09D
:1040E000004123F00045B8EB0200A94105D240464B
:1040F000214690461C460B46024623F000401043E2
:1041000047D0270DC7F30A00C3F30A510290401AA3
:10411000019040286BDAC3F3130040F4801B009831
:10412000924620B10023D2EB030A63EB0B0B0198FC
:104130005946C0F140025046FFF773FF06460D4650
:1041400050465946019A00F08DF910EB0800614184
:10415000002487EA115284EAE7731A4340D0009A98
:1041600062B3019A012A4FEA075215DC001B61EB8A
:1041700002014FF0004202EA0752CDE90042001C62
:1041800041F5801132462B4600F08DF903B0BDE8B1
:10419000F08F40462146F9E7001B61EB0201001C4D
:1041A00041F5801300185B412018A2F5001747EB7A
:1041B000030140EAD570B6196D4111E06D084FEA70
:1041C000360645EAC0754FEA0752001B61EB020153
:1041D000001C41F5801149084FEA30000019514197
:1041E00032462B4603B0BDE8F04F00F04DB90098C1
:1041F000012240000023D0EB020263EBE073009841
:1042000021464FEAE074B8EB000061EB0401E9E7F6
:1042100083F000435BE781F0004158E72DE9FE4F52
:1042200081EA030404F0004421F0004100944FF0BF
:10423000000B23F0004350EA01045ED052EA03046D
:104240005BD0C3F30A54C1F30A552C44A4F2F334EF
:104250000194A0FB0254C1F3130141F48011C3F394
:10426000130343F4801301FB024400FB034E840A52
:10427000970A44EA815447EA8357A4FB07680295EA
:104280008D0A05FB07854FEA932C04FB0C54270588
:10429000029D4FEA065847EA1637B5EB08056EEB64
:1042A000070C870E920E47EA811742EA8312A7FB9A
:1042B0000201B6EB0B0164EB00042B0D43EA0C3357
:1042C0005E1844EB1C50DA465146E7FB0201C5F389
:1042D00013044FEA0B3343EA14534FEA0432019CB0
:1042E00043EA0603A4F10C040294009CCDE900B457
:1042F00000F0D9F803B0BDE8F08F00200146F9E7DF
:104300002DE9F04D81EA030404F0004B21F0004553
:1043100014464FF0000A23F0004150EA050220D075
:1043200054EA01021DD0C5F30A570246C5F3130330
:10433000C1F31300C1F30A5640F4801543F480130F
:10434000A7EB0608101BD64608F2FD3873EB0500F4
:1043500002D308F1010801E092185B41B8F1000FA7
:1043600003DA00200146BDE8F08D00204FF48011F3
:10437000064684460EE0171B73EB050705D3121B98
:1043800063EB050306434CEA010C49084FEA300091
:1043900092185B4150EA0107EDD152EA030012D0B6
:1043A00082EA040083EA0501084305D0101BAB41F3
:1043B00006D20122002306E000224FF0004302E073
:1043C0006FF0010253101AEB06004CEB085110EB92
:1043D0000A0041EB0B01BDE8F04D00F055B8C1F308
:1043E0000A52C1F3130140F2FF3341F480119A42A3
:1043F00002DA00200146704740F233439A42A2F2AB
:10440000334202DC5242FFF71BBEFFF70ABE000038
:1044100030B5041E71F1000404DB4FF0004440424B
:1044200064EB0101141E73F1000405DB1C464FF020
:104430000043524263EB0403994208BF904230BDEF
:10444000064C074D06E0E06840F0010394E80700E1
:1044500098471034AC42F6D3FBF76EFE144F0008B9
:10446000344F0008202A06DBCB17203A41FA02F02D
:1044700043EAE07306E041FA02F3D040C2F12002C1
:10448000914008431946704710B5141E73F100049B
:1044900008DA401C41F1000192185B411A4301D136
:1044A00020F0010010BD2DE9F04D92469B4611B160
:1044B000B1FA81F202E0B0FA80F220329046FFF7C2
:1044C000B0FD04460F4640EA0A0041EA0B0153469C
:1044D0005A46084313D0114653EA010019D0C8F1D7
:1044E00040025046FFF7ACFD05460E465046594681
:1044F0004246FFF796FD084305D0012004E0204620
:104500003946BDE8F08D0020054346EAE0762C43AD
:1045100037430A986305E40AA0EB08000022FD0A6D
:1045200044EA47540A3002D500200146E9E7010574
:1045300010196941DDE9084500196941BDE8F04DF0
:10454000A2E770B58C1810F8015B15F0070301D1D4
:1045500010F8013B2A1106D110F8012B03E010F8E6
:10456000016B01F8016B5B1EF9D12B0705D4002309
:10457000521E0DD401F8013BFAE710F8013BCB1AAB
:10458000921C03E013F8015B01F8015B521EF9D5A0
:10459000A142D8D3002070BD0FB4054B10B503A9BC
:1045A000044A029800F0DCF810BC5DF814FB00002F
:1045B000DB180008FC01002037B514460846064BFE
:1045C0006A46214600F0CCF804466946002000F017
:1045D0005EFC20463EBD00008F4E000802E008C889
:1045E000121F08C1002AFAD170477047002001E06D
:1045F00001C1121F002AFBD1704700002DE9FF5FA7
:10460000DDE90220010DDDF838B0024318D044F690
:104610001050A1F2FF3141430D140F98012820D012
:10462000A5EB0B00401C5FEA000A4FF00004474E68
:10463000DFF81C91A046504616D5CAF1000728E0C5
:104640000F98012443A2012808D0002100980F9B55
:10465000C0E90021C0E90243BDE8FF9F6FEA0B01FA
:10466000F4E7CBF10000DEE7074612E0F80707D0D9
:104670002246334640464946FFF7D0FD80468946EC
:104680002246334610461946FFF7C8FD04460E463B
:104690007F10002FEAD1DDE90201BAF1000F424696
:1046A0004B4602DAFFF7BAFD01E0FFF729FE0446A8
:1046B0000E460022284BFFF7ABFE03D84FF0FF3029
:1046C000014607E00022254B20463146FFF7FFFC5C
:1046D000FFF785FE102409E0002C0ADB0A220023E4
:1046E000FFF70AFC019B30321A55641E50EA0102A2
:1046F000F2D1641C019AC4F1110314440F9A012AE7
:1047000003D0012208430DD10AE0084304D0002061
:104710004FF0110B0F9080E7A3EB0B056D1E0DE022
:104720005B4504DD4FF0000205F1010504E003DA0A
:104730004FF00002A5F10105002AECD000980F9976
:10474000C0E90231C0E9004586E7000000002440CE
:104750000000F03F300000000000F0430000E03FA8
:104760002DE9FF4F95B09B468946064600250FE28E
:10477000252877D100242746F84A0121059400E036
:10478000044316F8013F203B01FA03F01042F7D131
:1047900030782A2811D06FF02F033078A0F1300242
:1047A000092A16D8059A44F0020402EB820203EBB0
:1047B00042021044761C0590EFE759F8042B05924D
:1047C000002A03DA504244F40054059044F00204F5
:1047D000761C30782E2816D116F8010F44F0040408
:1047E0002A280DD06FF02F023078A0F13003092B6A
:1047F00009D807EB870302EB4303C718761CF3E7DE
:1048000059F8047B761C30786C280FD006DC4C28D5
:1048100017D068280DD06A2814D104E0742810D06D
:104820007A280FD10DE044F400140AE044F4801417
:1048300001E044F440147278824202D104F58014FD
:10484000761C761C307866280BD013DC582877D07D
:1048500009DC002875D04528F6D04628F4D0472832
:104860001AD19DE118E0632835D0642879D06528F5
:1048700012D195E1702873D008DC6728F1D069283F
:104880006FD06E280DD06F2806D1B5E073282CD0DC
:10489000752875D0782874D05A46179990476D1CA2
:1048A00075E1C4F30250022809D003280DD0D9F8CD
:1048B000001004280DD00D6009F1040967E1D9F852
:1048C0000010EA17C1E90052F6E7D9F800100D8090
:1048D000F2E70D70F0E719F8041B8DF800100020C6
:1048E0008DF80100EA46012003E059F804AB4FF0CF
:1048F000FF3061074FF0000102D40DE008F1010123
:104900008846B9420FDA8045F8DB1AF8081000290A
:10491000F4D108E008F1010188468142FADB1AF877
:1049200008100029F6D105985B46A0EB0807214640
:104930003846179A00F094FA284400EB080507E07F
:104940004DE029E10DE01AF8010B5A4617999047FE
:10495000B8F10108F7D25B4621463846179A13E1B1
:1049600042E00A220092C4F302524FF0000A022AE7
:1049700008D059F804CB032A4FEAEC710AD00DE0B5
:1049800029E02AE009F1070121F00702F2E802C15B
:10499000914609E00FFA8CFC4FEAEC71042A03D12E
:1049A0004FFA8CFC4FEAEC71002907DA0A46002125
:1049B000DCF1000C61EB02012D2202E0220504D59E
:1049C0002B228DF80420012203E0E20701D02022EF
:1049D000F7E7904659E00A2102E010220DE010218D
:1049E0004FF0000A00910BE010224FF0000A44F053
:1049F00004040827009203E008224FF0000A009206
:104A0000C4F30252022A05D059F804CB0021032A2C
:104A100008D009E009F1070121F00702F2E802C11C
:104A2000914605E01FFA8CFC042A01D10CF0FF0C22
:104A30004FF00008220728D5702806D0009B83F08D
:104A4000100353EA0A0305D00EE040228DF804203B
:104A5000012208E05CEA010206D030228DF8042031
:104A60008DF8050002229046009B83F0080353EA6C
:104A70000A030AD15CEA010201D1620705D530229E
:104A80008DF804204FF001087F1E582804D034A070
:104A900003900EA802900DE036A0F9E75346604659
:104AA000009AFFF729FA84460398825C0298401E18
:104AB000029002705CEA0100F0D1029806A9081A7F
:104AC00000F1200A600702D524F4803400E00127B9
:104AD000574502DDA7EB0A0000E0002000EB0A01C9
:104AE000009005984144401A0590E00306D45B46C7
:104AF0002146179A059800F0B3F90544002706E00F
:104B000001A85A46C05D179990476D1C7F1C474508
:104B1000F6DBE0030CD55B462146179A059800F0BA
:104B20009FF9054404E030205A46179990476D1CC0
:104B30000099481E00900029F5DC08E002980299CF
:104B40005A460078491C0291179990476D1CBAF19A
:104B50000001AAF1010AF1DC65E100000928010069
:104B600030313233343536373839616263646566E3
:104B700000000000303132333435363738394142A5
:104B8000434445460000000000F058F90544761CF7
:104B9000307800287FF4ECAD19B02846BDE8F08FDE
:104BA000620700D4062709F1070222F0070CFCE88F
:104BB0000223E14603F000485FEA080C02D00FF23E
:104BC000702C0DE05FEA045C02D50FF2682C07E060
:104BD0005FEAC47C02D00FF2602C01E0AFF2700CEF
:104BE0004FF0FF3823F00043CDF850C065280CD0BB
:104BF00006DC452809D046281DD047283DD13DE098
:104C0000662818D067287ED138E00021112F01DBFB
:104C1000112000E0781CCDE9000106A90EA8FFF7DD
:104C2000EDFCDDE90F010E9A03910021009207F1DE
:104C3000010A04914DE04FF000400097CDE90110CA
:104C400006A90EA8FFF7DAFCDDE90F0203920E9B1E
:104C500011990022DDF80CA00093049211B9791C7F
:104C600000EB010AB7EB0A0004D4C0F1FF3007F1F2
:104C7000010A0490AAEB0700019044E0012F00DA3A
:104C800001270021112F01DD112000E03846CDE978
:104C9000000106A90EA8FFF7B1FCDDE90F010E9A8D
:104CA0000391002104910092BA4621070CD4039984
:104CB000514500DA8A46BAF1010F05DD009AAAF1E2
:104CC0000101515C302908D0B84202DA10F1040F1A
:104CD00006DA0121CDE9011015E0AAF10101E9E7A9
:104CE000002805DC049901440491AAEB000102E0CC
:104CF000411C514500DD8A460499401A401C019030
:104D00004FF000400290200704D40198504501DB89
:104D1000CDF8048000208DF84F0002980DF14F0768
:104D2000B0F1004F25D02B200E9002984FF00208D2
:104D300000280CDA404202902D200E9007E00A2154
:104D40000298FFF758F93031029007F8011DB8F1C9
:104D50000001A8F10108F2DC02980028EFD1791EC9
:104D60000E980870307800F0200040F0450007F8F9
:104D7000020D12A8C01B00F107081498007800B1BA
:104D8000012000EB0A01019801EBE0710598414414
:104D9000401A401E0590E00306D45B462146179A50
:104DA000059800F05DF805441498007818B15A464B
:104DB000179990476D1CE00324D55B462146179A4E
:104DC000059800F04DF805441CE00498002807DB26
:104DD000DDE90301884203DD0098405C179901E09A
:104DE000179930205A469047049805F10105401C58
:104DF00004900198401E019004D12E205A46179924
:104E000090476D1CBAF10001AAF1010ADDDC05E052
:104E100017F8010B5A46179990476D1CB8F100011D
:104E2000A8F10108F4DC5B462146179A0598ABE629
:104E30002D0000002B000000200000002DE9F041B3
:104E4000044600251E461746880404D405E039466A
:104E50002020B0476D1C641EF9D52846BDE8F081BE
:104E60002DE9F041044600251E469046C80301D5B1
:104E7000302700E02027880404D505E04146384665
:104E8000B0476D1C641EF9D52846BDE8F0810A685C
:104E9000531C0B6010707047FF00FF00FF00FF0005
:104EA000FF00FF00FF00FF00FF00FF00FF00FF000A
:104EB000FF00FF00FF00FF000040000000000200B4
:104EC00000000400000000000000000004000000DA
:104ED00004000000080000000000000000000000C6
:104EE00004000000040000000800000000000000B2
:104EF00000000000000204000004000000000004A4
:104F0000080000080000000025002600270000001F
:104F100000000000344F00080000002000020000E4
:104F200042450008DC50000800020020880A00000A
:104F3000EC450008C1323213200212201290A20860
:104F400012021203120512071209120B120C120E92
:104F5000121012121213121512171219121B121D0F
:104F60001A1F311222122412261228122A122D126E
:104F70002F1231123312351237123A123C123E12EE
:104F800041124312461249124B124E125112541240
:104F900057125A125D126112641268126B126F126C
:104FA000731277127B12801285128A128F1294125A
:104FB0009A12A012A612AD12B412BC12C412CD12D3
:104FC000D612E112EC12F8202B0501130122013454
:104FD0000147015D0175019101B101D6010202375E
:104FE000027702C8022E03B70377049605740730D0
:104FF0000B6116104710270E270A270227F826EA0A
:1050000026D926C526AF2695267826582635261079
:1050100026E725BB258D255B252725EF24B524789C
:10502000243824F523AF2367231C23CE227D222A94
:1050300022D4217C212021C32062201044209A1FE9
:10504000321FC81E5B1EEC1D7B1D071D921C191C08
:105050009F1B231BA41A231AA1191C1995180D189C
:105060008217F6166816D8154615B3141E14881341
:10507000F0125712BC1120118210E30F430FA20E41
:105080000029100E5C0DB80C120C6C0BC40A1C0A23
:105090007309CA081F087407C8061C067005C304F4
:1050A00015046803BA020B025D01AF143801401207
:1050B0004412401A4804811A081429041A0C0409DD
:1050C000191445020406082D0102030404150607FD
:0C50D000080984A24A0479143100000091
:0400000508000131BD
:00000001FF
