:020000040800F2
:100000007043002001010008CB090008C309000863
:10001000C70900085701000839180008000000004F
:100020000000000000000000000000008D0D00082E
:10003000D307000800000000990A0008710F0008AB
:100040001B0100081B0100081B0100081B01000820
:100050001B0100081B0100081B0100081B01000810
:100060001B0100081B0100081B0100081B01000800
:100070001B0100081B0100081B0100081B010008F0
:100080001B0100081B0100081B010008B517000830
:10009000D51700081B0100081B0100081B01000800
:1000A0001B0100081B0100081B0100081B010008C0
:1000B0001B0100081B010008411200081B01000879
:1000C0001B0100081B0100081B0100081B010008A0
:1000D0001B0100081B0100081B0100081B01000890
:1000E0001B0100081B0100081B010008DFF80CD0F1
:1000F00000F018F800480047DD1E0008704300209B
:100100000648804706480047FEE7FEE7FEE7FEE7B1
:10011000FEE7FEE7FEE7FEE7FEE7FEE7A10F0008C9
:10012000ED000008064C074D06E0E06840F00103D2
:1001300094E8070098471034AC42F6D3FFF7DAFF93
:10014000C0250008E02500080146002901DA4842E0
:1001500070470846FCE700BFFEE70000B1F5007FEE
:100160003AD00FDC202928D006DC01291CD0042934
:100170001DD0082940D11DE0402921D0B1F5807F54
:100180003AD126E0B1F5004F31D006DCB1F5806FF1
:1001900025D0B1F5006F2FD124E0B1F5803F12D00A
:1001A000B1F5003F28D111E0154A826025E0082210
:1001B000C26022E01022C2601FE0082202611CE03F
:1001C0001022026119E00822426016E0102242600B
:1001D00013E00422426010E0042242600DE0042299
:1001E00042600AE0002282610422426005E00022AF
:1001F00082610422426000E000BF00BF704700003F
:100200000101010010B504460B48844209D10121C7
:10021000480600F05FFC00214FF0007000F05AFC2F
:1002200008E00121880600F055FC00214FF08060B5
:1002300000F050FC10BD00000064004010B500212B
:10024000837A012202FA03F13D4A126842F0010268
:100250003B4B1A603A4A1C3212688A43384B1C33B3
:100260001A60027BCAB9364A0C3212688A43344B90
:100270000C331A604288C38842EA0343304A403252
:10028000847A42F834300288838842EA03432C4A55
:100290004032847A02EBC4025360027B012A19D1F6
:1002A000274A0C3212680A43254B0C331A604288E5
:1002B000038842EA0343224A4032847A42F83430C7
:1002C000C288838842EA03431D4A4032847A02EBA3
:1002D000C4025360C27A3AB9194A121D12688A439D
:1002E000174B1B1D1A6006E0154A121D12680A43BF
:1002F000134B1B1D1A60028932B9114A143212685D
:100300008A430F4B14331A600289012A06D10C4A22
:10031000143212680A430A4B14331A60427B012AD2
:1003200006D1074A1C3212680A43054B1C331A6077
:10033000034A126822F00102014B1A6010BD00004E
:100340000066004070B504460D46002660692840EE
:10035000002871D0B5F5807F5CD010DC082D35D039
:1003600006DC012D20D0022D24D0042D72D127E0EF
:10037000102D31D0202D35D0402D6BD138E0B5F582
:10038000004F60D009DCB5F5007F49D0B5F5806F2E
:100390004CD0B5F5006F5DD14FE0B5F5803F2DD065
:1003A000B5F5003F56D12FE0A0682D4900F008FABE
:1003B000064651E0E068032100F002FA06464BE0F1
:1003C000E068082100F0FCF9064645E0E0681021ED
:1003D00000F0F6F906463FE02069032100F0F0F94D
:1003E000064639E02069082100F0EAF9064633E0C4
:1003F0002069102100F0E4F906462DE0606808212C
:1004000000F0DEF9064627E06068102100F0D8F918
:10041000064621E0A069012100F0D2F906461BE062
:10042000A069022100F0CCF9064615E0A06904217C
:1004300000F0C6F906460FE00FE0A069702100F059
:10044000BFF9064608E06068042100F0B9F90646E5
:1004500002E0FFE7002600BF00E00026304670BD46
:10046000010101001AB143690B43436102E0436992
:100470008B434361704730B5024600200023146867
:1004800024F002041460146844F00104146000E0D5
:100490005B1C546804F001041CB94FF6FF74A342BE
:1004A000F6D1546804F001040CB900206CE08C799A
:1004B000012C04D1146844F08004146003E0146833
:1004C00024F080041460CC79012C04D1146844F029
:1004D0004004146003E0146824F0400414600C7AB3
:1004E000012C04D1146844F02004146003E0146863
:1004F00024F0200414604C7A012C04D1146844F0D8
:100500001004146003E0146824F0100414608C7A62
:10051000012C04D1146844F00804146003E014684A
:1005200024F008041460CC7A012C04D1146844F03F
:100530000404146003E0146824F0040414608C784C
:10054000A407CD7844EA05640D7944EA05444D7961
:1005500044EA05540D886D1E2C43D461146824F0C0
:1005600001041460002300E05B1C546804F00104E3
:100570001CB14FF6FF74A342F6D1546804F0010495
:100580000CB1002000E0012030BD10B500F5D8739B
:1005900003EB01131B6803F004031372137A53B9BE
:1005A00000F5D87303EB01131B6840F2FF7404EAF3
:1005B0005353136009E000F5D87303EB01131B6874
:1005C0006FF0604404EAD303536000F5D87303EB83
:1005D00001131B6803F00203537200F5D87303EB99
:1005E00001135B6803F00F03937200F5D87303EBFC
:1005F00001135B681B0AD37400F5D87303EB011376
:100600009B68D37200F5D87303EB01139B681C0A37
:10061000147300F5D87303EB01139B681C0C54731F
:1006200000F5D87303EB01139B681B0E937300F561
:10063000D87303EB0113DB68D37300F5D87303EBB6
:100640000113DB681C0A147400F5D87303EB011363
:10065000DB681C0C547400F5D87303EB0113DB68E2
:100660001B0E937421B9C36843F02003C36003E0F9
:10067000036943F02003036110BD00218171C17142
:10068000017241728172C1728170C1700321017166
:100690000221417101210180704710B502460020FE
:1006A000936803F08063B3F1806F00D110E093682A
:1006B00003F00063B3F1006F01D1012008E09368FB
:1006C00003F08053B3F1805F01D1022000E00420E9
:1006D000042874D002F5C07303EB00131B6803F009
:1006E000010402F5C07303EB00131C600B7A7BB9A5
:1006F0004B7A0C8843EA445302F5C07404EB0014AF
:100700002468234302F5C07404EB0014236010E056
:100710000B7A4C6843EAC4034C7A234302F5C07455
:1007200004EB00142468234302F5C07404EB0014A6
:1007300023608B7A03F00F038B7202F5C07303EB17
:1007400000135B6823F00F0402F5C07303EB001382
:100750005C6002F5C07303EB00135B688C7A234383
:1007600002F5C07404EB001463608B7B1C064B7BAA
:1007700044EA03440B7B44EA0323CC7A234302F587
:10078000C07404EB0014A3608B7C1C064B7C44EA11
:1007900003440B7C44EA0323CC7B234302F5C0745F
:1007A00004EB0014E36002F5C07303EB00131B6855
:1007B00043F0010402F5C07303EB00131C6010BD8D
:1007C0000246002002EA01030BB1012000E00020F4
:1007D000704770470549096821F01001034A11600C
:1007E0001146096801431160704700000020024073
:1007F00001460020034A106800F0380008431060EA
:1008000070470000002002402DE9F041024600251B
:100810000026002000230024002791F803C00CF0DC
:100820000F0591F803C00CF0100CBCF1000F03D0C1
:1008300091F802C04CEA050591F800C0BCF1000F28
:1008400031D0146800202BE04FF0010C0CFA00F3BB
:10085000B1F800C00CEA03069E4220D183004FF09D
:100860000F0C0CFA03F7BC4305FA03FC4CEA040432
:1008700091F803C0BCF1280F06D14FF0010C0CFA1F
:1008800000FCC2F814C00AE091F803C0BCF1480FA4
:1008900005D14FF0010C0CFA00FCC2F810C0401C4E
:1008A0000828D1D31460B1F800C0BCF1FF0F34DDCB
:1008B000546800202EE000F1080C4FF0010808FAFF
:1008C0000CF3B1F800C00CEA03069E4221D183006C
:1008D0004FF00F0C0CFA03F7BC4305FA03FC4CEA8B
:1008E000040491F803C0BCF1280F05D100F1080CF5
:1008F00008FA0CF8C2F8148091F803C0BCF1480F54
:1009000007D100F1080C4FF0010808FA0CF8C2F802
:100910001080401C0828CED35460BDE8F081000050
:10092000F0B50A46002300240021002500F000460F
:10093000B6F1004F02D11D4EF16901E01B4E716806
:10094000C0F3034583B200F44016B6F5401F08D14A
:1009500021F07061154E766826F07066134F7E6048
:1009600012E000F48016B6F5801F06D1032606FAC1
:1009700005F4A14341F0706106E0460D360103FA2B
:1009800006F6B14341F0706122B1460D360103FA1B
:1009900006F6314300F00046B6F1004F02D1034E97
:1009A000F16101E0014E7160F0BD00000000014006
:1009B00041617047016170470AB1016100E0416126
:1009C000704700BFFEE700BFFEE7704708B5002193
:1009D0004FF0006000F056F84FF4E06000F048F887
:1009E00027208DF8000000208DF801008DF802000E
:1009F00001208DF80300684600F002F808BD0000F1
:100A000070B5002100230F22C47804B3154C24686C
:100A100004F4E064C4F5E064210AC1F10403CA40AF
:100A2000447804FA03F184781440214309010E4C00
:100A30000678A155047804F01F050124AC40057820
:100A40006D11AD0005F1E025C5F8004109E004781D
:100A500004F01F050124AC40044D0678761145F8DA
:100A6000264070BD0CED00E000E400E080E100E015
:100A700002490143024A1160704700000000FA0574
:100A80000CED00E0024A0A400243024B1A60704734
:100A900080FFFF1F08ED00E07047000001460020C6
:100AA000034A506820F440400843506070470000FB
:100AB0000010024029B1064AD2690243044BDA61B0
:100AC00004E0034AD2698243014BDA6170470000B7
:100AD0000010024029B1064A12690243044B1A6110
:100AE00004E0034A12698243014B1A617047000017
:100AF0000010024029B1064A92690243044B9A61F0
:100B000004E0034A92698243014B9A6170470000F6
:100B1000001002400F48006840F001000D490860D5
:100B2000084640680C4908400A4948600846006881
:100B30000A490840074908600846006820F48020F8
:100B400008600846406820F4FE0048604FF41F002B
:100B500088607047001002400000FFF8FFFFF6FEBB
:100B600030B500210022002400232D4D6D6805F0D2
:100B70000C0121B1042905D0082923D105E0294D14
:100B8000056022E0274D05601FE0254D6D6805F4E6
:100B90007012234D6D6805F48034022505EB9242F6
:100BA0001CB9214D554305600BE01D4D6D6805F4E2
:100BB00000351DB11C4D5543056002E0194D5543EC
:100BC000056002E0174D056000BF00BF144D6D6861
:100BD00005F0F0010909154D6B5C0568DD404560C5
:100BE0000F4D6D6805F4E061090A104D6B5C4568B6
:100BF000DD4085600A4D6D6805F46051C90A0B4DF2
:100C00006B5C4568DD40C560054D6D6805F440418D
:100C1000890B074D6B5CC568B5FBF3F5056130BD0D
:100C20000010024000127A0000093D00550000202B
:100C30006500002010B501460022002300204A1163
:100C4000012A02D1094C236806E0022A02D1074C8E
:100C5000236A01E0054C636A01F01F0201249440FD
:100C60001C400CB1012000E0002010BD001002402B
:100C70000248406800F00C0070470000001002407D
:100C800001460020034A506820F0F00008435060FD
:100C900070470000001002401149096821F48031BA
:100CA0000F4A11601146096821F480211160B0F5E6
:100CB000803F03D0B0F5802F0ED106E008490968C7
:100CC00041F48031064A116007E00549096841F4A2
:100CD000A021034A116000E000BF00BF7047000080
:100CE0000010024001460020034A506820F4E060F2
:100CF0000843506070470000001002400146002089
:100D0000034A506820F4605040EAC10050607047C8
:100D1000001002400149086670470000000042428E
:100D200002460020044B586820F47C1042EA01037C
:100D30001843014B586070470010024001460020E4
:100D4000034A506820F003000843506070470000D9
:100D50000010024038B5002000900024002500BF9C
:100D60003120FFF767FF05460098401C009000986F
:100D7000B0F5A06F01D0002DF2D03120FFF75AFF5F
:100D800008B1012400E00024204638BD704710B5AA
:100D900000F002F810BD00000CB50020019000909A
:100DA0003348006840F480303149086000BF304863
:100DB000006800F4003000900198401C01900098F9
:100DC00018B90198B0F5A06FF1D12948006800F476
:100DD000003010B10120009001E000200090009848
:100DE000012843D12348006840F0100021490860E1
:100DF0000846006820F0030008600846006840F0DC
:100E0000020008601A48406819494860084640686E
:100E100048600846406840F4806048600846406882
:100E200020F47C1048600846406840F4E8104860B0
:100E30000846006840F08070086000BF0C480068F9
:100E400000F000700028F9D00948406820F0030045
:100E5000074948600846406840F00200486000BF0B
:100E60000348406800F00C000828F9D10CBD0000D0
:100E7000001002400020024010B5FFF74BFE4FF477
:100E80008030FFF709FFFFF765FF0446012C27D1EB
:100E90001020FFF79FFC0220FFF7AAFC0020FFF7BD
:100EA000EFFE0020FFF72AFFA002FFF71BFFE00381
:100EB000FFF7F4FD4FF4E0112004FFF731FF0120AC
:100EC000FFF728FF00BF3920FFF7B4FE0028FAD053
:100ED0000220FFF733FF00BFFFF7CAFE0828FBD14F
:100EE00010BD042808D14FF0E021096941F0040148
:100EF0004FF0E022116107E04FF0E021096921F095
:100F000004014FF0E02211617047000070B5044603
:100F10000420FFF7E6FF134890FBF4F1B1F1807F66
:100F200000D31DE021F07F40401E4FF0E0225061D1
:100F300050170F22002807DA13071E0E0A4B00F085
:100F40000F052D1F5E5503E013071D0E074B1D54A3
:100F500000BF00204FF0E02290610720106100BF29
:100F600070BD000000A24A0418ED00E000E400E0BB
:100F700010B50A48008800EB400080000A2190FB71
:100F8000F1F40649098801EB4101CA0003490988C7
:100F90008801214601F070F810BD0000BC25000852
:100FA00010B51348006840F0010011490860084678
:100FB0004068104908400E494860084600680E49DC
:100FC00008400B4908600846006820F4802008604B
:100FD0000846406820F4FE0048604FF41F00886017
:100FE000FFF7D5FE4FF000600449086010BD000017
:100FF000001002400000FFF8FFFFF6FE08ED00E0E1
:10100000F0B50C46154600220021068C4FF6FE77FF
:101010003E400684028B018C4FF60C7632407E1CDB
:1010200006EA03162E433243104EB0420ED0104E45
:10103000B0420BD0B0F1804F08D00E4EB04205D078
:101040000D4EB04202D00D4EB04206D14FF6FD76A5
:10105000314044F00106314305E04FF6F57631406A
:1010600044F00106314302830184F0BD002C0140AD
:10107000003401400004004000080040000C004023
:10108000F0B50C461546002200210026078C4FF6CD
:10109000EF7C07EA0C070784028B018C4FF6FF7781
:1010A00007EA041640F6FF473A404FF6FF7707EA93
:1010B00003373A434FF6FF7707EA05273A43114FC4
:1010C000B8420ED0104FB8420BD0B0F1804F08D0CC
:1010D0000E4FB84205D00E4FB84202D00D4FB84265
:1010E00006D14FF6DF77394046F01007394305E067
:1010F0004FF65F77394044F010073943028301848B
:10110000F0BD0000002C014000340140000400400C
:1011100000080040000C0040F0B50C4615460022C7
:1011200000210026078C4FF6FF6C07EA0C070784A6
:10113000828B018C4FF6FF7707EA04264FF60C7777
:101140003A404FF6FF7707EA03172F433A43114F10
:10115000B8420ED0104FB8420BD0B0F1804F08D03B
:101160000E4FB84205D00E4FB84202D00D4FB842D4
:1011700006D14FF6FF57394046F48077394305E0F2
:101180004FF2FF57394044F480773943828301841A
:10119000F0BD0000002C014000340140000400407C
:1011A00000080040000C0040F0B50C461546002237
:1011B00000210026078C4EF6FF7C07EA0C07078407
:1011C000828B018C4FF6FF7707EA043640F6FF4723
:1011D0003A404FF6FF7707EA05273A434FF6FF7785
:1011E00007EA03373A43114FB8420ED0104FB842C6
:1011F0000BD0B0F1804F08D00E4FB84205D00E4F43
:10120000B84202D00D4FB84206D14DF6FF773940B3
:1012100046F48057394305E047F6FF57394044F418
:101220008057394382830184F0BD0000002C0140C7
:10123000003401400004004000080040000C004061
:1012400010B501210C4800F029F801210A4800F0EE
:1012500028F80A480088401C084908800846008889
:10126000B0F57A7F06DB0020088005480088401C26
:101270000349088010BD0000000800400200002063
:101280000400002021B1028842F08002028004E0C4
:1012900002884FF67F731A4002807047CA43028269
:1012A0007047CA430282704721B1028842F00102AE
:1012B000028004E002884FF6FE731A4002807047F5
:1012C00031B1B0F8442042F40042A0F8442005E0D7
:1012D000B0F84420C2F30E02A0F844207047F0B5E5
:1012E0000C4615461E460021002200230189028B70
:1012F000038C4FF6F877394021434FF6FC473A40CC
:1013000040F201173A434FF6DD773B404FF6FF7747
:1013100007EA06172F433B43018102830384F0BD94
:101320000146888C7047000070B505460C4624487D
:1013300085420ED0234885420BD0B5F1804F08D0AE
:101340002148854205D02148854202D02048854267
:1013500000D100E000BF208850B92389A2886188AD
:101360002846FFF74DFEE188284600F0A2F825E068
:10137000208804280AD12389A28861882846FFF79B
:101380007FFEE188284600F09DF817E020880828B5
:101390000AD12389A28861882846FFF7BDFEE1882B
:1013A000284600F09CF809E02389A2886188284635
:1013B000FFF7FAFEE188284600F09AF870BD0000B9
:1013C000002C0140003401400004004000080040AF
:1013D000000C00400021018041800121818000211A
:1013E000C180018170471AB183890B43838102E078
:1013F00083898B438381704770B5002400220023CA
:10140000058C4FF6FF6635400584028C8388848BFB
:101410004FF68F752C404FF6FC752C400D882C43F1
:101420004FF6FF552A400D894FF6FF7606EA05254F
:101430002A434D8806EA05252A43154DA84202D0C5
:10144000144DA8421DD14FF2FF752A404D894FF629
:10145000FF7606EA05252A434FF6FF352A408D8898
:1014600006EA05252A434EF6FF752B404DF6FF751B
:101470002B408D8906EA05152B43CD8906EA051513
:101480002B4383808483CD888587028470BD0000D0
:10149000002C0140003401400A460021818B4FF6A8
:1014A000F7731940114381837047818770478184A6
:1014B0007047028B4FF6F3731A400283028B0A4384
:1014C00002837047028B4FF2FF331A400283028B74
:1014D0004FF6FF7303EA01231A4302837047828B9E
:1014E0004FF6F3731A408283828B0A4382837047DC
:1014F000828B4FF2FF331A408283828B4FF6FF7349
:1015000003EA01231A438283704700000022028805
:101510001D4B98420ED01D4B98420BD0B0F1804F1E
:1015200008D01B4B984205D01A4B984202D01A4B58
:10153000984204D14FF68F731A404B881A43174BC9
:10154000984207D0164B984204D04FF6FF431A40FA
:10155000CB881A4302808B8883850B8803850A4BCE
:1015600098420BD0094B984208D00E4B984205D0B8
:101570000D4B984202D00D4B984201D10B7A038655
:101580000123838270470000002C01400034014099
:101590000004004000080040000C00400010004023
:1015A0000014004000400140004401400048014058
:1015B00000B587B001208DF802008002ADF8000070
:1015C00018208DF8030069462048FFF71DF94FF4F5
:1015D0000060ADF8000004208DF8030069461B4848
:1015E000FFF712F901211A48FFF79AF90020ADF828
:1015F0000400ADF806004FF40070ADF808000020BC
:10160000ADF80A0001A9134800F026F84FF4E130C4
:1016100003900020ADF81000ADF81200ADF81400F2
:10162000ADF818000C20ADF8160003A9094800F029
:1016300055F8012240F22551064800F02AF8012110
:10164000044800F01AF807B000BD00000010014087
:10165000100014000048004010B502460020108A17
:101660004FF2FF0318400B884C8823438C88234398
:10167000CC8823431843108210BD21B1828942F4E3
:101680000052828104E082894DF6FF731A40828104
:101690007047F0B50346002400260025002040F6E0
:1016A0006A17B94200D100BF1846C1F3421401F0D5
:1016B0001F06012707FA06F5012C01D10C3004E0C2
:1016C000022C01D1103000E014301AB107682F430A
:1016D000076002E00768AF430760F0BD2DE9F047FF
:1016E00086B005460E460024A24600BFA14600274C
:1016F000B08900B100BF2F462C8A4CF6FF70044021
:10170000F08804432C82AC894EF6F3100440B08874
:1017100031890843718908430443AC81AC8A4FF690
:10172000FF400440B0890443AC8201A8FFF718FAD7
:101730001F48874202D1DDF810A001E0DDF80CA0BF
:10174000A88900F4004040B10AEBCA0000EB0A107F
:1017500031684900B0FBF1F807E00AEBCA0000EB82
:101760000A1031688900B0FBF1F86420B8FBF0F092
:1017700004012009642101FB1089A88900F40040BC
:1017800040B1322000EBC900B0FBF1F000F00700DF
:10179000044308E0322000EB09106421B0FBF1F0B3
:1017A00000F00F0004432C8106B0BDE8F087000074
:1017B0000038014010B501210548FEF7C3FD28B1EE
:1017C00001210348FEF7CAFC00F036F910BD000005
:1017D0000064004030B587B002211448FEF7B2FD26
:1017E00008B302211148FEF7B9FC02AA00210F48F4
:1017F000FEF7CBFE9DF81000A0B99DF81B400C48E9
:10180000007884420DDA1C2C0BDA0A4850F82400C8
:1018100038B106980090074850F8245002A80FC825
:10182000A84700BF00BF07B030BD00000064004003
:1018300014000020003F002000BFFEE702E008C8BF
:10184000121F08C1002AFAD170477047002001E03A
:1018500001C1121F002AFBD17047000010B500F033
:10186000CBFA02490968081A10BD000018000020D0
:1018700007480068C0F3806005490968C1F3C0618A
:10188000084403490968C1F3007108447047000027
:101890000864004000B585B001210846FFF72AF929
:1018A00001214806FFF706F901210420FFF722F97C
:1018B0004FF40060ADF8100048208DF813000320AD
:1018C0008DF8120004A92648FEF79EFF4FF48050C1
:1018D000ADF8100018208DF8130003208DF81200C9
:1018E00004A91F48FEF790FF1E48FEF78BFC01A8D5
:1018F000FEF7C3FE00208DF80A0001208DF80B00D2
:1019000000208DF80C008DF80D008DF80E008DF87C
:101910000F008DF806008DF8070002208DF80800F2
:1019200001208DF809000620ADF8040001A90D483A
:10193000FEF7A1FD012211460A48FEF793FD132090
:101940008DF8000000208DF8010004208DF80200C1
:1019500001208DF803006846FFF752F805B000BD7E
:10196000000801400064004010B5034A40F2FF71D6
:10197000B52000F003F810BD5D1F00087FB50546D7
:101980000C4616461F2040EA441084B214480078E2
:101990008DF80A0000208DF80B0001208DF80C0056
:1019A0004FF6FF7000EA4510ADF800000020ADF8DA
:1019B0000200ADF80440ADF80600ADF808000120C3
:1019C0008DF80D006846FEF739FC06480449097891
:1019D00040F8216002480078401C014908707FBD32
:1019E00014000020003F002008B501220221094810
:1019F000FEF738FD14208DF8000000208DF801005E
:101A000004208DF8020001208DF803006846FEF7DF
:101A1000F7FF08BD006400400FB410B502A90548E7
:101A2000FEF73BFE042803D0012010BC5DF814FB38
:101A30000020FAE70064004010B58AB000F018F901
:101A400000287DD1FFF714FF0328FAD147488068AA
:101A50004649098800EB01100068069043488068F9
:101A60004249098800EB011000798DF81C003F48BD
:101A700080683E49098800EB011040798DF81D000F
:101A80003A4880683949098800EB011081798DF85E
:101A90001E10364880683549098800EB0110C1796D
:101AA0008DF81F10314880683049098800EB01101B
:101AB000017A06A801722D4880682C49098800EB3C
:101AC0000110417A06A84172284880682749098890
:101AD00000EB0110817A06A88172244880682349AE
:101AE000098800EB0110C17A06A8C1721F488068FE
:101AF0001E49098800EB0110017B06A801739DF8BF
:101B00001C4006980190002002908DF80D008DF881
:101B10000C008DF80E4004E00DF11D00015D0E3843
:101B20000155201EA4F10101CCB2F5D10598009019
:101B300001A80FC8FFF770FF60B10C48008800E0F3
:101B400011E0401C0949898890FBF1F201FB120069
:101B500006490880FFF78CFE032801D1FFF76CFFD0
:101B600001200AB010BD0020FBE7000008000020A3
:101B70001FB500243D484088401C3C49898890FBA3
:101B8000F1F201FB120039490988884201D1012490
:101B900064E0364800998068344A528800EB0210AD
:101BA00001609DF8041031488068304A528800EB8B
:101BB000021001719DF805002C4989682B4A528852
:101BC00001EB021148719DF8061028488068274AE9
:101BD000528800EB021081719DF80710234880683D
:101BE000224A528800EB0210C1719DF808101F486C
:101BF00080681E4A528800EB021001729DF809109D
:101C00001A488068194A528800EB021041729DF808
:101C10000A1016488068154A528800EB021081723B
:101C20009DF80B1011488068104A528800EB021092
:101C3000C1729DF80C100D4880680C4A528800EB68
:101C40000210017309484088401C0849898890FBAC
:101C5000F1F201FB1200054948800024FFF7ECFE79
:101C600014B9012004B010BD0020FBE708000020DB
:101C70000448008803494988884201D101207047FF
:101C80000020FCE70800002000B587B001210420F7
:101C9000FEF730FF0320ADF8180004208DF81B007C
:101CA00003208DF81A0006A91E48FEF7ADFD01219C
:101CB0000846FEF7FFFE0020ADF80C004FF6FF705F
:101CC000ADF810000020ADF81200ADF80E0003A929
:101CD0004FF08040FFF71AFC00231A4603214FF013
:101CE0008040FFF7FCFA6846FFF774FB0820ADF868
:101CF00008006946C006FFF717FB01218807FFF7B8
:101D0000CDFA012211469007FFF76DFB4FF4004119
:101D1000C803FFF7CCFB01218807FFF7C5FA07B01E
:101D200000BD00000008014010B500F071F8FA286D
:101D300005DB00F06DF840F2EE21884204DD012160
:101D4000032000F077F803E00021032000F072F890
:101D500010BD000010B54FF08040FFF7E1FA0446D7
:101D60004FF2305084420DDDA4F5EA40303881B2A4
:101D70004FF08040FFF79BFB18480068401C174954
:101D800008600FE0B4F52D6F0CDA47F230502044B4
:101D900081B24FF08040FFF78AFB10480068401E78
:101DA0000E4908604FF08040FFF7BAFA0B49096806
:101DB00040F25372514300EB0110A0F50040084976
:101DC0000860084600684042064909680844064918
:101DD0000860034800680349086010BD4C000020FB
:101DE0004400002050000020480000200148006806
:101DF0007047000044000020014800687047000060
:101E000048000020014800887047000004000020BE
:101E10000148008870470000020000200148007857
:101E2000704700002900002001480078704700003A
:101E30005400002070B504460E46002504F0010051
:101E400008B145F0010504F0020008B145F00205B3
:101E5000324629460148FEF7AFFD70BD0010014033
:101E600008B501211020FEF745FE0320ADF8000063
:101E700002208DF8020010208DF803006946024808
:101E8000FEF7C2FC08BD00000010014010B5FFF7CE
:101E9000B9FF044600EBD4704010A4EB400020B121
:101EA00001210846FFF7C6FF03E000210120FFF7EC
:101EB000C1FF10BD002005490860054908600120E8
:101EC0000449087004490870704700001C00002095
:101ED00018000020280000202A00002041F288304D
:101EE00000F0BCFA00F0C6FAFFF7BAFFFFF7CCFE2D
:101EF00000F07AF9FFF7CEFCFFF776FDFFF734FD2F
:101F000028E0FFF785FF14490988884222D0FFF7AF
:101F10007FFF11490880FFF71DFF00F0E3FA0E482C
:101F20000088052190FBF1F201FB120020B9FFF7B8
:101F30005DFF044600F010FAFFF770FF10B9FFF7DD
:101F4000F3FE07E0FFF770FF10B100F0B1F901E018
:101F5000FFF79CFFD5E70000000000200FB42DE93B
:101F6000FC4101210220FFF765FF9DF82B0044286A
:101F700023D0AA2804D0BB283CD0EE286DD165E040
:101F80009DF82A00062817D104240020019000BFE4
:101F900007E00DF12B01421C895C01AA1154411C80
:101FA000C8B20428F5DB042101A800F0B9F9054600
:101FB000284600F041FA00BF57E09DF82A000328A8
:101FC00017D102250020019000BF07E00DF12B0181
:101FD000421C895C01AA1154411CC8B20228F5DBDD
:101FE000022101A800F09CF984B2204600F0DCF93F
:101FF00000BF3AE09DF82A00072826D102250426D2
:1020000000200190009000BF0FE0022805DA0DF1DA
:102010002B01421C895C01AA11540DF12B01C21C39
:10202000895C01AA1154411CC8B20428EDDB0221CD
:10203000684600F075F984B2042101A800F070F937
:102040000746214600F0DCF900BF0EE09DF82A00AB
:10205000012801D1FFF72EFF07E000210220FFF742
:10206000E9FEBDE8FC015DF814FB00BF0021022081
:10207000FFF7E0FE00BFF4E72DE9F04105460E460C
:102080001746FFF7EBFB4E490968A0EB010808FB78
:1020900005F8FFF7E3FB06FB0088FFF7DFFB494984
:1020A0000968014446480068A1EB400007FB008432
:1020B0002046FEF749F8444988420EDD2046FEF7E7
:1020C00043F894FBF0F000EB0020C0EBC00042F2BC
:1020D0001071484300EB800044003C480078012820
:1020E0003CD13B480078C0B33A480068FEF72CF872
:1020F00000280FDDFFF780FE60B937480088401CDC
:102100003549088008460088642806DD00203049EB
:10211000087002E000203049088030480068204400
:102120002E49086008460068FEF70EF82C498842E0
:1021300033DD2A480068FEF707F82849096891FB53
:10214000F0F000EB0020C0EBC00042F210714843F9
:1021500000EB8000214908601FE0FFE71B48007882
:10216000012805D11A48007810B900201B490860E1
:102170001748007828B1FFF73FFE16490860194953
:1021800008601348007840B9FFF736FE28B10020F8
:102190001149088001200E49087009480068094962
:1021A0000860FFF75BFB064908600C48006842F2D4
:1021B000107190FBF1F8404600F080F8BDE8F08126
:1021C000380000203C000020600EB90A28000020E2
:1021D00029000020180000204000002024000020DA
:1021E00030875C051C00002000B589B00121082063
:1021F000FEF780FC0120ADF8040018208DF80700E0
:1022000001208DF8060001A92648FEF7FDFA0121FC
:102210001020FEF76FFC3020ADF8040002208DF88E
:10222000060010208DF8070001A91F48FEF7ECFA00
:1022300001210220FEF73EFC40F20770ADF81C00C1
:102240000020ADF81E00ADF81800ADF81E00ADF886
:102250001A0006A91548FFF759F96020ADF80800E3
:102260000020ADF810000120ADF80A000020ADF804
:102270000E0002A90D48FFF7BFF808210B48FFF731
:102280000BF901210948FEF7FDFF01210748FFF77F
:102290000BF801210548FFF713F8002000F00EF8B5
:1022A00009B000BD000C01400010014000040040D6
:1022B00010B501210320FFF7BDFD10BD70B5044628
:1022C000B4F5E16F05DB40F2077401201149087095
:1022D0000AE014F5E16F04DC0F4C01200D49087091
:1022E00002E000200B4908702046FDF72DFF40F268
:1022F0000771081A85B229460848FFF7D6F8002C5E
:1023000001DD012101E06FEAE471084600F05EF8AA
:1023100070BD000054000020F9F8FFFF00040040E9
:1023200030B504460D460DB9207830BD681EC1B2E7
:10233000601CFFF7F5FF0146207861F31F20F4E7EA
:1023400030B504460D460DB9E0B230BD6A1ED1B2BB
:102350002012FFF7F5FFF8E71FB50446B5200090FF
:1023600005208DF8040022208DF80500002120466C
:10237000FFF7E6FF8DF8060001212046FFF7E0FF9A
:102380008DF8070002212046FFF7DAFF8DF80800DC
:1023900003212046FFF7D4FF8DF809009DE80F00C8
:1023A000FFF7E6FB1FBD000002214FF47A720228FE
:1023B00001DA022004E0B0F57A7F01DD4FF47A7093
:1023C000014B1880704700002000002010B5044623
:1023D00044B910210948FEF7EDFA20210748FEF71D
:1023E000E7FA09E0012C07D120210448FEF7E2FAC0
:1023F00010210248FEF7DCFA10BD00000010014079
:10240000094A1060094A1288962A02DA074A11809E
:1024100002E09622054B1A800122054B1A70002219
:10242000044B1A70704700002C0000203000002080
:10243000280000202A00002042F210714143044A83
:1024400011600021034A11700121034A1170704785
:1024500024000020280000202A00002010B5044697
:10246000FEF70AFDFFF7A4F82046FEF74FFDFEF742
:10247000ADFA10BD1FB501210420FEF71BFB4FF480
:102480007A70ADF80400144800681449B0FBF1F00C
:10249000401E80B2ADF8000069461148FFF736F8DB
:1024A00001210F48FEF7FDFE012211460C48FEF700
:1024B0009AFF01210A48FEF7F7FE00208DF80D0073
:1024C00001208DF80E008DF80F001E208DF80C00F5
:1024D00003A8FEF795FA1FBD6C00002040420F00D4
:1024E0000008004010B531490968314A1268881A5D
:1024F000FDF72AFE00EB4001C1EBC0102D49098811
:10250000B1EBC00F29DA29490968294A1268881AEB
:10251000FDF71AFE25490968254A1268891A91FBB8
:10252000F0F004B22348008860434FF47A7190FBC6
:10253000F1F01F49096808441D4908601D480088DA
:1025400060434FF47A7190FBF1F201FB12001A49DB
:10255000096808441849086007E0144800681449ED
:10256000086000201449086010BD13480068FDF79A
:10257000EBFDB0F57A7F16DD0F4909684FF47A72EA
:1025800091FBF2F070B100EB4001C1EBC0110A4ABF
:102590001268A2EBC101084A1160054909680144AB
:1025A000034A116000BF00BFDEE700001C000020EE
:1025B0001800002020000020340000201027E8032D
:1025C000E025000800000020800000003C18000802
:1025D0006026000880000020F04200004C1800082F
:1025E000FFFF00000000000000000000E803000002
:1025F000800000200000000000000000000000003B
:10260000E8030000000000000001010000000000DD
:1026100000000000000000000000000000000000BA
:1026200000000000000000000000000000000000AA
:10263000000000000000000000010203040102038A
:1026400004060708090204060800000000A24A0464
:102650000000000000000000010203040607080952
:04000005080000ED02
:00000001FF
